:100000000C942A1C0C94631C0C94631C0C94631CAD
:100010000C94631C0C94631C0C94631C0C94631C64
:100020000C94631C0C9442C50C94631C0C94631CCC
:100030000C94631C0C940C870C94631C0C94631C30
:100040000C947D810C94631C0C94F8C40C94631C78
:100050000C943E510C9434510C94631C0C94631C0E
:100060000C94631C0C94631C0C94631C0C94631C14
:100070000C94631C0C94631C0C94631C0C94631C04
:100080000C94631C0C94631C0C94631C4E414E49ED
:100090004E495459494E46CDCCCC3D0AD7233C1746
:1000A000B7D13877CC2B329595E6241FB14F0A0093
:1000B0000020410000C84200401C4620BCBE4CCA83
:1000C0001B0E5AAEC59D7400407A10F35A00A07200
:1000D0004E18090010A5D4E80000E8764817000083
:1000E000E40B54020000CA9A3B000000E1F5050051
:1000F0000080969800000040420F000000A086019A
:10010000000000102700000000E803000000006469
:1001100000000000000A00000000000100000000D4
:10012000002C76D888DC674F0823DFC1DFAE59E1A9
:10013000B1B796E5E3E453C63AE651997696E8E618
:10014000C28426EB898C9B62ED407C6FFCEFBC9CEB
:100150009F40F2BAA56FA5F490055A2AF75C936BFD
:100160006CF9676DC11BFCE0E40D47FEF520E6B5B8
:1001700000D0ED902E0300943577050080841E0892
:100180000000204E0A000000C80C333333330F98B0
:100190006E12831141EF8D2114893BE65516CFFE77
:1001A000E6DB18D1844B381BF77C1D901DA4BBE403
:1001B00024203284725E228100C9F124ECA1E53D45
:1001C00027434F4D4D554E49434154494F4E0044EE
:1001D000525952554E004552524F525300494E46C5
:1001E0004F004543484F004269747465206E657541
:1001F0007374617274656E00445255434B455220CE
:10020000474553544F5050540025533A202553002E
:100210004142474542524F4348454E005072696E35
:100220007465722068616C7465642E206B696C6CF7
:1002300028292063616C6C6564210A006563686F1E
:100240003A004572726F723A004F4646004F4E00B8
:100250000A4D6561737572656420706F696E7473A1
:100260003A0A00337833206D6573682E205A206F68
:1002700066667365743A2000206E6F7420656E7434
:10028000657265642E0A004D65737370756E6B74CC
:100290000025532025692F256900206F6620004D19
:1002A000424C2047323920706F696E742000290A51
:1002B000004A206F7574206F662072616E6765203A
:1002C00028302D00290A0049206F7574206F6620A0
:1002D00072616E67652028302D004732384C30003F
:1002E0004E6976656C6C696572756E6720666572BD
:1002F000746967004D6573682070726F62696E671C
:1003000020646F6E652E0A005374617274206D65EF
:1003100073682070726F62696E67207769746820F5
:1003200022473239205331222066697273742E0AB3
:10033000004732395332004732384C300A4732399D
:10034000533200686173206E6F20646174612E0AFD
:10035000004D65736820426564204C6576656C6964
:100360006E67200053206F7574206F662072616E77
:1003700067652028302D35292E0A0020204D323087
:10038000312058004D617820416363656C6572616E
:1003900074696F6E2028756E6974732F733229002B
:1003A00020204D3230332058004D6178206665653D
:1003B0006472617465732028756E6974732F732974
:1003C0000020520020204D32303420500041636321
:1003D000656C65726174696F6E2028756E697473DF
:1003E0002F7332292028503C7072696E742D61631E
:1003F00063656C3E20523C726574726163742D615A
:100400006363656C3E20543C74726176656C2D614B
:100410006363656C3E2900204A002054002053008D
:1004200020204D323035204200416476616E636594
:10043000642028423C6D696E5F7365676D656E74FC
:100440005F74696D655F75733E20533C6D696E5FC7
:1004500066656564726174653E20543C6D696E5FCB
:1004600074726176656C5F66656564726174653E21
:10047000204A3C6A756E635F6465763E29002044BD
:100480000020490020204D333031205000486F7447
:10049000656E6420504944002E0A00206E6F74205F
:1004A00064697361626C65642E205368617265646F
:1004B0002077697468004D323453256C6454256C80
:1004C00064004739322E394525730047314625648B
:1004D0000047315A2573463630300047315825736E
:1004E0005925734633303030004D31303650256950
:1004F000532569004D313039532569004739322E73
:10050000395A2573004D3432305325635A25730010
:10051000473238523058590047315A2573463630E1
:1005200030004739322E395A2573004739322E3977
:100530004530004D313039532569004D3139305344
:100540002569004D343230205330205A3000203B92
:10055000200020204D343133205300506F776572D6
:100560002D6C6F7373207265636F766572790020EE
:10057000496E76616C696420657874727564657221
:10058000200057617274656E2E2E2E004D657368C3
:1005900020706F696E74206F7574206F66207261B1
:1005A0006E67650A004B6C69636B207A756D204637
:1005B0006F72747365747A656E00616C736F206519
:1005C0006E61626C6564290A004D6F746F72656EAE
:1005D00020616E6765736368616C74657400456E55
:1005E000642066696C65206C6973740A00426567F3
:1005F000696E2066696C65206C6973740A004E6FC1
:10060000206D656469610A00286E6F2066696C65FB
:10061000290043757272656E742066696C653A20B4
:10062000005344207072696E74696E672062797439
:100630006520004E6F74205344207072696E746997
:100640006E670A0043616E6E6F74206F70656E2076
:1006500073756264697220002569730025696D20D5
:10066000256973002569682025696D202569730057
:10067000256964202569682025696D202569730036
:1006800025697920256964202569682025696D2000
:10069000256973005072696E742074696D653A2023
:1006A000006F6B006F666600E201DD01D601CF01CD
:1006B000C10144454255473A004D31313320530082
:1006C000416E796375626963204D656761205345AA
:1006D000204F46462E00434F4E4649475F455850EF
:1006E0004F5254004D4541545041434B00434F4FEE
:1006F0004C45525F54454D5045524154555245006A
:100700004348414D4245525F54454D504552415436
:1007100055524500424142595354455050494E4765
:100720000041524353004D4F54494F4E5F4D4F448B
:10073000455300544845524D414C5F50524F54452B
:100740004354494F4E00455854454E4445445F4D2F
:10075000323000435553544F4D5F4649524D574137
:1007600052455F55504C4F4144004C464E5F5752E6
:10077000495445004C4F4E475F46494C454E414D0C
:1007800045004155544F5245504F52545F53445FBA
:100790005354415455530053445F575249544500F4
:1007A000524550454154004D554C54495F564F4CAD
:1007B000554D45005344434152440050524F4D5013
:1007C000545F535550504F525400484F53545F415B
:1007D0004354494F4E5F434F4D4D414E44530045A6
:1007E0004D455247454E43595F5041525345520083
:1007F000434153455F4C494748545F42524947483B
:10080000544E45535300544F47474C455F4C49475E
:1008100048545300534F4654574152455F504F5729
:100820004552004255494C445F50455243454E5451
:10083000004C4556454C494E475F44415441005A8F
:100840005F50524F42450052554E4F55540041554E
:10085000544F4C4556454C005052494E545F4A4FF8
:10086000420050524F4752455353004155544F5246
:1008700045504F52545F54454D50004155544F52CE
:1008800045504F52545F504F5300564F4C554D45B5
:100890005452494300454550524F4D0042494E4144
:1008A00052595F46494C455F5452414E534645525A
:1008B0000053455249414C5F584F4E5F584F464692
:1008C000004649524D574152455F4E414D453A4DC4
:1008D00061726C696E20322E302E392E3320284DF5
:1008E000617920313320323032322031333A30399D
:1008F0003A31362920534F555243455F434F4445C3
:100900005F55524C3A6769746875622E636F6D2F3C
:100910004D61726C696E4669726D776172652F4DBB
:1009200061726C696E2050524F544F434F4C5F566A
:10093000455253494F4E3A312E30204D414348499C
:100940004E455F545950453A416E7963756269630B
:10095000204D656761205345204558545255444504
:10096000525F434F554E543A3120555549443A341D
:10097000333663616461352D616234352D3431372E
:10098000392D393836302D3634336165623061396E
:100990003030650A002F2F004D31343520533C692B
:1009A0006E6465783E206F7574206F662072616E8C
:1009B00067652028302D31290A003F4A206F757461
:1009C000206F662072616E67652028302E303120DE
:1009D000746F20302E33290A0020580020204D61EA
:1009E000783A2000200020204D696E3A2000203BFC
:1009F000200020204D323131205300536F66742087
:100A0000656E6473746F70730046523A0020466CD2
:100A10006F773A20004D424C2041646A7573742010
:100A20005A0064697300656E0043290A0061626CB4
:100A3000656420286D696E2074656D702000436FB9
:100A40006C642065787472756465732061726520CA
:100A5000004F46460A00466164652048656967683C
:100A6000742000426564204C6576656C696E672071
:100A7000004661696C656420746F20656E61626C0C
:100A80006520426564204C6576656C696E670A0076
:100A90004D65736820426564204C6576656C206402
:100AA0006174613A0A00496E76616C6964206D6513
:100AB00073682E0A004D65736820706F696E74202C
:100AC0006F7574206F662072616E67650A004D3421
:100AD000323120696E636F72726563742070617267
:100AE000616D657465722075736167650A004545BF
:100AF00050524F4D204F4B0A004D383400446F6E1A
:100B000065207072696E74696E672066696C650A2B
:100B1000004D3737004D333100496E76616C6964A2
:100B20002065787472756465720A004361703A00DA
:100B300020573A006BC3BC686C742E2E2E004531D2
:100B40002025530020573A0042657474206BC3BCC3
:100B5000686C742E2E2E0042657474206865697A64
:100B6000742E2E2E0023646566696E65204445460A
:100B700041554C545F004B6420004B6920004B7082
:100B80002000504944204175746F74756E6520666D
:100B9000696E697368656421205075742074686596
:100BA000206C617374204B702C204B6920616E6443
:100BB000204B6420636F6E7374616E747320667271
:100BC0006F6D2062656C6F7720696E746F20436F64
:100BD0006E66696775726174696F6E2E680A00507F
:100BE0004944204175746F74756E65206661696C47
:100BF0006564212074696D656F75740A00504944FD
:100C0000204175746F74756E65206661696C6564EA
:100C1000212054656D706572617475726520746F02
:100C20006F20686967680A00504944205A796B6CE4
:100C300075730025532025692F256900204B643AE0
:100C40002000204B693A2000204B703A20002043BE
:100C50006C617373696320504944200A0020547505
:100C60003A2000204B753A2000206D61783A200030
:100C7000206D696E3A200020643A2000206269618C
:100C8000733A20006865697A742E2E2E005049440C
:100C9000204175746F74756E652073746172740A87
:100CA00000504944204175746F74756E652066610B
:100CB000696C6564212054656D706572617475722C
:100CC0006520746F6F20686967680A005049442086
:100CD0004175746F74756E65005049442041757498
:100CE0006F74756E65206661696C65642120426170
:100CF00064206865617465722069640A00457272D7
:100D00003A207574663820666F6E74206E6F74209A
:100D1000696E697469616C697A65642E00457272E6
:100D20003A207574663820666F6E74206E6F74207A
:100D3000696E697469616C697A65642E00457272C6
:100D40003A207574663820666F6E74206E6F74205A
:100D5000696E697469616C697A65642E00256875CD
:100D60003A25303268750025303268753A253032C0
:100D70006875002530326875272530326875002582
:100D80006875642025303268753A25303268750000
:100D90004265747400476568C3A4757365002020BC
:100DA0002020202020002020202000202020202083
:100DB000202000453A00523A00657272001FE03F61
:100DC000F03FF03FF01FE01FE03FF03FF03FF00F3B
:100DD000C0078003001FE0201020102010102010FA
:100DE000202010201030300840048003003FFFF026
:100DF00038007030FC3020FC102078102030102C8F
:100E000000D02E31D02F7BD02F7BD02E31D02C0094
:100E1000D020301020781020FC1030FC30380070CA
:100E20003FFFF03FFFF038007031863023871027F6
:100E300087902F87D02F03D0203010207810207873
:100E4000102030102F03D02F87D0278790238710B2
:100E50003186303800703FFFF01FFFF81FFFF804A5
:100E60001040020820020820041040082080104191
:100E7000001041000820800410400000001FFFF80F
:100E80001FFFF880800000F3F0C18000010A00A27B
:100E90008000010200948000010200889E3C7CF3E7
:100EA000E088A1428C0A0080BF42840A0080A042F0
:100EB000840A0080A1428D0A00809E3E7CF3F000EF
:100EC000000200000000003E000000256C64256365
:100ED0006D00447275636B206162676562726F6357
:100EE00068656E004D32350050617573652E2E2E8B
:100EF000004D323400454550524F4D2056657273B7
:100F0000696F6E204665686C657200454550524FAA
:100F10004D20496E646578204665686C65720045B1
:100F20004550524F4D20435243204665686C6572D0
:100F3000003F0049676E6F72696572656E005265A9
:100F4000736574656E005765726B7365696E737453
:100F5000656C6C756E67656E004D333033205531AE
:100F60002045256920532569005049442041757466
:100F70006F74756E65202A0020082046616B746FBF
:100F800072002008206D6178002008206D696E00D5
:100F900061757300616E004175746F2054656D70EA
:100FA00065726174757200452053746570732F6D9E
:100FB0006D005A2053746570732F6D6D0059205366
:100FC000746570732F6D6D00582053746570732FA6
:100FD0006D6D004572772E2045696E7374656C6C7B
:100FE000756E67656E0054656D70657261747572BB
:100FF0000053746570732F6D6D004B6F6E6669677B
:1010000075726174696F6E003F004EC3A4636873AC
:1010100074652045636B65004665727469670057A7
:101020006569746572004E6976656C6C6965726598
:101030006E20666572746967210042657765676531
:10104000205A004732395332004EC3A46368737488
:1010500065204B6F6F7264696E617465002569204D
:101060002F2025750047323953310047323953322A
:10107000004B6C69636B207A756D205374617274D8
:10108000656E0058595A20686F6D656E004B6F6E23
:101090006669672E2073706569636865726E004BC0
:1010A0006F6E6669672E206C6164656E00426574C0
:1010B00074206175737269636874656E004265744B
:1010C00074205A00417573626C656E6468C3B668BB
:1010D000650061757300616E00426574742D4E6920
:1010E00076656C6C696572756E6700426574742014
:1010F0006E6976656C6C696572656E0042657765D0
:1011000067756E67005374616E64617264776572AF
:101110007465206C6164656E004B6F6E6669672E46
:10112000206C6164656E004B6F6E6669672E20737C
:10113000706569636865726E00546F6E00617573E7
:1011400000616E00576965646572682E206E2E20FE
:101150005374726F6D612E004572772E2045696E53
:101160007374656C6C756E67656E0048617570743C
:101170006D656EC3BC00000C0F00FE07022503BBAB
:1011800001FFFE0AFE08FE05080806000040F0C840
:101190008888987810050808060000C0F8888888B4
:1011A0008888F80505050600012030F8302005087C
:1011B000080600002070F820202020E0050909061C
:1011C00000FF2070A8A8B8888870200705050700D0
:1011D00001D86C366CD80509090600FFF8A8888884
:1011E000888888A8F8050A0A0600FE20505050504A
:1011F00088A8A8887003030306000340A040FFFFEF
:10120000FFFFFFFFFFFFFFFFFFFFFFFFFFFFFFFFEE
:10121000FFFFFFFF0000000605FF010707060200B1
:1012200080808080800080030303060105A0A0A0C9
:1012300005060606000050F85050F850050909064A
:1012400000FF2070A8A07028A870200507070600DE
:1012500000C8C8102040989805070706000040A065
:10126000A040A8906801030306020580808003095E
:10127000090601FF2040408080804040200309098A
:101280000601FF80404020202040408005070706DF
:10129000000020A8702070A8200505050600012088
:1012A00020F820200203030601FFC0408005010151
:1012B000060003F8020202060100C0C00507070687
:1012C000000008101020404080050707060000704D
:1012D0008898A8C8887003070706010040C04040EE
:1012E0004040E0050707060000708808102040F81D
:1012F000050707060000F808103008887005070782
:1013000006000010305090F8101005070706000086
:10131000F880F00808887005070706000030408054
:10132000F0888870050707060000F80810102020D4
:1013300020050707060000708888708888700507F8
:10134000070600007088887808106002050506010D
:1013500000C0C000C0C00206060601FFC0C000C039
:10136000408003050506010120408040200503035D
:10137000060002F800F80305050601018040204040
:101380008005070706000070881020200020050750
:10139000070600007088B8A8B88070050707060027
:1013A00000708888F8888888050707060000F048DC
:1013B00048704848F0050707060000708880808064
:1013C0008870050707060000F04848484848F005BF
:1013D0000707060000F88080F08080F80507070600
:1013E0000000F88080F0808080050707060000700C
:1013F000888080988870050707060000888888F82C
:10140000888888030707060100E04040404040E02C
:101410000507070600003810101010906005070738
:101420000600008890A0C0A090880507070600006D
:10143000808080808080F805070706000088D8A893
:10144000888888880507070600008888C8A89888C3
:101450008805070706000070888888888870050757
:1014600007060000F08888F08080800507070600E6
:101470000070888888A89068050707060000F08833
:1014800088F0A09088050707060000708880700823
:101490008870050707060000F8202020202020057E
:1014A000070706000088888888888870050707066F
:1014B00000008888888850502005070706000088AB
:1014C000888888A8A850050707060000888850204B
:1014D00050888805070706000088885020202020B3
:1014E000050707060000F80810204080F8030909E6
:1014F0000601FFE080808080808080E0050707068D
:101500000000804040201010080309090601FFE098
:1015100020202020202020E0050303060005205085
:10152000880501010600FEF803030306010580405B
:10153000200505050600007008788878050707066D
:1015400000008080F0888888F0050505060000709E
:10155000808088700507070600000808788888885A
:10156000780505050600007088F0807005070706FD
:101570000000304840E04040400507070600FE708C
:101580008888887808700507070600008080F08842
:101590008888880307070601004000C0404040E0FB
:1015A0000409090601FE10003010101010906005AB
:1015B000070706000080808890E0908803070706F0
:1015C0000100C04040404040E0050505060000D055
:1015D000A8A8A8A8050505060000B0C88888880541
:1015E000050506000070888888700507070600FE5C
:1015F000F0888888F080800507070600FE788888D4
:1016000088780808050505060000B0C880808005B8
:10161000050506000078807008F005070706000041
:101620002020F8202020180505050600008888885D
:10163000986805050506000088888850200505057E
:101640000600008888A8A8500505050600008850F7
:101650002050880507070600FE88888850204080B3
:10166000050505060000F8102040F80309090601E9
:10167000FF2040404080404040200109090602FF11
:101680008080808080808080800309090601FF803F
:10169000404040204040408005030306000248A827
:1016A00090FFFFFFFFFFFFFFFFFFFFFFFFFFFFFFB9
:1016B000FFFFFFFFFFFFFFFFFFFFFFFFFFFFFFFF3A
:1016C000FFFF0000000605FF01070706020080007B
:1016D00080808080800507070600FF2070A8A0A8F2
:1016E0007020050707060000304840E04048B0057C
:1016F0000505060000A8508850A805070706000049
:101700008850F820F820200107070602008080801A
:10171000008080800408080601007080609090605E
:1017200010E0030101060107A00607070600007884
:1017300084B4A4B4847803050506010460A06000A5
:10174000E00505050600002850A050280503030603
:101750000001F80808030101060103E00607070677
:1017600000007884B4A4A48478050101060007F879
:101770000404040601056090906005070706000058
:101780002020F8202000F803050506010440A020D1
:1017900040E0030505060104C0204020C003030308
:1017A0000601052040800507070600FE8888889806
:1017B000E8808005080806000078E8E8E86828283E
:1017C00028020202060203C0C00302020601FE2034
:1017D000C003050506010440C04040E003050506BE
:1017E000010540A04000E0050505060000A05028C6
:1017F00050A0050A0A06000040C048506050B05092
:101800007810050A0A06000040C048506050A80839
:101810001038050A0A060000C0204830E050B050D9
:10182000781005070706000020002020408870057A
:101830000A0A060000402000708888F88888880519
:101840000A0A060000102000708888F88888880539
:101850000A0A060000205000708888F888888805E9
:101860000A0A06000068B000708888F88888880531
:1018700009090600005000708888F8888888050AE1
:101880000A060000205020708888F888888805079C
:101890000706000078A0A0F0A0A0B805090906007E
:1018A000FE708880808088701060050A0A0600003B
:1018B000402000F88080F08080F8050A0A060000C9
:1018C000102000F88080F08080F8050A0A060000E9
:1018D000205000F88080F08080F80509090600009B
:1018E0005000F88080F08080F8030A0A060100802A
:1018F0004000E04040404040E0030A0A060100206A
:101900004000E04040404040E0030A0A0601004039
:10191000A000E04040404040E0030909060100A06B
:1019200000E04040404040E00507070600007048E6
:1019300048E8484870050A0A06000068B000888830
:10194000C8A8988888050A0A060000402000708808
:101950008888888870050A0A0600001020007088B0
:101960008888888870050A0A060000205000708860
:101970008888888870050A0A06000068B0007088A8
:1019800088888888700509090600005000708888DA
:101990008888887005050506000188502050880554
:1019A00009090600FF087098A8A8A8C87080050A51
:1019B0000A06000040200088888888888870050A08
:1019C0000A06000010200088888888888870050A28
:1019D0000A060000205000888888888888700509D9
:1019E00009060000500088888888888870050A0ADF
:1019F00006000010200088885020202020040707BF
:101A000006010080E0909090E08005070706000046
:101A1000708890A09088B00508080600004020005B
:101A20007008788878050808060000102000700803
:101A3000788878050808060000205000700878882B
:101A40007805080806000068B000700878887805F6
:101A50000707060000500070087888780508080617
:101A600000002050207008788878050505060000E1
:101A7000702870A0780507070600FE7088808870BF
:101A800010600508080600004020007088F0807093
:101A90000508080600001020007088F08070050816
:101AA000080600002050007088F0807005070706C7
:101AB000000050007088F080700308080601008064
:101AC0004000C0404040E0030808060100204000FC
:101AD000C0404040E003080806010040A000C040AC
:101AE0004040E0030707060100A000C0404040E07E
:101AF000050909060000502050087888888870057C
:101B0000080806000068B000B0C888888805080882
:101B100006000040200070888888700508080600CC
:101B200000102000708888887005080806000020D2
:101B30005000708888887005080806000068B000AA
:101B40007088888870050707060000500070888834
:101B500088700505050600012000F8002005050530
:101B60000600007898A8C8F0050808060000402084
:101B70000088888888700508080600001020008802
:101B8000888888700508080600002050008888882A
:101B9000887005070706000050008888888870054F
:101BA0000A0A0600FE102000888888502040800520
:101BB00009090600FE8080F0888888F08080050989
:101BC000090600FE50008888885020408050455407
:101BD0004700504C41003132300035004245443A14
:101BE000204550434F53203130304B0052756E61C9
:101BF0007761792057617463683A20414E004D61E6
:101C0000782054656D7000323535004D696E205472
:101C1000656D7000350045313A204550434F5320E3
:101C20003130304B004E65747A7465696C004765DD
:101C30006E657269630050726F746F6B6F6C6C00CD
:101C4000312E300042617564726174650032353046
:101C5000303030004D656C7A692028437265616CC4
:101C600069747929004E65747A2D4E6976656C6CBD
:101C7000696572756E670045787472756465720087
:101C800031006D61726C696E66772E6F726700410C
:101C90006E796375626963204D6567612053450005
:101CA000323032312D31322D323500322E302E3954
:101CB0002E33004D61726C696E00546865726D69F7
:101CC00073746F72656E00426F6172642D496E6647
:101CD0006F00447275636B65722D496E666F0048C4
:101CE000617570746D656EC3BC004D31303030006D
:101CF00053442D447275636B206162627265636840
:101D0000656E0053442D447275636B20666F727468
:101D10007365747A656E00576965646572682E2014
:101D20006E2E205374726F6D612E003F005A7572D3
:101D3000C3BC636B0053746F70004D3232004D654D
:101D40006469756D20696E697469616C2E004D322D
:101D50003100447275636B20766F6D204D65646948
:101D6000756D004D656469756D206672656967659E
:101D700062656E004175746F737461727400C39C08
:101D80006265722064656E20447275636B657200D3
:101D90004B6F6E66696775726174696F6E0054652A
:101DA0006D70657261747572004265776567756EF6
:101DB000670053442D447275636B20666F727473B1
:101DC00065747A656E004A757374696572756E67BD
:101DD0000053442D447275636B20616262726563C7
:101DE00068656E0053442D447275636B2070617595
:101DF00073696572656E00496E666F003F005374CB
:101E00006172746520447275636B00416262726531
:101E10006368656E00447275636B656E0043616E46
:101E20006E6F7420656E746572207375626469727A
:101E30003A200002202E2E0001416B7475616C69FE
:101E400073696572656E005A7572C3BC636B004836
:101E5000617570746D656EC3BC002100486F746558
:101E60006E64207A75206B616C74005A7572C3BC05
:101E7000636B00576569746572004732385A0047D2
:101E800032385900486F6D6520400047323858009D
:101E90004175746F20486F6D6500473238004265A8
:101EA000776567756E67004D6F746F72656E20643D
:101EB00065616B746976696572656E004D383400D2
:101EC000426574742D4E6976656C6C696572756EC9
:101ED0006700486F6D696E670048617570746D6565
:101EE0006EC3BC0024204265747420566F7277C3A1
:101EF000A4726D656E002420457874722E20566F92
:101F00007277C3A4726D656E0054656D7065726101
:101F100074757200D21BCD1B41626BC3BC686C65CB
:101F20006E002420566F7277C3A4726D656E004CEC
:101F3000C3BC6674657200426574740044C3BC73AC
:101F4000650048617570746D656EC3BC0042616266
:101F50007973746570205A00466C7573737261747E
:101F600065004CC3BC6674657200426574740044BD
:101F7000C3BC73650042657474205A00476573637F
:101F800068772E0048617570746D656EC3BC006F14
:101F900070656E00545249474745524544003A2007
:101FA000007A5F6D696E00795F6D696E00785F6DB4
:101FB000696E005265706F7274696E6720656E6439
:101FC00073746F70207374617475730A0020746F7A
:101FD0006F206C6F6E6720657874727573696F6EB1
:101FE0002070726576656E7465640A0020636F6C9C
:101FF0006420657874727573696F6E20707265768F
:10200000656E7465640A000000A0C0000020C10075
:102010000000005761726E696E673A20486F6D6903
:102020006E672042756D702044697669736F722007
:102030003C20310A000202040000614300006643B4
:1020400000007A430000A0400000A04000000040D3
:1020500000000001000000010000800055555500FF
:102060000000400033333300AAAA2A00499224001A
:1020700000002000C7711C0099991900D145170074
:10208000555515003BB113002449120011111100E0
:10209000000010000F0F0F00E3380E0043790D0011
:1020A000CCCC0C00C3300C00E8A20B0064210B0068
:1020B000AAAA0A00703D0A009DD80900427B0900C7
:1020C00092240900DCD30800888808001042080028
:1020D00000000800F0C1070087870700755007005F
:1020E000711C07003EEB0600A1BC060069900600CB
:1020F00066660600703E06006118060017F40500CB
:1021000074D105005BB00500B29005006272050055
:102110005555050078390500B81E05000505050070
:102120004EEC040087D40400A1BD040090A7040075
:1021300049920400C17D0400EE690400C756040002
:10214000444404005C3204000821040041100400EF
:10215000000004003FF00300F8E0030026D2030073
:10216000C3C30300CCB503003AA803000A9B0300D5
:10217000388E0300C08103009F750300D0690300FF
:10218000505E03001D53030034480300913D0300DB
:102190003333030016290300381F0300971503008B
:1021A000300C0300030303000BFA020049F10200A4
:1021B000BAE802005CE002002DD802002DD0020037
:1021C00059C80200B0C0020031B90200DAB1020001
:1021D000AAAA0200A0A30200BC9C0200FA95020079
:1021E0005C8F0200DF88020082820200457C0200D0
:1021F0002776020027700200436A02007C64020016
:10220000D05E02003F590200C8530200FFFDFCFAF5
:10221000F8F6F4F2F0EEECEAE9E7E5E3E1E0DEDC23
:10222000DAD9D7D5D4D2D0CFCDCBCAC8C7C5C3C2CF
:10223000C0BFBDBCBAB9B7B6B4B3B2B0AFADACAA4B
:10224000A9A8A6A5A4A2A1A09E9D9C9A999897959D
:10225000949392908F8E8D8B8A89888786848382CF
:1022600081807F7E7D7B7A797877767574737271E1
:10227000706F6E6D6C6B6A696867666564636261D6
:10228000605F5E5D5C5B5A595858575655545352BF
:102290005150504F4E4D4C4B4A4A4948474646458F
:1022A0004443424241403F3E3E3D3C3B3B3A39384D
:1022B0003837363535343332323130302F2E2E2DFB
:1022C0002C2B2B2A2929282727262525242323229E
:1022D000212120201F1E1E1D1C1C1B1B1A19191832
:1022E00018171616151514131312121111100F0FBB
:1022F0000E0E0D0D0C0C0B0A0A090908080707063B
:1023000006050504040303020201000000005C430B
:1023100000005C4300007A430000A0C0000020C120
:102320000000000045696E7374656C6C2E20676553
:10233000737065692E00290A002062797465733B09
:1023400020637263200053657474696E6773205351
:10235000746F72656420280048617264636F6465FD
:10236000642044656661756C742053657474696E8D
:102370006773204C6F616465640020286D6D2900CF
:10238000203B204C6576656C696E67200020204DEF
:102390003432302053004D65736820426564204C10
:1023A0006576656C696E6700204600204200204813
:1023B0000020204D3134352053004D617465726921
:1023C000616C2068656174757020706172616D6503
:1023D00074657273002020473239205334205A002C
:1023E000204A002020473239205333204900202042
:1023F0004D3134392043203B20556E697473206978
:102400006E2043656C736975730A0054656D706561
:1024100072617475726520556E697473002020476F
:102420003231203B004C696E65617220556E6974D3
:102430007300454550524F4D206461746173697A51
:1024400065206572726F722E0A00290A0020627977
:102450007465733B2063726320002073746F726530
:10246000642073657474696E677320726574726931
:1024700065766564202800202863616C63756C6153
:1024800074656429210A0020213D200045455052F1
:102490004F4D20435243206D69736D617463682012
:1024A0002D202873746F7265642920002053697A87
:1024B000653A2000496E6465783A20000000964332
:1024C000000096430000A0400000C8410000A04268
:1024D0000000A0420000C8430080CF43F401000088
:1024E000F401000064000000E8030000204D617268
:1024F0006C696E3D563836290A00454550524F4D9D
:102500002076657273696F6E206D69736D61746397
:10251000682028454550524F4D3D0024F4D430509A
:10252000C38E20C2A24017828B7011127A910D8146
:102530006CD90AA861E108C7586607615143061EB5
:102540004B5D05C145A7041A411104093D9803716B
:102550003931034036DB0265339102D430540280B6
:102560002E1D02632CEE01752AC501B028A00110B2
:102570002781018F2564012B244B01E0223401AC1B
:10258000211F018D200D01801FFC00841EED00978E
:102590001DDF00B81CD200E61BC600201BBC006477
:1025A0001AB200B219A8000A19A0006A189900D13D
:1025B00017910040178B00B516840031167E00B3CA
:1025C0001579003A157300C7146F0058146A00EEAD
:1025D0001366008813630025135E00C7125B006C4E
:1025E00012570015125400C111510070114F0021F3
:1025F000114B00D61049008D1047004610440002D0
:10260000104200C00F4000800F3E00420F3C000609
:102610000F3B00CB0E3800930E37005C0E350027C1
:102620000E3400F30D3200C10D3100900D3000600A
:102630000D2E00320D2D00050D2C00D90C2B00AEF7
:102640000C2900850C29005C0C2700350C27000E96
:102650000C2600E80B2400C40B2400A00B23007DF3
:102660000B23005A0B2100390B2100180B2000F816
:102670000A1F00D90A1E00BB0A1E009D0A1D008009
:102680000A1D00630A1C00470A1B002C0A1B0011CC
:102690000A1A00F7091A00DD091900C4091900AB6C
:1026A000091900920917007B091800630917004CEB
:1026B00009160036091600200916000A091500F54A
:1026C000081500E0081400CC081400B8081400A491
:1026D000081400900813007D0812006B08130058BE
:1026E00008120046081200340811002308110012D5
:1026F00008110001081100F0071000E0071000D0D9
:10270000071000C0071000B0070F00A107100091CC
:10271000070E0083070F0074070F0065070E0057B0
:10272000070E0049070E003B070D002E070E002084
:10273000070D0013070D0006070D00F9060C00ED4C
:10274000060D00E0060C00D4060C00C8060C00BC08
:10275000060C00B0060C00A4060B0099060C008DB8
:10276000060B0082060B0077060B006C060B00615F
:10277000060A0057060B004C060A0042060A0038FB
:10278000060A002E060A0024060A001A060A00108D
:1027900006090007060A00FD050900F4050900EB1B
:1027A000050900E2050900D9050900D0050900C79F
:1027B000050900BE050900B5050800AD050800A51E
:1027C0000509009C050800940508008C0508008494
:1027D0000508007C050800740508006C0507006505
:1027E0000508005D050700560508004E050700476F
:1027F0000507004005080038050700310507002AD5
:10280000050700230507001C050600160507000F35
:102810000507000805060002050700FB040600F591
:10282000040700EE040600E8040600E2040700DBEB
:10283000040600D5040600CF040600C9040600C340
:10284000040600BD040600B7040600B1040500AC90
:10285000040600A6040600A00405009B04060095DB
:10286000040500900406008A040500850405008024
:102870000406007A04050075040500700405006B69
:1028800004050066040500610405005C04050057AA
:10289000040500520405004D0405004804050043EA
:1028A0000405003E0404003A040500350405003028
:1028B0000404002C04050027040400230405001E62
:1028C0000404001A04040016040500110404000D99
:1028D000040400090405000404040000040400FCCE
:1028E000030400F8030400F4030400F0030400EC04
:1028F000030400E8030400E4030400E0030400DC34
:10290000030400D8030400D4030400D0030400CC63
:10291000030400C8030300C503030024F404D92002
:102920001BC40C5C0E9804C4095F0265077101F4B6
:1029300005F900FB04B30048048700C1036900588F
:1029400003550003034500BE023A008402310053E0
:10295000022A002902250004022000E4011C00C80C
:10296000011900AF011700980114008401130071D0
:102970000110006101100051010E0043010D0036ED
:10298000010B002B010B0020010B00150109000CAD
:1029900001090003010800FB000800F3000800EB38
:1029A000000700E4000600DE000600D8000600D2A2
:1029B000000600CC000500C7000500C2000500BDF0
:1029C000000400B9000400B5000400B1000400AD2B
:1029D000000400A9000400A5000300A20003009F5A
:1029E0000004009B00030098000300950002009380
:1029F000000300900003008D0002008B000300889C
:102A00000002008600020084000300810002007FB3
:102A10000002007D0002007B0002007900020077C6
:102A200000010076000200740002007200010071D3
:102A30000002006F0002006D0001006C0002006ADD
:102A400000010069000200670001006600010065E6
:102A500000010064000200620001006100010060EA
:102A60000001005F0002005D0001005C0001005BEE
:102A70000001005A000100590001005800010057F0
:102A800000010056000100550001005400010053F0
:102A900000000053000100520001005100010050ED
:102AA0000001004F0001004E0000004E0001004DEB
:102AB0000001004C0001004B0000004B0001004AE7
:102AC00000010049000100480000004800010047E3
:102AD00000010046000000460001004500000045DE
:102AE00000010044000100430000004300010042D7
:102AF00000000042000100410000004100010040D0
:102B00000001003F0000003F0001003E0000003EC9
:102B10000001003D0000003D0001003C0000003CC1
:102B20000000003C0001003B0000003B0001003AB7
:102B30000000003A000100390000003900010038AF
:102B400000000038000000380001003700000037A6
:102B5000000100360000003600000036000100359C
:102B60000000003500000035000100340000003492
:102B70000000003400010033000000330000003387
:102B8000000100320000003200000032000100317C
:102B90000000003100000031000100300000003072
:102BA000000000300001002F0000002F0000002F67
:102BB0000000002F0001002E0000002E0000002E5B
:102BC0000001002D0000002D0000002D0000002D50
:102BD0000001002C0000002C0000002C0000002C44
:102BE0000001002B0000002B0000002B0000002B38
:102BF0000001002A0000002A0000002A0000002A2C
:102C0000000100290000002900000029000000291F
:102C10000000002900010028000000280000002812
:102C20000000002800000028000100270000002705
:102C300000000027000000270000002700010026F8
:102C400000000026000000260000002600000026EC
:102C500000010025000000250000002500000025DF
:102C600000000025000000250001002400000024D1
:102C700000000024000000240000002400010023C4
:102C800000000023000000230000002300000023B8
:102C900000000023000000230001002200000022A9
:102CA000000000220000002200000022000000229C
:102CB000000100210000002100000021000000218F
:102CC0000000002100000021000000210001002080
:102CD0000000002000000020000000200000002074
:102CE0000000002000000020000000200001001F64
:102CF0000000001F0000001F0000001F0000001F58
:102D00000000001F0000001F0001001E0000001E48
:102D10000000001E0000001E0000003930000033DB
:102D200025000087190000B00F0000DB080000BD7F
:102D3000040000740200003F01000020436F756E24
:102D40007420583A004265747400453100450062B1
:102D50006564002C2073797374656D2073746F70D3
:102D600070656421204865617465725F49443A204A
:102D7000004845495A454E204552464F4C474C4F16
:102D8000530048656174696E67206661696C6564AB
:102D900000200820C39C4245525343485249545492
:102DA000454E004D415854454D5020747269676737
:102DB0006572656400200820554E544552534348BF
:102DC00052495454454E004D494E54454D5020747F
:102DD0007269676765726564002008204E49434840
:102DE0005420455252454943485400546865726D19
:102DF000616C2052756E6177617900202F0020424E
:102E0000403A0020403A007C3C3E5E2B3D3F2F5B29
:102E10005D3B2C2A225C0043616E6E6F74206F70E4
:102E2000656E20737562646972200053442063618B
:102E30007264206F6B0A006F70656E526F6F742042
:102E40006661696C65640A00766F6C756D652E69E4
:102E50006E6974206661696C65640A004E6F205368
:102E60004420636172640A000A4D3234004D3233EB
:102E7000202573002E0A006F70656E206661696CF4
:102E800065642C2046696C653A200046696C6520B3
:102E900073656C65637465640A002053697A653AEA
:102EA000200046696C65206F70656E65643A20008D
:102EB000454E4420535542524F5554494E450A0001
:102EC0002220706F73002220706172656E743A2246
:102ED00000535542524F5554494E452043414C4CA6
:102EE000207461726765743A220053756263616C85
:102EF0006C20C3BC62657273636872697474656EBA
:102F0000004578636565646564206D61782053557C
:102F100042524F5554494E452064657074683A00DA
:102F20002E0A0044656C6574696F6E206661696C79
:102F300065642C2046696C653A200046696C652002
:102F400064656C657465643A0057726974696E678C
:102F500020746F2066696C653A200066726573683C
:102F600000646F696E67002066696C653A20004EE8
:102F70006F7720002F6175746F25632E6700020044
:102F80002000000000000000000000000000000021
:102F9000DC00000000000000000000000000000055
:102FA000EF00000000000000000000000000000131
:102FB000F7E0000000000000000000000000000337
:102FC000FBF0000000000000000000000000000313
:102FD000FCFC0000000000000000000000000007F2
:102FE000FF7E00000000000000000000000000075D
:102FF000FFBF00008080EE0E1B070E338303B00F6F
:10300000FFDF8000C0C0E71C7BC70E33C307B80FCB
:10301000FFEFC001C0E0E73CFBC70E33E30F3C1FEE
:10302000FFF7E000E078E338E0870E30E30C001FA4
:10303000FFFBF002E03CE071C0070E30E31C003FF4
:10304000FFF43002709EE0E1C0070E33C31C007F26
:10305000FFEFC00770CFE0E1C0070E33C31C003F95
:10306000FFEFF00638E7E0C1C0070E30231C001F59
:10307000FFDFE00EF8E3E0C0E0070E30E31C001FC6
:10308000FFBFC00CFCE0E0C0F1C79C33E30F1C0F96
:10309000FF7F801C0CE060C07BC39C33C307BC0770
:1030A000FF7F00180EE020C03B8190338303B00700
:1030B000FEFE000000000000000000000000000311
:1030C000FDFC000000000000000000000000000106
:1030D000FBF80000000000000000000000000001FC
:1030E000F7F00000000000000000000000000000F9
:1030F000F7C0000000000000000000000000000019
:103100006E00000000000000000000000000000051
:103110005000000000000000000000000000006DF2
:1031200061726C696E66772E6F726700322E302E78
:10313000392E33001FFFFFFFFFFFFF60000000007C
:1031400001FF400000000000FF8000000000007F41
:1031500083CF00000C303F87FF80000C301F867942
:1031600080000C000F8C30C7838C30E78C30CFC7C9
:10317000CC31F38C30DCECEC33B98C30D86C6C3364
:10318000198C30D06C0C33198C30D86C0C33198CF2
:1031900030DC6C0E3B198C30CF7C079F198C30C70C
:1031A0007C038F1940000000000002600000000056
:1031B00000061FFFFFFFFFFFF870012C01900127A1
:1031C00001B0012201C0011D01F00118011002131C
:1031D0000130020E016002090190020401C002FFE9
:1031E000000003FA004003F5008003F000D003EB79
:1031F000002004E6007004E100E004DC004005D794
:1032000000C005D2004006CD00D006C8008007C32C
:10321000003008BE00F008B900C009B400B00AAF21
:1032200000B00BAA00D00CA500000EA000500F9B10
:1032300000C01096005012910000148C00C0158739
:1032400000B0178200B0197D00D01B7800001E73FB
:103250000040206E0090226900F024640040275F47
:103260000090295A00E02B5500102E500020304BC2
:103270000010324600E033410090353C00103737F3
:103280000070383200A0392D00B03A2800A03B234E
:1032900000603C1E00103D1900903D1400103E0FD0
:1032A00000703E0A00C03E0500003F0000403FFBAA
:1032B000FF803FF6FFC03FF1FF2020506C616E6E33
:1032C000657242756666657242797465733A20006C
:1032D0002046726565204D656D6F72793A20002039
:1032E000436F6D70696C65643A204D6179203133AC
:1032F00020323032320A00204C61737420557064E1
:10330000617465643A20323032312D31322D3235DC
:10331000207C20417574686F723A20284E65757262
:103320006F706C616E742C20416E794375626963B5
:10333000204D656761205345290A004D61726C6913
:103340006E20322E302E392E330A0020536F6674D1
:10335000776172652052657365740A002057617445
:103360006368646F672052657365740A0020427257
:103370006F776E206F75742052657365740A002034
:1033800045787465726E616C2052657365740A00CD
:10339000506F77657255700A0073746172740A0019
:1033A0004732385859004D31303031006F6B00656D
:1033B00072726F722077726974696E6720746F2001
:1033C00066696C650A00446F6E6520736176696E8C
:1033D000672066696C652E0A00456E6473746F70B1
:1033E0007000255320256320256320256320256355
:1033F00000205A3A0020593A0020583A00656E647D
:1034000073746F7073206869743A2000002025730C
:10341000206D6D002020302C3120206D6D0020208B
:10342000312C3020206D6D002031302C3020206D6B
:103430006D0041636873656E206265776567656ED0
:1034400000426577656765204578747275646572BA
:1034500000426577656765205A0042657765676554
:10346000205900426577656765205800447275638E
:103470006B20766F6D204D656469756D00486F6DCA
:10348000696E672067657363686569746572740047
:10349000FFFFFF220A00556E6B6E6F776E20636F21
:1034A0006D6D616E643A202200204500205A002094
:1034B000590020204D393220580053746570732014
:1034C00070657220756E6974003B200062757379B7
:1034D0003A2070617573656420666F7220696E7042
:1034E00075740A00627573793A207061757365644A
:1034F00020666F7220757365720A00627573793A7F
:103500002070726F63657373696E670A004D3130A6
:1035100030305300000000010200090A00000000E2
:103520000403080700000000000000000000000085
:10353000000000002121204B494C4C206361757331
:10354000656420627920746F6F206D7563682069EF
:103550006E6163746976652074696D65202D2063E2
:10356000757272656E7420636F6D6D616E643A2062
:10357000004D3131322053687574646F776E0041AD
:103580004E474548414C54454E005072696E746533
:10359000722073746F707065642064756520746F39
:1035A000206572726F72732E204669782074686588
:1035B000206572726F7220616E6420757365204D94
:1035C00039393920746F20726573746172742E20DA
:1035D0002854656D70657261747572652069732019
:1035E00072657365742E205365742069742061665A
:1035F0007465722072657374617274696E67290AEA
:10360000004E6F20436865636B73756D2077697436
:1036100068206C696E65206E756D6265722C204C39
:10362000617374204C696E653A20004D3239004E4A
:103630006F20436865636B73756D207769746820CC
:103640006C696E65206E756D6265722C204C6173BD
:1036500074204C696E653A2000636865636B73750E
:103660006D206D69736D617463682C204C61737497
:10367000204C696E653A20004C696E65204E756D70
:10368000626572206973206E6F74204C61737420C0
:103690004C696E65204E756D6265722B312C204C25
:1036A000617374204C696E653A20004D31313000F1
:1036B00053657269616C20737461747573206D69F0
:1036C000736D617463680A005344207265616420FD
:1036D0006572726F720A00DB0FC93F45BCDA3F8F1B
:1036E000B30240FCF0274056946140FE4B9B40845F
:1036F000A5D840E0231841346A5641E859974164FF
:10370000DBD5416E271742B4B75542CE1A9742C84F
:10371000AED542B5885A43D40684BFA65FA7BF740E
:1037200043E0BF10B11AC01C2C58C0E8F697C0B8CF
:1037300049D6C04E4E17C124D355C1802497C1A08D
:10374000B5D5C1121A17C244AE55C2781797C26CCC
:10375000ACD5C267885AC320746F6F206C6F6E67D8
:1037600020657874727573696F6E20707265766506
:103770006E7465640A0020636F6C642065787472EF
:103780007573696F6E2070726576656E7465640A14
:10379000006F6B0A00526573656E643A200000008A
:1037A0002200250028002B00000021002400270013
:1037B0002A000202020202020202040404040404B7
:1037C00004040303030303030303010101010101D3
:1037D00001010102040810204080010204081020A9
:1037E000408001020408102040808040201008041E
:1037F000020120453A00205A3A0020593A00583A2E
:10380000004572726F722077726974696E672074F6
:103810006F20454550524F4D210A00416E79637526
:10382000626963204D65676120534520626572655A
:10383000697400447275636B742E2E2E0044727589
:10384000636B2070617573696572742E2E2E000093
:10385000D3E8B4E811241FBECFEFD0E4DEBFCDBF64
:1038600084B78093D41614BE0FB6F894A8958091AF
:103870006000886180936000109260000FBE12E0CB
:10388000A0E0B1E0EEE9F8EF01E00BBF02C0079065
:103890000D92A437B107D9F726E1A4E7B2E001C041
:1038A0001D92A43DB207E1F71CE1C9E2DCE104C0CE
:1038B0002197FE010E9492F9C832D107C9F70E94F0
:1038C000EAE90C9443FC0C9400004F925F926F92D3
:1038D0007F928F929F92AF92BF92CF92DF92EF92A0
:1038E000FF926B017C0120E030E0A9010E94CDF243
:1038F00087FFA7C06DEB77E386E095EBA701960104
:103900000E94EBF96B017C0120E030E040E251E4E1
:103910000E9432F320E030E048EC52E40E9432F39F
:103920004B015C0120E030E040E251ECC701B60100
:103930000E94CDF2181654F420E030E048EC52E436
:10394000C701B6010E944EFB87FD8FC020E030E02A
:10395000A901C701B6010E94CDF287FF77C060E0E0
:1039600070E080EA90ECA50194010E94EBF920E060
:1039700030E040E251E40E9462FA0E94CAFA6B0110
:103980007C01F7FC68C020E137E240E050E00E9493
:1039900076F9CA01B9012AE030E040E050E00E9427
:1039A00076F9605D6093BD04C701B60128EE33E08F
:1039B00040E050E00E9476F99AE0892E912CA12CEB
:1039C000B12CCA01B901A50194010E9476F9605D8C
:1039D0006093BE04C701B60124E630E040E050E049
:1039E0000E9476F9CA01B901A50194010E9476F9F5
:1039F000605D6093BF048EE28093C004C701B6018E
:103A0000A50194010E9476F96B01CA01B901A501D3
:103A100094010E9476F9605D6093C10480E3C80E52
:103A2000C092C2048DEB94E0FF90EF90DF90CF90B6
:103A3000BF90AF909F908F907F906F905F904F90CE
:103A400008956DEB77E386E095E358CF60E070E092
:103A500080EA90E488CFF094E094D094C094C11CA4
:103A6000D11CE11CF11C6DE29DCF20E030E0A901EA
:103A7000C701B6010E94CDF287FF6BC060E070E025
:103A800080EA90ECA50194010E94EBF920E030E07F
:103A900040E251E40E9462FA0E94CAFA4B015C01C2
:103AA00020E030E0A901C701B6010E944EFB87FD6E
:103AB0000BC020E030E040E251E4C701B6010E94B3
:103AC000CDF260E287FD13C0B7FC48C0C501B40168
:103AD00028EE33E040E050E00E9476F9CA01B901D7
:103AE0002AE030E040E050E00E9476F9605D6093AB
:103AF000BE04C501B40124E630E040E050E00E947D
:103B000076F98AE0482E512C612C712CCA01B9013A
:103B1000A30192010E9476F9605D6093BF048EE27A
:103B20008093C004C501B401A30192010E9476F9FB
:103B30006B01CA01B901A30192010E9476F9605D8F
:103B40006093C10480E3C80EC092C2048EEB94E07F
:103B50006BCF60E070E080EA90E494CFB094A094E2
:103B600090948094811C911CA11CB11C6DE2BFCF6C
:103B7000CF93DF93EC01CB01BA010E94D3F26883AB
:103B800079838A839B83DF91CF9108958F929F924F
:103B9000AF92BF92CF92DF92EF92FF926B017C01C6
:103BA00020E030E0A9010E94CDF287FDC3C06DEB9B
:103BB00077E386E095E3A70196010E94EBF96B019C
:103BC0007C0120E030E0A9010E94CDF287FFB7C060
:103BD000C701B601905820E030E040E251E40E9475
:103BE00032F320E030E040E251E40E9432F320E082
:103BF00030E040EA50E40E94EBF920E030E040E29F
:103C000051E40E9462FA0E94CAFA6B017C0160E2F0
:103C100080EAC81686E8D80681E0E806F1048CF050
:103C2000C701B60120EA36E841E050E00E9476F98B
:103C3000CA01B9012AE030E040E050E00E9476F984
:103C4000605D6093BC0460E280E1C81687E2D8063C
:103C5000E104F1048CF0C701B60120E137E240E055
:103C600050E00E9476F9CA01B9012AE030E040E054
:103C700050E00E9476F9605D6093BD0460E288EEDA
:103C8000C81683E0D806E104F1048CF0C701B60140
:103C900028EE33E040E050E00E9476F9CA01B90115
:103CA0002AE030E040E050E00E9476F9605D6093E9
:103CB000BE0460E284E6C816D104E104F1048CF08D
:103CC000C701B60124E630E040E050E00E9476F9FA
:103CD000CA01B9012AE030E040E050E00E9476F9E4
:103CE000605D6093BF048AE0882E912CA12CB12CDA
:103CF000C701B601A50194010E9476F96B01CA01C2
:103D0000B901A50194010E9476F9605D6093C00439
:103D10008EE28093C10480E3C80EC092C2048CEB93
:103D200094E0FF90EF90DF90CF90BF90AF909F9086
:103D30008F9008956DEB77E386E095EB3CCF20E024
:103D400030E040E251E4C701B60149CFCF93DF93A1
:103D5000EC01CB01BA010E94D3F220E030E040E256
:103D600051E40E9462FA688379838A839B83DF919E
:103D7000CF9108950E94D3F220E030E040E251E478
:103D80000E9462FA03CFCF93DF93EC01CB01BA011B
:103D90000E94D3F220E030E048EC52E40E9462FA44
:103DA000688379838A839B83DF91CF9108950E94F2
:103DB000D3F220E030E048EC52E40E9462FA85CD74
:103DC000CF93DF93EC01CB01BA010E94D3F20E94A2
:103DD000CAFA79836883DF91CF910895FC018491B9
:103DE0000895FC0180810895FC01A081B1811C929D
:103DF000A281B3818C918F5F8C930280F381E02D3F
:103E000090818CE0989F800D1124E7EDF3E113AED3
:103E100084AF0895119800C087FD43C0419800C049
:103E2000119A00C000C0119800C086FD46C041989C
:103E300000C0119A00C000C0119800C085FD3BC0B1
:103E4000419800C0119A00C000C0119800C084FDC4
:103E500030C0419800C0119A00C000C0119800C045
:103E600083FD25C0419800C0119A00C000C0119880
:103E700000C082FD1AC0419800C0119A00C000C065
:103E8000119800C081FD0FC0419800C0119A00C078
:103E900000C0119800C0419800C0119A00C000C035
:103EA0000895419ABCCF419AF0CF419AE5CF419A0B
:103EB000DACF419ACFCF419AC4CF419AB9CF90E09F
:103EC00080E00895CF93DF93C0917906D0917A0670
:103ED00081E0CE31D105E4F020E030E040E05FE366
:103EE00060917506709176068091770690917806BC
:103EF0000E94EBF90E94CAFA6C1B7D0B77FF03C08E
:103F000071956195710981E0633071050CF080E075
:103F1000DF91CF91089590E080E0089520916B06A5
:103F2000833021F425FD0CC024FD0CC030E0A90134
:103F300002C0559547958A95E2F7CA0181700895A8
:103F400081E0089580E008958091A60384FD0BC070
:103F50008091A80387FD07C09091A903937081E029
:103F600019F480E0089581E008952FEB280F2A319D
:103F700008F047C0E22FF0E08091A6039091A703DC
:103F8000A091A803B091A90304C0B695A7959795F1
:103F900087952A95D2F780FD02C081700895E45775
:103FA000FC4FE081EE2341F1809135079091360777
:103FB000E80FF92FF11D808190ED980F9A3030F0C5
:103FC0008E3251F4818180538A3098F4F0938503C6
:103FD000E093840381E008958D3211F08B3249F42F
:103FE000818190ED980F9A3088F38E3211F482819E
:103FF000EACFF0E0E0E0EACF10928503109284036C
:10400000E9CF80E00895CF93DF9385E4AEDF882386
:1040100009F188E04091A6035091A7036091A8039D
:104020007091A903972F9170C92F90E0D92FCC0FD1
:10403000DD1F71FB222720F930E0220F331F220FF2
:10404000331FC22B67FB442740F9C42B8C2BDF9115
:10405000CF91089580E0DECF88DF882341F081E0B2
:104060002091840330918503232B09F480E0089587
:1040700080916A01882331F068E873E182E090E082
:104080000C94B4AC089563E972E084E690E00E9479
:10409000B4AC70E060E08AE090E00E94B4AC6AEBFF
:1040A00072E084E690E00C94B4AC882309F0EBCF86
:1040B00068E270E080E991E00C94B4AC0E94C4889E
:1040C000F4CF0E9413A7F1CFCF92DF92EF92FF922D
:1040D0000E94D3F26B017C0120E030E0A9010E9434
:1040E000CDF22DEB37E346E055E387FF04C02DEB1F
:1040F00037E346E055EBC701B6010E94EBF96B01CF
:104100007C0120E030E0A9010E94CDF220E030E007
:1041100040E05FE387FF04C020E030E040E05FEB79
:10412000C701B6010E94EBF90E94CAFACB010E94B6
:1041300091A9FF90EF90DF90CF9008950E94D3F265
:104140000E94CAFACB010C9491A9A6E0B0E0EBEA78
:10415000F0E20C94B4F97E836D83342EFC01408030
:10416000518062807380C301B20120E13EE040E0F3
:1041700050E00E94FBF849015A0189018CE3C82EE6
:10418000D12CE12CF12CC301B201A70196010E94B0
:10419000FBF869837A838B839C83CA01B901A701E9
:1041A00096010E94FBF86B017C01332061F1C30191
:1041B000B20120E831E541E050E00E94FBF829011E
:1041C0003A015901DF92CF92C40168E170E00E9488
:1041D0004FF99F938F935F924F928FE79DE09F934C
:1041E0008F93FE81FF938D818F930E9466F20FB6AD
:1041F000F894DEBF0FBECDBF88E0FAE04F16510441
:10420000D8F089E019C081149104D1F48A818F9388
:1042100099819F93DF92CF9283E79DE09F938F9345
:10422000EE81EF93FD81FF930E9466F20FB6F89442
:10423000DEBF0FBECDBF85E02696E1E10C94D0F93C
:104240000436110568F4DF926F939F928F9287E690
:104250009DE09F938F939E819F93ED81EF93E4CF99
:10426000DF926F939F928F928DE59DE09F938F9346
:104270009E819F93ED81EF930E9466F20FB6F894B2
:10428000DEBF0FBECDBF86E0D7CF80E090E0A0E8D4
:10429000B0E48093740190937501A0937601B0937C
:1042A000770188EB91E00E94DB9F80E090E0A0EF37
:1042B000B1E480936C0190936D01A0936E01B09373
:1042C0006F018093700190937101A0937201B0937C
:1042D0007301E091AF04EE0FFF0BE856FE4F8081B3
:1042E00091818330910549F184309105D9F102978C
:1042F00061F480E090E0AEE3B3E480936C019093CE
:104300006D01A0936E01B0936F0180EA91E00E946D
:10431000DB9F109274011092750110927601109239
:10432000770188EB91E00E94DB9F8091AF048F5F63
:104330008430ECF48093AF04089580E090E0AEE325
:10434000B3E480936C0190936D01A0936E01B093E0
:104350006F018093700190937101A0937201B093EB
:104360007301D3CF80E090E0AEE3B3E4F2CF1092DC
:10437000AF0408950E943AA686CE0C943F8C0C940C
:104380003F8C0C943F8C0C943F8C109267041092DD
:104390006604811113C00E94A2C4DC01CB01805DC0
:1043A0009A48AF4FBF4F8093620490936304A093E9
:1043B0006404B093650410926104089580E090E075
:1043C000DC01F1CFCF93DF93C0917906D0917A06CB
:1043D000209729F160917506709176068091770695
:1043E000909178060E94CAFA6E5F7F4F24976C17EF
:1043F0007D07ACF470931605609315050E94A2C466
:10440000605A75418F4F9F4F609317057093180541
:104410008093190590931A05DF91CF91089510921A
:104420001705109218051092190510921A05F4CF6D
:10443000B0E0A0E0EEE1F2E20C94BCF96B01E9011E
:104440004A3009F4D5C0453109F081C0DB0112962C
:10445000ED91FC91F28096818781139A00C0000053
:10446000E6E2F0E03197F0F7092F182FEF2CE294F5
:1044700020EFE22230E1B32EBF0CE80188EFCADC66
:1044800000C0000086E290E00197F0F7BFE1BF15A1
:1044900008F49BC08F2D80778068BCDC8E2DBADC41
:1044A00000C0000086E290E00197F0F780E8B2DCFF
:1044B00080E0B0DC00C0000086E290E00197F0F7F9
:1044C0008AEFA8DC00C0000086E290E00197F0F7D8
:1044D000005F1F4F8881807F9DDC89918295807F5E
:1044E00099DCC017D107B1F700C0000086E290E068
:1044F0000197F0F7F394E0E1EE0EFB10BECF1398B6
:10450000D6011296ED91FC9180819281980F928351
:104510002181921708F09FC194819F5F94839381BA
:10452000890F821710F08FEF820F8383458150E04F
:10453000440F551F70E060E0868197810E94EFFB79
:1045400081E0CDB7DEB7E9E00C94D8F9DEC1FB011C
:1045500002811381423309F485C108F48DC14634C8
:1045600009F475C1473409F482C14B3349F7898195
:104570002B81D80112967C91129713963C91213091
:1045800009F4BFC1233009F0A0C148EF480F582FEC
:1045900091E0341708F490E031E0541708F030E06F
:1045A000492F432B61E0571708F460E0462311F4CC
:1045B000932331F2FA8030E0F901EC57FE4FD080BE
:1045C00020583E4FF901E08099C180EE8F0D806840
:1045D000807F20DC8F2D8295807F1CDC00C0000056
:1045E00086E290E00197F0F780E814DC80E861CF84
:1045F0000B9A1398399A4198099A119A139A00C004
:10460000000086E290E00197F0F788E790E0CEE9BD
:10461000DFE0FE013197F1F70197D9F788EFFADB78
:1046200000C0000086E290E00197F0F780E2F2DB44
:1046300080E0F0DB00C0000086E290E00197F0F738
:1046400080E0E8DB80E8E6DB00C0000086E290E086
:104650000197F0F780E0DEDB80E1DCDB00C00000EA
:1046600086E290E00197F0F7CE010197F1F7CE01D5
:104670000197F1F7CE010197F1F7CE010197F1F71C
:10468000CE010197F1F7CE010197F1F7CE01019725
:10469000F1F7CE010197F1F7CE010197F1F7CE01C5
:1046A0000197F1F7CE010197F1F7CE010197F1F7EC
:1046B000CE010197F1F7CE010197F1F72197F1F7BC
:1046C00080E2A8DB80E4A6DB00C0000086E290E088
:1046D0000197F0F780E29EDB80E69CDB00C00000E3
:1046E00086E290E00197F0F7D0E0C0E08C2F807771
:1046F000806890DB8D2F8EDB00C0000086E290E0AA
:104700000197F0F780E886DB80E084DB00C00000E2
:1047100086E290E00197F0F78AEF7CDB00C00000B2
:1047200086E290E00197F0F780E2119800C041988E
:1047300000C0119A00C000C0119800C0419800C08C
:10474000119A00C000C0119800C0419800C0119A91
:1047500000C000C0119800C0419800C0119A00C06C
:1047600000C0119800C0419800C0119A00C000C05C
:10477000119800C0419800C0119A00C000C0119863
:1047800000C0419800C0119A00C000C0119800C03C
:10479000419800C0119A00C000C0119800C0419813
:1047A00000C0119A00C000C0119800C0419800C01C
:1047B000119A00C000C0119800C0419800C0119A21
:1047C00000C000C0119800C0419800C0119A00C0FC
:1047D00000C0119800C0419800C0119A00C000C0EC
:1047E000119800C0419800C0119A00C000C01198F3
:1047F00000C0419800C0119A00C000C0119800C0CC
:10480000419800C0119A00C000C000C00000E6E25C
:10481000F0E03197F0F7815009F087CF88EFFADAAE
:1048200000C0000086E290E00197F0F7CF5FD05F14
:10483000C03209F05BCF80E0EDDA80ECEBDA00C04B
:10484000000086E290E00197F0F7139879CEF80126
:104850008581888375CE80E0CDB7DEB7E9E00C9422
:10486000D8F953C0B901C8010E94CFC569CED8019B
:1048700011968C91888364CE443191F0473109F0D0
:104880005FCE1882D80112968C9112978983159663
:104890008C91159781508A8313968C918B8350CE7F
:1048A000D80115964C91159750E0440F551F70E0B4
:1048B00060E016968D919C910E94EFFBF8011282A8
:1048C00080818150838314823BCE381708F438CE20
:1048D000871708F435CEFA80E12CD12C243070F4FF
:1048E0006ACEBE01C8010E94CFC5898198819D0D05
:1048F00098838E0D8983FF0C09F422CEF7FEF6CF44
:10490000F0CF58E0580F482F43CEEF92FF920F930D
:104910001F93CF93DF93EC018B017A018A859B85EE
:104920008617970731F0888199810E9423C71B87DA
:104930000A87B701888199810E948EC22E813F81AA
:10494000820F932F911D9F838E8390E080E0CDB7DF
:10495000DEB7E6E00C94DBF9B0E0A0E0E2EBF4E2D5
:104960000C94BBF9EC017B018A018A859B85861733
:10497000970731F0888199810E9423C7FB86EA86D8
:1049800088859985019609F5CC80DA808E81D80ECC
:10499000A880B980D5015596ED91FC91C501099586
:1049A000C80E780110E0F70121917F0121111FC08D
:1049B0008E819F81810F911D9F838E8390E080E087
:1049C000CDB7DEB7EAE00C94D7F9EE80FF80B801EE
:1049D000888199810E948EC28E0D9F2D911D288500
:1049E00039852817390780F681E090E0E9CF4C2D12
:1049F0006D2DC5010E9433C8D80E180FD4CFB0E07A
:104A0000A0E0E5E0F5E20C94BEF9EC01D62E1CAD79
:104A10000BAD7C0184E0E80EF11CE98DFA8DC70135
:104A20000995412F480F2D2D602FC7010E9433C8D3
:104A30009BAD890F8BAF81E090E0CDB7DEB7E7E0AB
:104A40000C94DAF98091840390918503009731F0FA
:104A50004AE050E070E060E00C94EEF060E070E05E
:104A6000CB0108958091840390918503009731F0E4
:104A70004AE050E070E060E00C94C1EF60E070E06C
:104A8000CB010895EFDF97FD0AC0ECDF6F3F7105A2
:104A90008105910509F02CF4E5DF862F089580E06B
:104AA00008958FEF08958091840390918503892B59
:104AB00039F0E8DF91E0811101C090E0892F08957D
:104AC00091E0FCCFCF93DF93C82FD62FC5DA882390
:104AD00021F0E9DFDF91CF9108958C2F46DA811123
:104AE000F9CF8D2FF7CFBEDFCB0108950F931F9322
:104AF000CF9380918403909185030097D9F0FC01B6
:104B00008F01C1912C2F2F7D81F0C53411F0C53656
:104B1000B9F7F801108270E060E00E946BEEF801D6
:104B2000C083CF911F910F91089570E060E00E94C3
:104B30006BEEF7CF60E070E0CB01F3CFB0E0A0E028
:104B4000E4EAF5E20C94C3F920E24F8158856E81C6
:104B50008D810E94EAC1E2E00C94DFF94FE350E05E
:104B6000BC0187EF95E00C9429FC282F1092610678
:104B700080914C0690914D06A0914E06B0914F0643
:104B8000B7FF08C010924C0610924D0610924E06C8
:104B900010924F068091B404882331F080914C0626
:104BA0008093450610925C06809143061816FCF42B
:104BB000082E000C990B821B910920914506022EAC
:104BC000000C330B2817390794F097FF02C090E0D0
:104BD00080E080934506092E000CAA0BBB0B809346
:104BE0004C0690934D06A0934E06B0934F068091CD
:104BF00045066623A9F090914606891714F4809320
:104C0000460620914606022E000C330B2C5F3F4FC8
:104C1000482F082E000C550B241735071CF4845020
:104C2000809346060895E0918106E63028F581E0FC
:104C30008E0F8093810640914C0650914D066091F5
:104C40004E0670914F062091460690914306809142
:104C5000B70439E0E39FF0011124E059FB4FA09124
:104C6000D513B091D613B183A08342835383648359
:104C700075832683978380870895B0E0A0E0E3E4FE
:104C8000F6E20C94C2F91E81812F012E000C990BC3
:104C9000209160042817190609F094F41093600419
:104CA0009E01275F3F4F4F81588564E570E08BE0A0
:104CB00094E00E9495F281E011160CF080E065DB33
:104CC000E3E00C94DEF90F931F93CF93DF936F3FD4
:104CD00011F4109260042091600421111EC08C0117
:104CE0000E941CF2800F911FEC01C01BD10BC53537
:104CF000D1053CF00197FC012491207C2038D1F3B0
:104D0000F3CFDD27AE01B8018BE094E00E943DF2C5
:104D1000C55FDB4F188280E038DBDF91CF911F91B8
:104D20000F9108951F93CF93DF9320916004211179
:104D30001DC0FC0101900020E9F73197EF01C81B6D
:104D4000D90BC535D1052CF02291207C2038E1F318
:104D5000F5CF162FBC01DD27AE018BE094E00E9459
:104D600029FCC55FDB4F1882812F0FDBDF91CF91CC
:104D70001F9108950F931F930E94A2C400912211C6
:104D8000109123112091241130912511601B710B7A
:104D9000820B930B97FD0CC089B183FB882780F9A8
:104DA00091E089274A9B8260309B84608093261122
:104DB0008091261181709091261191FD82609091D1
:104DC0000A04981749F0813009F148F0823079F0EF
:104DD000833091F080930A041F910F9108959130D0
:104DE00079F09230B9F79091090491500CC0992351
:104DF00039F09330C1F3EECF9130A9F3923051F7EF
:104E0000909109049F5F90930904E4CF992359F38B
:104E1000933001F7F5CFCF92DF92EF92FF92CF93CD
:104E2000C82F0E94A2C46B017C0124EA30E74DE741
:104E30005FE36091170170911801809119019091C1
:104E40001A010E94CDF287FD18C08AEF90E0A0E021
:104E5000B0E08C0D9D1DAE1DBF1D8093FD03909392
:104E6000FE03A093FF03B0930004C0931401CF91FD
:104E7000FF90EF90DF90CF90089580E090E0DC010C
:104E8000E8CFCF938091B303811154C010921214D4
:104E900010921314109214141092E0131092DF1356
:104EA0001092E2131092E1131092E41381E08093C8
:104EB000E31382E28093E5131092EA131092E91350
:104EC000EEEFF3E12CE034E18FEF81932E173F07F3
:104ED000E1F7C1E0C093FB132DEB3AEB3093F113F4
:104EE0002093F013C093F2131092F3131092F41363
:104EF00090E49093F5131092F6132CEB3AEB309369
:104F00000D1420930C142CE031E03093DE13209329
:104F1000DD139EE19093021491E1909303149CE1C0
:104F2000909300148093FF138093FE130E940EC68B
:104F3000C093B30381E08093B2038EE99DE0909328
:104F400085138093841310928713109286135398BD
:104F50005B9A52985A9A3898409A0CDF109209043A
:104F60000E94B2BECF910895FC0180E0309749F0D5
:104F70009491992331F0907C903809F08F5F3196AD
:104F8000F7CF0895009751F0FC0180E091919923AB
:104F900031F0907C9038D1F38F5FF8CF80E00895A6
:104FA000B0E0A0E0E6EDF7E20C94BBF9EC015B01A8
:104FB0008A01FB01099587FD10C0C82ED12CF12C68
:104FC000E12C2196F801C082D182E282F382CE01E7
:104FD000CDB7DEB7EAE00C94D7F9982F907E903CDD
:104FE000A9F48F7190E0B0E0A0E06C017D0156E083
:104FF000CC0CDD1CEE1CFF1C5A95D1F7CE0101969E
:10500000F50109958F73C82A2296DCCF982F907FDF
:10501000903E11F58F7090E0B0E0A0E06C017D0152
:1050200036E0CC0CDD1CEE1CFF1C3A95D1F7CE010E
:105030000196F50109958F73C82A46E0CC0CDD1C5A
:10504000EE1CFF1C4A95D1F7CE010296F501099599
:105050008F73C82A2396B6CF982F987F903F79F503
:10506000877090E0B0E0A0E06C017D0186E0CC0CA0
:10507000DD1CEE1CFF1C8A95D1F7CE010196F501CF
:1050800009958F73C82A96E0CC0CDD1CEE1CFF1C22
:105090009A95D1F7CE010296F50109958F73C82A2A
:1050A00026E0CC0CDD1CEE1CFF1C2A95D1F7CE01AE
:1050B0000396F50109958F73C82A249683CF982FFC
:1050C000907C903841F4807C803869F42196CE0140
:1050D000F5010995F8CF8E7F8D3F28F02196CE01FE
:1050E000F5010995F8CFC12CD12C76016BCF9CE04E
:1050F000899F802D112491E0980F9093B1032CE0AB
:10510000280F2093640630E02E5F3F4F40910F142C
:105110004217130619F014F080E00895209111143D
:105120009217D0F7662341F08E5F0E949DC7809151
:1051300064068E5F0E949DC78091640690910F1453
:10514000891750F3209111149091B103291720F37E
:10515000109212148093131481E008952091B003EB
:10516000022E000C330B8217130641F08093B0031C
:1051700066E771E18BED93E10C9423C70895ACE0F1
:10518000B0E0E5ECF8E20C94BDF96F3F71058105E4
:10519000910509F070F487ED93E131DCE091DF13C4
:1051A000F091E0133196849190E02C96E8E00C9415
:1051B000D9F9F0901214E09013142091B203211148
:1051C0000FC04DE35DE06E2D8F2D0E948BC890E0E7
:1051D00080E0F80EF0921214E09213149927E5CFB4
:1051E000C090DF13D090E0132BED33E13A83298395
:1051F0002F2D30E03C832B832E2D30E03E832D83FA
:1052000018861F822FEF3FEF3A8729871C861B865F
:105210000CEA14E29E012F5F3F4FAB01BC01C601B7
:105220000E94F4BDB6018BED93E10E9423C78F81EC
:105230009885CFCF4F925F926F927F928F929F927D
:10524000BF92CF92DF92EF92FF920F931F93CF9373
:10525000DF93CDB7DEB728970FB6F894DEBF0FBE49
:10526000CDBF7C016A014901FB0190818CE0989FD0
:10527000800D1124982FF7012081822F880F820F33
:10528000880F80931214909313144115510561F106
:10529000FA82E9827C836B8301111FC0AE014B5FF0
:1052A0005F4FB401C6017CDE6C016D817E818F8110
:1052B00098856115710581059105B1F060DFF701F1
:1052C00080818F5F8083853148F3CE0101960E94F3
:1052D000F41EE4CFB12C860129C08A01B12C26C06E
:1052E000452846284728B1F728960FB6F894DEBF20
:1052F0000FBECDBFDF91CF911F910F91FF90EF9027
:10530000DF90CF90BF909F908F907F906F905F9035
:105310004F900895B39407C0B1102DC00115110529
:10532000C9F20F5F1F4F01151105A9F2AE014B5FC6
:105330005F4FB401C60134DE6C014D805E806F802A
:1053400078844114510461047104A9F0F0E24F160D
:1053500051046104710401F3D301C2018D97A109C5
:10536000B1090297A105B10530F04BE24416510492
:105370006104710479F6F7018081482F4B0D5527A0
:10538000551F4631510534F0853020F0CE0101968D
:105390000E94F41E81E0411451046104710409F477
:1053A00080E0B80EF70180818B0D8083BB2009F46B
:1053B00097CFBA94AE014B5F5F4FB401C801F0DDE7
:1053C0008C016D817E818F819885D9DEEFCFCF935F
:1053D000DF93FC0125AD211104C021E025AF0E941F
:1053E0000EC6C091DD13D091DE13E0910C14F09144
:1053F0000D1482E00995E0910C14F0910D1481E0F8
:10540000099530E020E044E1BE018BED93E10E947C
:1054100009C62EE034E147E1BE018BED93E10E9425
:1054200009C6E0910C14F0910D1480E00995DF910C
:10543000CF910895ACE0B0E0E0E2FAE20C94BDF95F
:10544000F0901214E09013142091B203211112C0B5
:105450004DE15DE06E2D8F2D0E948BC890E080E0C5
:10546000F80EF0921214E092131499272C96E8E0AB
:105470000C94D9F9C090DF13D090E0132BED33E1F9
:105480003A8329832F2D30E03C832B832E2D30E06F
:105490003E832D8318861F827A8769871C861B8628
:1054A0000CEA14E29E012F5F3F4F4EEE5EE1BC011D
:1054B000C6010E9489BEB6018BED93E10E9423C70D
:1054C0008F819885CDCFA4E0B0E0E9E6FAE20C94B4
:1054D000B9F97C01062F5A01122F862F660F990BFE
:1054E0009C0124583E4F690186E0882E912C1116AC
:1054F0000CF03DC0AE014F5F5F4F6EEE7EE1C70125
:105500004FDD7C0169817A818B819C8161157105F8
:105510008105910561F16D3371058105910509F4EE
:1055200050C06E3771058105910509F44AC06A3291
:1055300071058105910501F507FF11C085E99DE021
:105540000E3F11F080E99DE036E01302B001112416
:1055500071DF66E070E00E9463F9161B60C065E4CD
:1055600070E080E090E00BDE115069F510E0812FD3
:105570002496ECE00C94D5F964327105810591050F
:1055800071F4A114B104D1F0E6E01E02B0011124BF
:10559000C50150DFB4010E9463F9161BA8CF603427
:1055A00071058105910551F41150F6016081062EB7
:1055B000000C770B880B990BE2DD99CFE0DD1150E1
:1055C00096CF07FDBBCF61E089819A81AB81BC8119
:1055D000CD97A105B10509F460E0600F6A30A4F031
:1055E0001150862F6AE00E9442F9092F682F880F18
:1055F000770B605D7F4F072E000C880B990BBFDD8A
:10560000112309F4B3CF602F062E000C770B605DD9
:105610007F4F072E000C880B990BB1DD1150112321
:1056200009F4A4CF86E01802B0011124C70102DFFB
:1056300066E070E00E9463F9161B99CF6FEF7FEF71
:10564000F9CEE7EDF3E183AF64AF6FEF7FEFCA010F
:10565000F1CEACE0B0E0EFE2FBE20C94BDF9F090EB
:105660001214E09013142091B203211112C04DEFD7
:105670005CE06E2D8F2D0E948BC890E080E0F80ECC
:10568000F0921214E092131499272C96E8E00C94EF
:10569000D9F9C090DF13D090E0132BED33E13A83BA
:1056A00029832F2D30E03C832B832E2D30E03E8349
:1056B0002D8318861F827A8769871C861B860CEAD1
:1056C00014E29E012F5F3F4F41EF5EE1BC01C60136
:1056D0000E9489BEB6018BED93E10E9423C78F81A2
:1056E0009885CDCFB0E0A0E0E8E7FBE20C94B9F9F3
:1056F0005B01C42F790141FB662760F9F8DC882340
:1057000009F45EC0D12CC12CA114B10431F0C50143
:105710002BDC96E0899F6001112410E000E0E11489
:10572000F10421F0C7012EDC082F10E0C0FF20C0DB
:1057300080E890E08C199D094AEF40039001419F59
:10574000300D1124820F931F6CE070E00E9463F90A
:105750004B01C0E8D0E081E0881A910897FC0AC0AC
:1057600060E270E080E090E00ADDC81BD90BF3CF67
:10577000C0E8D0E0C114D10491F0CE0166E070E041
:105780000E944FF94091660650916706262F60915E
:105790006506C50198DE96E0899FE0011124011598
:1057A000110529F0BE01C70154DFC81BD90BC73052
:1057B000D10530F060E270E080E090E0E0DCF5CF11
:1057C000CDB7DEB7ECE00C94D5F980916B0188235E
:1057D00049F06091AC047091AD0430E020E041E00C
:1057E00081E080CF08956FEF7FEF33CFB0E0A0E08E
:1057F000ECEFFBE20C94BBF95C016B01B5DBE82E2E
:10580000C601C0DBF12C03E110E0081B1109C5E261
:105810000E151F050CF4CFE18C2F90E09C012E5F3C
:105820003F4F40910F144217130609F08CF509976A
:1058300020911114281719065CF1409166065091C9
:1058400067066091650610921214C093131425E147
:10585000C50139DED1E0C114D104A9F06AE370E0DA
:1058600080E090E08CDC0E151F05A4F4C45F8091ED
:105870000F14C81740F0209111144C2F4950550BAC
:10588000241715064CF4CDB7DEB7EAE00C94D7F92F
:10589000D0E0E1CFDD23B9F3802F880F080F000F90
:1058A00000931214C093131460E270E080E090E063
:1058B00066DCC60198DFE7CFACE0B0E0E2E6FCE2F0
:1058C0000C94B9F9982F862F6A017901B02E692FAF
:1058D0000EDC882309F486C01091B203C7010023AF
:1058E00071F142DBA82E8090DF139090E01311112C
:1058F00041C02FEF3FEF122F23E12A194091660696
:105900005091670660916506C601DDDDAA2009F4A5
:1059100069C0B6E08B9F600111246AE370E080E00B
:1059200090E02DDC57E0C516D10408F441C060E2D8
:1059300070E080E090E023DCC81AD90AF3CF22DBC4
:10594000A82E8090DF139090E013112391F2FE01B6
:1059500033968AE0DF011D928A95E9F78BED93E19A
:105960009A83898305E814E29E012F5F3F4F41EF40
:105970005EE112C0FE0133968AE0DF011D928A9536
:10598000E9F78BED93E19A83898305E814E29E01A0
:105990002F5F3F4F4EEE5EE1B701C4010E9489BE0A
:1059A000B4018BED93E10E9423C72F813885A3CFEB
:1059B00040916406212F30E0A6E0AA9EC001112488
:1059C0002E5F3F4F281739070CF49C0180E8821B9B
:1059D0008093121440931314BB2041F06FEF7FEFBC
:1059E000C70128DD2C96ECE00C94D5F9C701FBDE4D
:1059F000F9CFE7EDF3E183AF64AFCA01F4CEAB01B9
:105A0000BC01409333145093341460933514709355
:105A100036148DE795E10C94D47C0C9434BFCF936D
:105A2000DF93DB01F9019C919130C1F0943080F05B
:105A300094509C938830D1F480819181009771F0CB
:105A4000019791838083480F591FEA01188206C08D
:105A50008C3539F49C5F9C93943041F4DF91CF9165
:105A600008958B3339F781E08C93F8CF2081318111
:105A7000B9016F5F7F4F71836083420F531FEA014B
:105A80008883808191818F3591056CF7E7CF0F93E3
:105A90001F9381E000913314109134142091351438
:105AA0003091361440912F1450913014609131147C
:105AB00070913214041715072607370708F480E0A1
:105AC0001F910F9108954F925F926F927F928F92E4
:105AD0009F92BF92CF92DF92EF92FF920F931F930C
