:100000000C947B190C94B4190C94B4190C94B41975
:100010000C94B4190C94B4190C94B4190C94B4192C
:100020000C94B4190C9446BE0C94B4190C94B419E5
:100030000C94B4190C94D3330C94B4190C94B419D3
:100040000C94442E0C94B4190C94FCBD0C94B4196B
:100050000C94AF980C94A5980C94B4190C94B41902
:100060000C94B4190C94B4190C94B4190C94B419DC
:100070000C94B4190C94B4190C94B4190C94B419CC
:100080000C94B4190C94B4190C94B419084AD73BC5
:100090003BCE016E84BCBFFDC12F3D6C74319ABD57
:1000A00056833DDA3D00C77F11BED9E4BB4C3E917B
:1000B0006BAAAABE000000803F05A84CCDB2D44E6A
:1000C000B93836A9020C50B9918688083CA6AAAA6C
:1000D0002ABE000000803F004E414E494E4954590F
:1000E000494E46CDCCCC3D0AD7233C17B7D1387703
:1000F000CC2B329595E6241FB14F0A000020410019
:1001000000C84200401C4620BCBE4CCA1B0E5AAE62
:10011000C59D7400407A10F35A00A0724E18090071
:1001200010A5D4E80000E87648170000E40B54025C
:100130000000CA9A3B000000E1F505000080969897
:1001400000000040420F000000A0860100000010E7
:100150002700000000E80300000000640000000029
:10016000000A00000000000100000000002C76D80A
:1001700088DC674F0823DFC1DFAE59E1B1B796E5F0
:10018000E3E453C63AE651997696E8E6C28426EB54
:10019000898C9B62ED407C6FFCEFBC9C9F40F2BA67
:1001A000A56FA5F490055A2AF75C936B6CF9676DFF
:1001B000C11BFCE0E40D47FEF520E6B500D0ED9054
:1001C0002E0300943577050080841E080000204E21
:1001D0000A000000C80C333333330F986E128311BA
:1001E00041EF8D2114893BE65516CFFEE6DB18D191
:1001F000844B381BF77C1D901DA4BBE42420328463
:10020000725E228100C9F124ECA1E53D27504554DE
:100210004700504C4100526573746F72652044650D
:100220006661756C7473004C6F61642053657474FF
:10023000696E67730053746F7265205365747469D7
:100240006E677300536F756E64004F6666004F6E85
:1002500000506F776572204F757461676500416467
:1002600076616E6365642053657474696E677300AC
:100270004D61696E003132300035004245443A200C
:100280004550434F53203130304B0052756E6177EB
:1002900061792057617463683A204F4E004D617850
:1002A0002054656D7000323535004D696E205465FF
:1002B0006D7000350045313A204550434F53203191
:1002C00030304B005053550047656E6572696300CE
:1002D00050726F746F636F6C00312E300042617525
:1002E0006400323530303030004D656C7A6920283A
:1002F000437265616C69747929004578747275641C
:100300006572730031006D61726C696E66772E6F75
:100310007267003344205072696E74657200323027
:1003200032312D31322D323500322E302E392E33EE
:10033000004D61726C696E00546865726D6973740A
:100340006F727300426F61726420496E666F005075
:1003500072696E74657220496E666F004D61696ED8
:10036000004D313030300053746F70205072696E20
:100370007400526573756D65205072696E7400501B
:100380006F776572204F7574616765003F00426149
:10039000636B0053746F70004D32320041747461AE
:1003A0006368204D65646961004D323100507269A7
:1003B0006E742066726F6D204D65646961005265D0
:1003C0006C65617365204D656469610052756E20CE
:1003D0004175746F2046696C65730041626F757476
:1003E000205072696E74657200436F6E666967753E
:1003F000726174696F6E0054656D706572617475B9
:100400007265004D6F74696F6E005072656865614A
:100410007420437573746F6D00526573756D65203C
:100420005072696E740054756E650053746F70205D
:100430005072696E74005061757365205072696EF8
:100440007400496E666F2053637265656E003F00ED
:100450005374617274205072696E740043616E63EC
:10046000656C005072696E740043616E6E6F74202B
:10047000656E746572207375626469723A20000259
:10048000202E2E000152656672657368004261631A
:100490006B004D61696E002100486F74656E6420C9
:1004A000746F6F20636F6C64004261636B00507205
:1004B0006F63656564004D6F74696F6E00446973A6
:1004C00061626C65205374657070657273004D389D
:1004D0003400426564205472616D6D696E67004737
:1004E00032385A004732385900486F6D6520400055
:1004F00047323858004175746F20486F6D6500476A
:100500003238004D61696E00507265686561742013
:10051000242042656400507265686561742024205F
:10052000456E640054656D70657261747572650026
:10053000436F6F6C646F776E0046616E2053706519
:10054000656400426564004E6F7A7A6C6500120241
:100550000D02507265686561742024004D61696EFA
:10056000004261627973746570205A00466C6F773F
:100570000046616E20537065656400426564004EFC
:100580006F7A7A6C65005370656564004D61696EC1
:10059000006F70656E00545249474745524544000C
:1005A0003A20007A5F6D696E00795F6D696E007840
:1005B0005F6D696E005265706F7274696E67206559
:1005C0006E6473746F70207374617475730A0000C5
:1005D00000A0C0000020C1000000005761726E69D9
:1005E0006E673A20486F6D696E672042756D7020A6
:1005F00044697669736F72203C20310A000202045C
:10060000000061430000664300007A430000A04000
:100610000000A040000000400000000100000001B8
:100620000000800055555500000040003333330072
:10063000AAAA2A004992240000002000C7711C00C9
:1006400099991900D1451700555515003BB1130074
:100650002449120011111100000010000F0F0F00AB
:10066000E3380E0043790D00CCCC0C00C3300C00F5
:10067000E8A20B0064210B00AAAA0A00703D0A0040
:100680009DD80900427B090092240900DCD30800B0
:10069000888808001042080000000800F0C1070028
:1006A0008787070075500700711C07003EEB0600A6
:1006B000A1BC06006990060066660600703E060052
:1006C0006118060017F4050074D105005BB0050041
:1006D000B290050062720500555505007839050095
:1006E000B81E0500050505004EEC040087D4040083
:1006F000A1BD040090A7040049920400C17D04003C
:10070000EE690400C7560400444404005C3204004F
:100710000821040041100400000004003FF0030021
:10072000F8E0030026D20300C3C30300CCB50300E6
:100730003AA803000A9B0300388E0300C08103001F
:100740009F750300D0690300505E03001D53030032
:1007500034480300913D030033330300162903009E
:10076000381F030097150300300C03000303030038
:100770000BFA020049F10200BAE802005CE0020054
:100780002DD802002DD0020059C80200B0C00200CE
:1007900031B90200DAB10200AAAA0200A0A3020045
:1007A000BC9C0200FA9502005C8F0200DF88020008
:1007B00082820200457C0200277602002770020038
:1007C000436A02007C640200D05E02003F590200CE
:1007D000C8530200FFFDFCFAF8F6F4F2F0EEECEA82
:1007E000E9E7E5E3E1E0DEDCDAD9D7D5D4D2D0CF52
:1007F000CDCBCAC8C7C5C3C2C0BFBDBCBAB9B7B6E6
:10080000B4B3B2B0AFADACAAA9A8A6A5A4A2A1A04A
:100810009E9D9C9A99989795949392908F8E8D8B8C
:100820008A8988878684838281807F7E7D7B7A79AE
:100830007877767574737271706F6E6D6C6B6A69B0
:100840006867666564636261605F5E5D5C5B5A59A0
:1008500058585756555453525150504F4E4D4C4B7B
:100860004A4A4948474646454443424241403F3E42
:100870003E3D3C3B3B3A39383837363535343332F8
:10088000323130302F2E2E2D2C2B2B2A29292827A0
:100890002726252524232322212120201F1E1E1D3B
:1008A0001C1C1B1B1A1919181817161615151413CA
:1008B0001312121111100F0F0E0E0D0D0C0C0B0A4E
:1008C0000A090908080707060605050404030302C8
:1008D0000201000000005C4300005C4300007A431A
:1008E0000000A0C0000020C1000000005365747427
:1008F000696E67732053746F72656400290A002063
:1009000062797465733B206372632000536574746D
:10091000696E67732053746F7265642028004861A4
:100920007264636F6465642044656661756C7420ED
:1009300053657474696E6773204C6F6164656400FD
:1009400020286D6D2900204600204200204800200C
:10095000204D3134352053004D6174657269616CEE
:100960002068656174757020706172616D65746571
:1009700072730020204D3134392043203B20556EC6
:1009800069747320696E2043656C736975730A001E
:1009900054656D706572617475726520556E697409
:1009A00073002020473231203B004C696E65617234
:1009B00020556E69747300454550524F4D20646157
:1009C000746173697A65206572726F722E0A0029EC
:1009D0000A002062797465733B20637263200020F3
:1009E00073746F7265642073657474696E677320C5
:1009F00072657472696576656420280020286361D9
:100A00006C63756C6174656429210A0020213D20A6
:100A100000454550524F4D20435243206D69736D40
:100A200061746368202D202873746F7265642920B7
:100A3000002053697A653A2000496E6465783A204F
:100A40000000009643000096430000A0400000C84C
:100A5000410000A0420000A0420000C8430080CF37
:100A600043F4010000F401000064000000E803000A
:100A700000204D61726C696E3D563836290A00457A
:100A80004550524F4D2076657273696F6E206D69C7
:100A9000736D617463682028454550524F4D3D0089
:100AA00024F4D43050C38E20C2A24017828B701120
:100AB000127A910D816CD90AA861E108C7586607BE
:100AC000615143061E4B5D05C145A7041A4111043F
:100AD000093D9803713931034036DB0265339102D9
:100AE000D4305402802E1D02632CEE01752AC501FC
:100AF000B028A001102781018F2564012B244B0110
:100B0000E0223401AC211F018D200D01801FFC006B
:100B1000841EED00971DDF00B81CD200E61BC60046
:100B2000201BBC00641AB200B219A8000A19A00068
:100B30006A189900D117910040178B00B5168400F0
:100B400031167E00B31579003A157300C7146F0093
:100B500058146A00EE1366008813630025135E00C4
:100B6000C7125B006C12570015125400C1115100DE
:100B700070114F0021114B00D61049008D10470015
:100B80004610440002104200C00F4000800F3E009B
:100B9000420F3C00060F3B00CB0E3800930E37008F
:100BA0005C0E3500270E3400F30D3200C10D31000C
:100BB000900D3000600D2E00320D2D00050D2C0023
:100BC000D90C2B00AE0C2900850C29005C0C2700E9
:100BD000350C27000E0C2600E80B2400C40B240063
:100BE000A00B23007D0B23005A0B2100390B2100A1
:100BF000180B2000F80A1F00D90A1E00BB0A1E00AD
:100C00009D0A1D00800A1D00630A1C00470A1B0084
:100C10002C0A1B00110A1A00F7091A00DD09190035
:100C2000C4091900AB091900920917007B091800C3
:100C3000630917004C091600360916002009160032
:100C40000A091500F5081500E0081400CC08140086
:100C5000B8081400A4081400900813007D081200BE
:100C60006B081300580812004608120034081100DF
:100C7000230811001208110001081100F0071000EC
:100C8000E0071000D0071000C0071000B0070F00E9
:100C9000A107100091070E0083070F0074070F00D3
:100CA00065070E0057070E0049070E003B070D00B1
:100CB0002E070E0020070D0013070D0006070D007C
:100CC000F9060C00ED060D00E0060C00D4060C0041
:100CD000C8060C00BC060C00B0060C00A4060B00F5
:100CE00099060C008D060B0082060B0077060B00A0
:100CF0006C060B0061060A0057060B004C060A0042
:100D000042060A0038060A002E060A0024060A00D7
:100D10001A060A001006090007060A00FD05090068
:100D2000F4050900EB050900E2050900D9050900F1
:100D3000D0050900C7050900BE050900B505080072
:100D4000AD050800A50509009C05080094050800EC
:100D50008C050800840508007C050800740508005F
:100D60006C050700650508005D05070056050800CD
:100D70004E05070047050700400508003805070035
:100D8000310507002A050700230507001C0506009A
:100D9000160507000F0507000805060002050700F5
:100DA000FB040600F5040700EE040600E804060054
:100DB000E2040700DB040600D5040600CF040600A9
:100DC000C9040600C3040600BD040600B7040600FB
:100DD000B1040500AC040600A6040600A00405004A
:100DE0009B04060095040500900406008A04050093
:100DF00085040500800406007A04050075040500DA
:100E0000700405006B04050066040500610405001C
:100E10005C04050057040500520405004D0405005C
:100E200048040500430405003E0404003A0405009C
:100E300035040500300404002C04050027040400D8
:100E4000230405001E0404001A040400160405000F
:100E5000110404000D040400090405000404040046
:100E600000040400FC030400F8030400F40304007D
:100E7000F0030400EC030400E8030400E4030400AE
:100E8000E0030400DC030400D8030400D4030400DE
:100E9000D0030400CC030400C8030300C50303000F
:100EA00024F404D9201BC40C5C0E9804C4095F020E
:100EB00065077101F405F900FB04B30048048700DD
:100EC000C10369005803550003034500BE023A0000
:100ED0008402310053022A00290225000402200066
:100EE000E4011C00C8011900AF01170098011400AB
:100EF00084011300710110006101100051010E0006
:100F000043010D0036010B002B010B0020010B00EB
:100F1000150109000C01090003010800FB0008008D
:100F2000F3000800EB000700E4000600DE00060006
:100F3000D8000600D2000600CC000500C70005005E
:100F4000C2000500BD000400B9000400B5000400A3
:100F5000B1000400AD000400A9000400A5000300D6
:100F6000A20003009F0004009B0003009800030000
:100F70009500020093000300900003008D00020022
:100F80008B0003008800020086000200840003003A
:100F9000810002007F0002007D0002007B00020051
:100FA0007900020077000100760002007400020060
:100FB00072000100710002006F0002006D0001006C
:100FC0006C0002006A000100690002006700010075
:100FD000660001006500010064000200620001007B
:100FE00061000100600001005F0002005D0001007F
:100FF0005C0001005B0001005A0001005900010083
:101000005800010057000100560001005500010082
:101010005400010053000000530001005200010081
:1010200051000100500001004F0001004E0000007F
:101030004E0001004D0001004C0001004B0000007B
:101040004B0001004A000100490001004800000077
:101050004800010047000100460000004600010072
:10106000450000004500010044000100430000006D
:101070004300010042000000420001004100000066
:1010800041000100400001003F0000003F0001005E
:101090003E0000003E0001003D0000003D00010058
:1010A0003C0000003C0000003C0001003B00000050
:1010B0003B0001003A0000003A0001003900000046
:1010C000390001003800000038000000380001003D
:1010D0003700000037000100360000003600000035
:1010E0003600010035000000350000003500010029
:1010F0003400000034000000340001003300000020
:101100003300000033000100320000003200000014
:101110003200010031000000310000003100010008
:101120003000000030000000300001002F000000FF
:101130002F0000002F0000002F0001002E000000F3
:101140002E0000002E0001002D0000002D000000E8
:101150002D0000002D0001002C0000002C000000DC
:101160002C0000002C0001002B0000002B000000D0
:101170002B0000002B0001002A0000002A000000C4
:101180002A0000002A0001002900000029000000B8
:1011900029000000290000002900010028000000AB
:1011A000280000002800000028000000280001009E
:1011B0002700000027000000270000002700000093
:1011C0002700010026000000260000002600000085
:1011D0002600000026000100250000002500000078
:1011E000250000002500000025000000250001006A
:1011F000240000002400000024000000240000005F
:101200002400010023000000230000002300000050
:101210002300000023000000230000002300010041
:101220002200000022000000220000002200000036
:101230002200000022000100210000002100000027
:10124000210000002100000021000000210000001A
:10125000210001002000000020000000200000000C
:1012600020000000200000002000000020000000FE
:10127000200001001F0000001F0000001F000000F0
:101280001F0000001F0000001F0000001F000100E1
:101290001E0000001E0000001E0000001E000000D6
:1012A000393000003325000087190000B00F00001E
:1012B000DB080000BD040000740200003F010000D4
:1012C00020436F756E7420583A00426564004531C2
:1012D000004500626564002C2073797374656D208D
:1012E00073746F7070656421204865617465725F06
:1012F00049443A200048656174696E672046616917
:101300006C65640048656174696E67206661696C2C
:101310006564004572723A204D415854454D500065
:101320004D415854454D5020747269676765726528
:1013300064004572723A204D494E54454D50004D5F
:10134000494E54454D5020747269676765726564F3
:1013500000544845524D414C2052554E4157415939
:1013600000546865726D616C2052756E61776179A9
:1013700000202F002042403A0020403A007C3C3EB2
:101380005E2B3D3F2F5B5D3B3A2C2A225C007C3C70
:101390003E5E2B3D3F2F5B5D3B3A2C2A225C004397
:1013A0004F4D4D554E49434154494F4E00445259BB
:1013B00052554E004552524F525300494E464F002F
:1013C0004543484F00506C656173652052657365F5
:1013D00074005052494E5445522048414C544544A3
:1013E0000025533A202553004B494C4C45442E20B0
:1013F000005072696E7465722068616C7465642E49
:10140000206B696C6C28292063616C6C6564210A0F
:10141000006563686F3A004572726F723A0020206F
:101420004D3230312058004D617820416363656C46
:1014300065726174696F6E2028756E6974732F739D
:1014400032290020204D3230332058004D61782061
:101450006665656472617465732028756E6974735E
:101460002F73290020520020204D323034205000AC
:10147000416363656C65726174696F6E2028756E77
:101480006974732F7332292028503C7072696E740E
:101490002D616363656C3E20523C726574726163BA
:1014A000742D616363656C3E20543C747261766593
:1014B0006C2D616363656C3E2900204A0020540056
:1014C00020530020204D32303520420041647661A7
:1014D0006E6365642028423C6D696E5F7365676D5D
:1014E000656E745F74696D655F75733E20533C6D06
:1014F000696E5F66656564726174653E20543C6D1B
:10150000696E5F74726176656C5F66656564726151
:1015100074653E204A3C6A756E635F6465763E2959
:101520000020440020490020204D3330312050005D
:10153000486F74656E6420504944002E0A00206E86
:101540006F742064697361626C65642E20536861F6
:101550007265642077697468004D323453256C6479
:1015600054256C64004739322E39452573004731C4
:101570004625640047315A257346363030004731DE
:101580005825735925734633303030004D3130368D
:10159000502569532569004D31303953256900477D
:1015A0003238523058590047315A25734636303058
:1015B000004739322E395A2573004739322E3945C2
:1015C00030004D313039532569004D3139305325C4
:1015D0006900203B200020204D343133205300503F
:1015E0006F7765722D6C6F7373207265636F7665AC
:1015F00072790020496E76616C6964206578747236
:1016000075646572200020746F6F206C6F6E6720A8
:10161000657874727573696F6E2070726576656E29
:101620007465640A0020636F6C6420657874727559
:1016300073696F6E2070726576656E7465640A00FA
:1016400047322F47332062616420706172616D659B
:10165000746572730A00536C6565702E2E2E0043FC
:101660006C69636B20746F20526573756D652E2EE7
:101670002E00616C736F20656E61626C6564290A6F
:10168000004E6F204D6F76652E00456E64206669B2
:101690006C65206C6973740A00426567696E206628
:1016A000696C65206C6973740A004E6F206D656407
:1016B00069610A00286E6F2066696C6529004375B0
:1016C0007272656E742066696C653A20005344201E
:1016D0007072696E74696E67206279746520004E5D
:1016E0006F74205344207072696E74696E670A00CB
:1016F00043616E6E6F74206F70656E2073756264E7
:10170000697220002569730025696D2025697300C1
:101710002569682025696D20256973002569642085
:101720002569682025696D20256973002569792060
:10173000256964202569682025696D202569730065
:101740005072696E742074696D653A20006F6B0089
:101750006F666600C013BB13B413AD139F134445EB
:101760004255473A004D3131332053003344205025
:1017700072696E746572204F46462E00434F4E4686
:1017800049475F4558504F5254004D4541545041D0
:10179000434B00434F4F4C45525F54454D504552CB
:1017A0004154555245004348414D4245525F5445CE
:1017B0004D504552415455524500424142595354AF
:1017C000455050494E470041524353004D4F5449F4
:1017D0004F4E5F4D4F44455300544845524D414C88
:1017E0005F50524F54454354494F4E00455854455D
:1017F0004E4445445F4D323000435553544F4D5F86
:101800004649524D574152455F55504C4F41440057
:101810004C464E5F5752495445004C4F4E475F4629
:10182000494C454E414D45004155544F5245504F4E
:1018300052545F53445F5354415455530053445FD3
:10184000575249544500524550454154004D554C5E
:1018500054495F564F4C554D450053444341524403
:101860000050524F4D50545F535550504F525400FA
:10187000484F53545F414354494F4E5F434F4D4D82
:10188000414E445300454D455247454E43595F50E4
:10189000415253455200434153455F4C49474854D8
:1018A0005F4252494748544E45535300544F4747AF
:1018B0004C455F4C494748545300534F4654574199
:1018C00052455F504F574552004255494C445F5076
:1018D000455243454E54004C4556454C494E475F92
:1018E00044415441005A5F50524F42450052554EB8
:1018F0004F5554004155544F4C4556454C0050529D
:10190000494E545F4A4F420050524F47524553533D
:10191000004155544F5245504F52545F54454D501D
:10192000004155544F5245504F52545F504F530051
:10193000564F4C554D455452494300454550524F22
:101940004D0042494E4152595F46494C455F545201
:10195000414E534645520053455249414C5F584F02
:101960004E5F584F4646004649524D574152455FDB
:101970004E414D453A4D61726C696E20322E302ECB
:10198000392E3320284D61792031302032303232E7
:101990002031313A31373A31392920534F555243AA
:1019A000455F434F44455F55524C3A6769746875CB
:1019B000622E636F6D2F4D61726C696E4669726D38
:1019C000776172652F4D61726C696E2050524F5471
:1019D0004F434F4C5F56455253494F4E3A312E308C
:1019E000204D414348494E455F545950453A334490
:1019F000205072696E7465722045585452554445A2
:101A0000525F434F554E543A3120555549443A346C
:101A1000333663616461352D616234352D3431377D
:101A2000392D393836302D363433616562306139BD
:101A30003030650A002F2F004D31343520533C697A
:101A40006E6465783E206F7574206F662072616EDB
:101A500067652028302D31290A003F4A206F7574B0
:101A6000206F662072616E67652028302E3031202D
:101A7000746F20302E33290A002058004F4646004C
:101A80004F4E0020204D61783A2000200020204D4C
:101A9000696E3A2000203B200020204D3231312059
:101AA000530046523A0020466C6F773A2000646932
:101AB0007300656E0043290A0061626C656420282A
:101AC0006D696E2074656D702000436F6C642065D5
:101AD00078747275646573206172652000454550A5
:101AE000524F4D204F4B0A004D383400446F6E6505
:101AF000207072696E74696E672066696C650A0091
:101B00004D3737004D333100496E76616C69642082
:101B100065787472756465720A004361703A0020DA
:101B2000573A00436F6F6C696E672E2E2E00453159
:101B30002025530020573A0042656420436F6F6CA4
:101B4000696E672E2E2E00426564204865617469B7
:101B50006E672E2E2E0023646566696E65204445EF
:101B60004641554C545F004B6420004B6920004BAC
:101B7000702000504944204175746F74756E652063
:101B800066696E6973686564212050757420746895
:101B900065206C617374204B702C204B6920616E42
:101BA00064204B6420636F6E7374616E747320667F
:101BB000726F6D2062656C6F7720696E746F204361
:101BC0006F6E66696775726174696F6E2E680A0060
:101BD000504944204175746F74756E652066616963
:101BE0006C6564212074696D656F75740A005049D5
:101BF00044204175746F74756E65206661696C650B
:101C000064212054656D706572617475726520740D
:101C10006F6F20686967680A005049442043796300
:101C20006C65730025532025692F256900204B64BE
:101C30003A2000204B693A2000204B703A200020C7
:101C4000436C617373696320504944200A00205437
:101C5000753A2000204B753A2000206D61783A20BB
:101C600000206D696E3A200020643A2000206269ED
:101C700061733A200048656174696E672E2E2E00EC
:101C8000504944204175746F74756E65207374619A
:101C900072740A00504944204175746F74756E6502
:101CA000206661696C6564212054656D70657261A0
:101CB0007475726520746F6F20686967680A0050D8
:101CC0004944204175746F74756E65005049442015
:101CD0004175746F74756E65206661696C65642109
:101CE00020426164206865617465722069640A003D
:101CF0004572723A207574663820666F6E74206E75
:101D00006F7420696E697469616C697A65642E000C
:101D10004572723A207574663820666F6E74206E54
:101D20006F7420696E697469616C697A65642E00EC
:101D30004572723A207574663820666F6E74206E34
:101D40006F7420696E697469616C697A65642E00CC
:101D50002568753A25303268750025303268753A45
:101D60002530326875002530326875272530326895
:101D70007500256875642025303268753A25303243
:101D800068750042656400456E636C6F73757265BB
:101D900000202020202020200020202020002020A3
:101DA000202020202000453A00523A00657272003F
:101DB0001FE02010201020101020102020102010D4
:101DC00030300840048003001FE03FF03FF03FF058
:101DD0001FE01FE03FF03FF03FF00FC0078003001F
:101DE0003FFFF038007030FC3020FC1020781020CD
:101DF00030102C00D02E31D02F7BD02F7BD02E3125
:101E0000D02C00D020301020781020FC1030FC3076
:101E10003800703FFFF03FFFF0380070318630230C
:101E200087102787902F87D02F03D020301020785D
:101E3000102078102030102F03D02F87D0278790C4
:101E40002387103186303800703FFFF01FFFF81FE6
:101E5000FFF8041040020820020820041040082067
:101E60008010410010410008208004104000000054
:101E70001FFFF81FFFF800003FFFE000000000FF19
:101E8000FFF800000001FFFFFE00000007FFFFFF5A
:101E90000000001FFFFFFFC000007FFFFFFFF000FA
:101EA00000FFFFFFFFF80001FFEF7FFFFC0003FFD3
:101EB000EEFFFFFE0007FF80FFFFFF0007FE007F31
:101EC000FFFF000FFC003FFFFF800FFC001DFFFF26
:101ED000801FFC0001FFFFC03FFC0001FFFFE03F4F
:101EE000F80003FFFFF07FF80003FFFFF07FF00032
:101EF00003FFFFF0FFC00007FFFFF8FF80000FFFA8
:101F0000FFF8FF80001FFFFFF8FFC0003FFFFFF852
:101F1000FFF8007FFFFFF8FFFE007FCFFFF8FFFF15
:101F2000F07F81FFF8FFFDF07F807FF8FFF1F03E4A
:101F300001FFF8FFE0F00F01FFF8FFF0000FCFFF07
:101F4000F8FFFFE007FFFFF8FFFFE0003FFFF8FFAB
:101F5000FFE0001FDFF8FFFFE0001FFFF8FFFFE0DA
:101F6000000FFFF8FFFFE0000FEFF87FFFC0000752
:101F7000EFF07FFFC00007EFF03FFFDC0003DFF072
:101F80001FFF9E00001FE01FFF9F18003FC00FFFB4
:101F90009F3838FF800FFFEF383FFF8007FFFC3886
:101FA0007FFF0003FFFF7FFFFF0003FFFFFFFFFE38
:101FB0000001FFFFFFFFFC0000FFFFFFFFF8000034
:101FC0003FFFFFFFF000001FFFFFFFCF000007FFF4
:101FD000FFFF00000001FFFFFC00000000FFFFF812
:101FE000000000003FFFE00000256C6425636D00E9
:101FF0005072696E742041626F72746564004D3274
:10200000350050617573696E672E2E2E004D323487
:1020100000454550524F4D2056657273696F6E20D2
:102020004572726F7200454550524F4D20496E64A3
:102030006578204572726F7200454550524F4D20B1
:10204000435243204572726F72003F0049676E6FC2
:10205000726500526573657400496E697469616CDC
:10206000697A6520454550524F4D004D333033203D
:1020700055312045256920532569005049442041A8
:1020800075746F74756E65202A005049442D442084
:102090002A005049442D49202A005049442D5020FF
:1020A0002A0020082046616374002008204D6178D2
:1020B000002008204D696E004F6666004F6E00419B
:1020C00075746F74656D7000452073746570732F3F
:1020D0006D6D005A2053746570732F6D6D0059201B
:1020E00053746570732F6D6D005820537465707351
:1020F0002F6D6D00416476616E6365642053657475
:1021000074696E67730054656D7065726174757281
:10211000650053746570732F6D6D00436F6E666953
:102120006775726174696F6E003F004E6578742048
:10213000436F726E657200446F6E65004E65787411
:1021400000486F6D696E672058595A00000C0F00E7
:10215000FE07022503BB017FFE08FE08FE050808F6
:1021600006000040F0C88888987810050808060026
:1021700000C0F88888888888F805050506000120D1
:1021800030F830200508080600002070F8202020D4
:1021900020E00509090600FF2070A8A8B88888700B
:1021A00020070505070001D86C366CD8050909061B
:1021B00000FFF8A88888888888A8F8050A0A060019
:1021C000FE205050505088A8A888700303030600D2
:1021D0000340A040FFFFFFFFFFFFFFFFFFFFFFFFE8
:1021E000FFFFFFFFFFFFFFFFFFFF0000000605FFEF
:1021F00001070706020080808080800080030303BF
:10220000060105A0A0A005060606000050F85050E3
:10221000F8500509090600FF2070A8A07028A870D2
:1022200020050707060000C8C81020409898050739
:102230000706000040A0A040A89068010303060222
:10224000058080800309090601FF204040808080CE
:102250004040200309090601FF8040402020204023
:10226000408005070706000020A8702070A8200500
:1022700005050600012020F820200203030601FFC7
:10228000C04080050101060003F8020202060100B9
:10229000C0C0050707060000081010204040800558
:1022A0000707060000708898A8C88870030707060B
:1022B000010040C040404040E005070706000070B4
:1022C0008808102040F8050707060000F8081030BD
:1022D00008887005070706000010305090F81010AD
:1022E000050707060000F880F00808887005070752
:1022F000060000304080F08888700507070600005F
:10230000F8081010202020050707060000708888B4
:1023100070888870050707060000708888780810A4
:1023200060020505060100C0C000C0C00206060626
:1023300001FFC0C000C04080030505060101204028
:10234000804020050303060002F800F80305050697
:1023500001018040204080050707060000708810BA
:10236000202000200507070600007088B8A8B88064
:1023700070050707060000708888F88888880507B8
:1023800007060000F04848704848F00507070600B7
:102390000070888080808870050707060000F0487C
:1023A00048484848F0050707060000F88080F0809C
:1023B00080F8050707060000F88080F0808080051F
:1023C0000707060000708880809888700507070658
:1023D0000000888888F8888888030707060100E0DD
:1023E0004040404040E0050707060000381010104C
:1023F0001090600507070600008890A0C0A0908894
:10240000050707060000808080808080F8050707A8
:1024100006000088D8A88888888805070706000075
:102420008888C8A8988888050707060000708888EB
:1024300088888870050707060000F08888F080808B
:102440008005070706000070888888A8906805073F
:1024500007060000F08888F0A090880507070600AE
:102460000070888070088870050707060000F82053
:1024700020202020200507070600008888888888FB
:102480008870050707060000888888885050200556
:10249000070706000088888888A8A850050707064F
:1024A00000008888502050888805070706000088AB
:1024B000885020202020050707060000F80810207B
:1024C0004080F80309090601FFE080808080808059
:1024D00080E0050707060000804040201010080338
:1024E00009090601FFE020202020202020E005032C
:1024F000030600052050880501010600FEF80303CD
:1025000003060105804020050505060000700878D7
:1025100088780507070600008080F0888888F00525
:10252000050506000070808088700507070600001A
:10253000080878888888780505050600007088F006
:102540008070050707060000304840E04040400525
:1025500007070600FE708888887808700507070658
:1025600000008080F0888888880307070601004003
:1025700000C0404040E00409090601FE1000301090
:10258000101010906005070706000080808890E01A
:102590009088030707060100C04040404040E00526
:1025A0000505060000D0A8A8A8A805050506000096
:1025B000B0C888888805050506000070888888707E
:1025C0000507070600FEF0888888F0808005070769
:1025D0000600FE788888887808080505050600004A
:1025E000B0C880808005050506000078807008F07E
:1025F0000507070600002020F82020201805050503
:102600000600008888889868050505060000888807
:102610008850200505050600008888A8A8500505F3
:102620000506000088502050880507070600FE8830
:10263000888850204080050505060000F8102040DD
:10264000F80309090601FF20404040804040402037
:102650000109090602FF80808080808080808003DD
:1026600009090601FF8040404020404040800503AA
:102670000306000248A890FF43616E6E6F74206FDE
:1026800070656E2073756264697220005344206324
:10269000617264206F6B0A006F70656E526F6F74A9
:1026A000206661696C65640A00766F6C756D652ED5
:1026B000696E6974206661696C65640A004E6F20FA
:1026C000534420636172640A000A4D3234004D3273
:1026D00033202573002E0A006F70656E20666169D5
:1026E0006C65642C2046696C653A200046696C650F
:1026F0002073656C65637465640A002053697A65AC
:102700003A200046696C65206F70656E65643A20FA
:1027100000454E4420535542524F5554494E450AA8
:10272000002220706F73002220706172656E743A0F
:102730002200535542524F5554494E452043414C77
:102740004C207461726765743A220053756263614C
:102750006C6C204F766572666C6F770045786365A8
:1027600065646564206D617820535542524F55541D
:10277000494E452064657074683A002E0A0044652D
:102780006C6574696F6E206661696C65642C2046A7
:10279000696C653A200046696C652064656C6574F7
:1027A00065643A0057726974696E6720746F2066B9
:1027B000696C653A2000667265736800646F696EC3
:1027C00067002066696C653A20004E6F7720002F05
:1027D0006175746F25632E6700027FFF00003FFF65
:1027E000FFFFFFFFFFFFFFFFFFFF7FFFC0003FFF77
:1027F000FFFFFFFFFFFFFFFFFFFFFFFFF8001FFFCF
:10280000FFFFFFFFFFFFFFFFFFFFFFFFFE000FFFC8
:10281000FFFFFFFFFFFFFFFFFFFFFFFFFF801FFF27
:10282000FFFFFFFFFFFFFFFFFFFFFFFFFFFFFFFFB8
:10283000FFFFFFFFFFFFFFFFFFFFFFFFFFFFFFFFA8
:10284000FFFFFFFFFFFFFFFFFFFFFFFFFFFFFFFF98
:10285000FFFFFFFFFFFFFFFFFFFFFFFFFFFFFFFF88
:10286000FFFFFFFFFFFFFFFFFFFFFFFFFFFFFFFF78
:10287000FF9FFFFFFFFFFFFFFFFFFFFFFFFFFFFFC8
:10288000EF3FFFFFFFFFFFFFFFFFFFFFFFFFFFFF28
:10289000C63FFFFFFFFFFFFFFFFFFFFFFFFFFFFF41
:1028A000003FFFFFFFFFFFFFFFFFFFFFFFFFFFFEF8
:1028B000001FFFFFFFFFFFFFFFFFFFFFFFFFFFFC0A
:1028C000000FFFFFFFFFFFFFFFFFFFFFFFFFFFF80E
:1028D0000007BFFFFFFFFFFFFFFFFFFFFFFFFFF04E
:1028E00000003FFFFFFFFFFFFFFFFFFFFFFFFFF0C5
:1028F00000003FFFFFFFFFFFFFFFFFFFFFFFFFF0B5
:1029000000003FFFFFFFFFFFFFFFFFFFFFFFFFE0B4
:1029100000003FFFFFFFFFFFFFFFFFFFFFFFFFE0A4
:1029200000007FFFFFFFFFFFFFFFFFFFFFFFFFC074
:1029300000007FFFFFFFFFFFFFFFFFFFFFFFFF80A4
:1029400000017FFFFFFFFFFFFFFFFFFFFFFFFE0014
:102950000001FFFFFFFFFFFFFFFFFFFFFFFFFE0084
:102960000003FFFFFFFFFFFFFFFFFFFFFFFFFE0072
:102970000003FFFFFFFFFFFFFFFFFFFFFFFFFE0062
:102980000007FFFFFFFFFFFFFFFFFFFFFFFFFF80CD
:10299000000FFFFFFFFFFFFFFFFFFFFFFFFFFFE055
:1029A000001FFCFFFFFFFFFFFFFFFFFFFFFFFFFE1A
:1029B000001FF83FFFFFFFFFFFFFFFFFFFFFFFFFCD
:1029C000C01FF00FFFFFFFFFFFFFFFFFFFFFFFFB39
:1029D000F01FE003FFFFFFFFFFFFFFFFFFFFFFE12F
:1029E000F01FC007FFFFFFFFFFFFFFFFFFFFFF809C
:1029F000F000000FFFFFFFFFFFFFFFFFFFFFFFC023
:102A00007003E00FFFFFFFFFFFFFFFFFFFFFFFC0AF
:102A10000003FDFFFFFFFFFFFFFFFFFFFFFFFFFBC7
:102A2000E001FFFFFFFFFFFFFFFFFFFFFFFFFFFFD3
:102A3000E0000FFFFFFFFFFFFFFFFFFFFFFFFFFFB4
:102A4000E00003FFFFFFFFFFFFFFFFFFFFFFFFFFB0
:102A5000E00001FEFFFFFFFFFFFFFFFFFFFFFFFFA3
:102A6000E00001FEFFFFFFFFFFFFFFFFFFFFFFFF93
:102A7000C00000FE7FFFFFFFFFFFFFFFFFFFFFFF24
:102A8000C00000FE7FFFFFFFFFFFFFFFFFFFFFFF14
:102A9000C00000FE7FFFFFFFFFFFFFFFFFFFFFFF04
:102AA0008000007E7FFFFFFFFFFFFFFFFFFFFFFFB4
:102AB0008000003C7FFFFFFFFFFFFFFFFFFFFFFFE6
:102AC0008C0000007FFFFFFFFFFFFFFFFFFFFFFF06
:102AD0008F0000007FFFFFFFFFFFFFFFFFFFFFFFF3
:102AE0000F000000FFFFFFFFFFFFFFFFFFFFFFFFE3
:102AF0000F060001FFFFFFFFFFFFFFFFFFFFFFFFCC
:102B00000F0E0307FE1FFFFFFFFFFFFFFFFFFFFF8B
:102B1000CE0E07FFFC03FFFFFFFFFFFFFFFFFFFFDE
:102B2000FC0FDFFFFC00FFFFFFFFFFFFFFFFFFFFCA
:102B3000FFBFFFFFF8003FFFFFFFFFFFFFFFFFFFAB
:102B4000FFFFFFFFF00007FFFFFFFFFFFFFFFFFF9B
:102B5000FFFFFFFFE00001FFFFFFFFFFFFFFFFFFA1
:102B6000FFFFFFFFC000007FFFFFFFFFFFFFFFFF32
:102B7000FFFFFFFF8000001FFFFFFFFFFFFFFFFFC2
:102B8000FFFFFFFF00000003FFFFFFFFFFFFFFFF4E
:102B9000FFFFFFFC00000000FFFFFFFFFFFFFFFF44
:102BA000FFFFFFF8000000003FFFFFFFFFFFFFFFF8
:102BB000FFFFFFE00000000007FFFFFFFFFFFFFF38
:102BC000FFFFFF800000000001FFFFFFFFFFFFFF8E
:102BD000FFFFFC0000000000007F6D61726C696EF9
:102BE00066772E6F726700322E302E392E33001F1B
:102BF000FFFFFFFFFFFF600000000001FF4000003B
:102C0000000000FF8000000000007F83CF00000C68
:102C1000303F87FF80000C301F867980000C000F4A
:102C20008C30C7838C30E78C30CFC7CC31F38C30FD
:102C3000DCECEC33B98C30D86C6C33198C30D06C44
:102C40000C33198C30D86C0C33198C30DC6C0E3B87
:102C5000198C30CF7C079F198C30C77C038F1940AB
:102C6000000000000002600000000000061FFFFFDF
:102C7000FFFFFFF870012C0190012701B001220134
:102C8000C0011D01F00118011002130130020E01F4
:102C90006002090190020401C002FF000003FA0073
:102CA0004003F5008003F000D003EB002004E600B1
:102CB0007004E100E004DC004005D700C005D2004C
:102CC0004006CD00D006C8008007C3003008BE0013
:102CD000F008B900C009B400B00AAF00B00BAA00F8
:102CE000D00CA500000EA000500F9B00C010960055
:102CF0005012910000148C00C0158700B01782009C
:102D0000B0197D00D01B7800001E730040206E00BB
:102D100090226900F024640040275F0090295A0047
:102D2000E02B5500102E500020304B001032460092
:102D3000E033410090353C001037370070383200E6
:102D4000A0392D00B03A2800A03B2300603C1E00B3
:102D5000103D1900903D1400103E0F00703E0A0017
:102D6000C03E0500003F0000403FFBFF803FF6FFF4
:102D7000C03FF1FF2020506C616E6E657242756637
:102D800066657242797465733A2000204672656503
:102D9000204D656D6F72793A200020436F6D706928
:102DA0006C65643A204D6179203130203230323206
:102DB0000A00204C61737420557064617465643A34
:102DC00020323032312D31322D3235207C20417588
:102DD00074686F723A20284E6575726F706C616E00
:102DE000742C20416E794375626963204D6567617B
:102DF000205345290A004D61726C696E20322E30D5
:102E00002E392E330A0020536F6674776172652065
:102E100052657365740A00205761746368646F6754
:102E20002052657365740A002042726F776E206FBE
:102E300075742052657365740A0020457874657254
:102E40006E616C2052657365740A00506F7765720D
:102E500055700A0073746172740A00473238585909
:102E6000004D31303031006F6B006572726F72202F
:102E700077726974696E6720746F2066696C650A81
:102E800000446F6E6520736176696E672066696CB9
:102E9000652E0A00456E6473746F707300255320AD
:102EA000256320256320256320256300205A3A00EE
:102EB00020593A0020583A00656E6473746F70733D
:102EC000206869743A2000004D6F76652025736D87
:102ED0006D004D6F766520302E316D6D004D6F7633
:102EE0006520316D6D004D6F76652031306D6D0060
:102EF0004D6F76652041786973004D6F766520458A
:102F000078747275646572004D6F7665205A004D55
:102F10006F76652059004D6F7665205800507269B4
:102F20006E742066726F6D204D6564696100486F34
:102F30006D696E67204661696C656400FFFFFF2262
:102F40000A00556E6B6E6F776E20636F6D6D616EEC
:102F5000643A202200204500205A002059002020F9
:102F60004D3932205800537465707320706572209B
:102F7000756E6974003B2000627573793A20706148
:102F80007573656420666F7220696E7075740A00CF
:102F9000627573793A2070617573656420666F722B
:102FA00020757365720A00627573793A2070726FCA
:102FB00063657373696E670A004D313030305300BA
:102FC000000000010200090A0000000004030807D5
:102FD00000000000000000000000000000000000F1
:102FE0002121204B494C4C2063617573656420623C
:102FF0007920746F6F206D75636820696E616374EA
:103000006976652074696D65202D2063757272651F
:103010006E7420636F6D6D616E643A20004D3131C6
:10302000322053687574646F776E0053544F50505C
:1030300045442E20005072696E7465722073746F5F
:10304000707065642064756520746F206572726F9E
:1030500072732E2046697820746865206572726FDD
:103060007220616E6420757365204D393939207482
:103070006F20726573746172742E202854656D70B0
:103080006572617475726520697320726573657409
:103090002E205365742069742061667465722072F5
:1030A000657374617274696E67290A004E6F2043FC
:1030B0006865636B73756D2077697468206C696EE1
:1030C00065206E756D6265722C204C617374204CA6
:1030D000696E653A20004D3239004E6F20436865B5
:1030E000636B73756D2077697468206C696E6520F9
:1030F0006E756D6265722C204C617374204C696E24
:10310000653A2000636865636B73756D206D697344
:103110006D617463682C204C617374204C696E651A
:103120003A20004C696E65204E756D6265722069AB
:1031300073206E6F74204C617374204C696E65202F
:103140004E756D6265722B312C204C617374204C6E
:10315000696E653A20004D31313000536572696106
:103160006C20737461747573206D69736D61746321
:10317000680A0053442072656164206572726F7240
:103180000A00DB0FC93F45BCDA3F8FB30240FCF0B9
:10319000274056946140FE4B9B4084A5D840E023D5
:1031A0001841346A5641E859974164DBD5416E278E
:1031B0001742B4B75542CE1A9742C8AED542B58829
:1031C0005A43D40684BFA65FA7BF7443E0BF10B1C3
:1031D0001AC01C2C58C0E8F697C0B849D6C04E4E4D
:1031E00017C124D355C1802497C1A0B5D5C1121AE7
:1031F00017C244AE55C2781797C26CACD5C2678867
:103200005AC320746F6F206C6F6E6720657874727C
:103210007573696F6E2070726576656E7465640A89
:103220000020636F6C6420657874727573696F6ECB
:103230002070726576656E7465640A006F6B0A00B3
:10324000526573656E643A20000000220025002854
:10325000002B0000002100240027002A00020202A7
:10326000020202020204040404040404040303032B
:103270000303030303010101010101010101020430
:103280000810204080010204081020408001020440
:103290000810204080804020100804020120453A98
:1032A00000205A3A0020593A00583A004572726F8D
:1032B000722077726974696E6720746F204545507B
:1032C000524F4D210A003344205072696E7465726A
:1032D0002052656164792E005072696E74696E6760
:1032E0002E2E2E005072696E7420506175736564C5
:1032F0000000F6E1D7E111241FBECFEFD0E4DEBF1E
:10330000CDBF84B78093861614BE0FB6F894A895E7
:1033100080916000886180936000109260000FBE11
:1033200012E0A0E0B1E0EAEAFDEE01E00BBF02C06E
:1033300007900D92A237B107D9F726E1A2E7B2E0D4
:1033400001C01D92A638B207E1F719E1CAE7D9E139
:1033500004C02197FE010E941EF3C937D107C9F7A7
:103360000E94CAE20C94C9F60C940000A0E1B0E0FF
:10337000ECEBF9E10C9447F38C01DC01ED91FC914D
:103380000280F381E02DBE016F5F7F4F0995882396
:1033900009F45DC08981807C91F56F81637070E074
:1033A000762F6627770F770F8885B4E08B9FC00153
:1033B0001124682B792B8985829586958695837053
:1033C000682B6F5F7F4F90E080E02A852370220F8B
:1033D0003B8537FB332730F9232B3E813F70230F8A
:1033E0003327331F2750310904C0660F771F881F0A
:1033F000991F2A95D2F76096E4E00C9463F3803429
:1034000019F568856695669570E090E080E0CB01DF
:10341000772766272A85622B098510E0102F002761
:10342000012E000C220B330B602B712B822B932B64
:103430006F5F7F4F8F4F9F4F4AE0660F771F881F48
:10344000991F4A95D1F7D7CF8BE0F801848360E0CC
:1034500070E0CB01D0CF0895FC0182810895CF9315
:10346000DF93C091EF06D091F00681E0CE31D10517
:10347000E4F020E030E040E05FE36091EB06709123
:10348000EC068091ED069091EE060E9471F30E9489
:10349000B5F46C1B7D0B77FF03C0719561957109C5
:1034A00081E0633071050CF080E0DF91CF910895E9
:1034B000FC0190E1A6E3B3E001900D929A95E1F74B
:1034C0000895EF92FF920F931F93E0929C02F09267
:1034D0009D0200939E0210939F02B62F172F022F7A
:1034E000F32E242F582FB093A0021093A1025093D3
:1034F000A2026FEFFF27B01B1F09520B30F450954B
:103500001095B195160B560B662760937703A6E0CE
:10351000BA9F00926B03712DEE271A9F700DE11D6B
:103520005A9FE00D70936C03E0936D03AFE0BA9F78
:1035300000926F03712DEE271A9F700DE11D5A9FA7
:10354000E00D70937003E0937103AAE0BA9F0092BC
:103550007303712DEE271A9F700DE11D5A9FE00D28
:1035600070937403E09375031F910F91FF90EF9098
:103570000895A5E0B0E0EFEBFAE10C9440F3F62EED
:10358000E72E282FE4EDF7E00027BB275F2D8E2DD7
:10359000922F992341F4982F852FB85F992319F41E
:1035A000982F8827B85F903138F482959295582FDC
:1035B0005F70807F952BBC5F903428F4880F991F33
:1035C000880F991FBE5F903818F4880F991FB39524
:1035D000880F991FE90FF01F549181E09927B85087
:1035E00079F1C0F0B0FF02C0550F881FB1FF04C0D1
:1035F000550F881F550F881FB2FF06C08295529540
:10360000152F1F70507F812BB3FF1AC0982F852F65
:10361000552716C0B195B0FF02C085955795B1FFEB
:1036200004C08595579585955795B2FF05C082953D
:10363000507F5295582B8F70B3FF02C0582F8827A8
:10364000BB247727AA27B2E0F59EB0187109A00B1A
:10365000B00BE59E7019A109B00B259FA019B10907
:10366000F89E7019A109B00BE89EA019B109289F16
:10367000B019F99EA019B109E99EB0195B9DA12C62
:1036800099244427662733278B9DA00C911C401F4B
:10369000601F301F9B9D900C411D601F301F579F66
:1036A000A00C911C401F601F301F879F900C411D74
:1036B000601F301F979F400D611D301F5A9F900C57
:1036C000411D601F301F8A9F400D611D301F9A9F52
:1036D000600D311D5B9F400D611D301F8B9F600D84
:1036E000311D9B9F300DB1E0AA277727BB24F49EA4
:1036F000B0187109A00BB00BE49E7019A109B00BB2
:10370000249FA019B109F69E7019A109B00BE69E7D
:10371000A019B109269FB019F39EA019B109E39E23
:10372000B019BF187E09A20B20F0B1E04B0F601F4B
:10373000301F1124762F642F90E0832F2596EBE025
:103740000C945CF3FC017081472F50E0062E02C000
:10375000559547950A94E2F740FF14C040918702BF
:1037600050E0062E02C0559547950A94E2F740FFB7
:1037700009C021E030E001C0220F6A95EAF72095E8
:10378000272320830895282F81E3243609F080E23F
:1037900080937E0290E22A3040F03AE0822F632F3D
:1037A0000E94DEF20E94DEF2905D90937F02822FF3
:1037B0006AE00E94DEF2905D9093800285E2809341
:1037C00081028EE792E008956091220170912301B9
:1037D000072E000C880B990B0E9459EC2AE037ED5C
:1037E00043E25CE30E94B8EC609360017093610176
:1037F00080936201909363010895CF93DF93EC016E
:10380000CB01BA010E9459EC29EC38EC48EC5EE39C
:103810000E944DF420E030E040E05FE30E9471F34D
:103820000E94BAF46883DF91CF9108950E9459EC09
:1038300029EC38EC48EC5EE30E944DF420E030E0E7
:1038400040E05FE30E9471F30E94BAF424E6629FB5
:10385000C001112481589F4F6FEF70E00E940BF35D
:10386000862F91CF80913806811104C08091770214
:103870008093280708958091DF138823C1F0815039
:103880008093DF13EBEEF3E1882351F08150990B25
:103890002BE1289FF001299FF00D1124EF5DFB4ED5
:1038A0008BE1A6E0B4E101900D928A95E1F72091B9
:1038B000DF13211105C08091E91380648093E9131F
:1038C00081E090E0A0E0B0E0211103C080E090E052
:1038D000DC0180931F0690932006A0932106B093ED
:1038E00022061092190681E080932F0683E08093D0
:1038F000650108954F925F926F927F92AF92BF924F
:10390000CF92DF92EF92FF920F931F93CF93DF93AB
:1039100000D000D0CDB7DEB78C0149835A836B83CA
:103920007C835901C12CD12C7601412C82E0582E88
:10393000612C712C49815A816B817C819E012F5FA2
:103940003F4FC8010E946AC4882319F1F801858598
:10395000A301920104C0220F331F441F551F8A95F3
:10396000D2F7DA01C901C80ED91EEA1EFB1E498131
:103970005A816B817C8187898031F1F481E0483FF5
:103980005F4F61057105B0F2F501C082D182E2821C
:10399000F3820F900F900F900F90DF91CF911F91B6
:1039A0000F91FF90EF90DF90CF90BF90AF907F90FE
:1039B0006F905F904F90089581E0483F5F4F6F4F49
:1039C0007F4008F4B7CFE0CFCF93DF93C091EF06ED
:1039D000D091F006209729F16091EB067091EC06EA
:1039E0008091ED069091EE060E94B5F46E5F7F4FD8
:1039F00024976C177D07ACF47093620360936103A6
:103A00000E94A6BD605E714B8F4F9F4F6093630312
:103A1000709364038093650390936603DF91CF9165
:103A2000089510926303109264031092650310923C
:103A30006603F4CFC9CFACE0B0E0E1E2FDE10C9465
:103A40003AF35C01DC0159968D909C90F4018185DC
:103A50009285A385B4859C01AD012F5F3F4F4F4FE9
:103A60005F4F29873A874B875C87D50114964D9025
:103A70005D906D907C90179741145104610471041E
:103A800009F459C0BFEF4B1A5B0A6B0A7B0A312C51
:103A9000730162011D821E821F821886F4018185D6
:103AA0009285A385B4852D813E814F815885281745
:103AB00039074A075B0708F056C089859A85AB85A8
:103AC000BC858C159D05AE05BF0550F482E0C82E5F
:103AD000D12CE12CF12C92E0492E512C612C712C2F
:103AE0009E012F5F3F4FB701A601C4010E946AC427
:103AF0008823C9F189819A81AB81BC81892B8A2B6A
:103B00008B2B01F1260137019FEF491A590A690AE7
:103B1000790A2D813E814F8158852F5F3F4F4F4F4E
:103B20005F4F2D833E834F8358873FEFC31AD30ADD
:103B3000E30AF30AB3CF408051806280738033245C
:103B40003394A6CFC414D504E604F70411F70FEF9D
:103B50001FEF2FEF3FE0B701A601C4010E94EFC3A2
:103B6000782E811106C0712C872D2C96E1E10C94E2
:103B700056F3F501448155816681778141155105E0
:103B80006105710539F097018601C4010E94EFC3F8
:103B9000882349F3D5011496CD92DD92ED92FC92E3
:103BA0001797332051F0D701C6010196A11DB11D11
:103BB000F40180839183A283B383F501858996897B
:103BC000A789B08D892B8A2B8B2B71F6C58AD68A53
:103BD000E78AF08E818180688183C6CFCF93DF939F
:103BE000EC018D810E94E59860E08B810E94C1BC50
:103BF000DF91CF910895CF92DF92EF92FF920F93D2
:103C00001F93CF938C01C62F69017A01E7DF0E94D1
:103C1000DCBD8C2F80640E94D9988F2D0E94D9988A
:103C20008E2D0E94D9988D2D0E94D9988C2D0E949E
:103C3000D99887E8C11101C085E90E94D998CC3094
:103C400011F40E94DE98C0E00E94DE98F80186839D
:103C500087FF04C0CF3F11F0CF5FF6CFCF911F9108
:103C60000F91FF90EF90DF90CF90089561E0FC01FD
:103C700083810E94C1BC8FEF0C94D9980F931F933E
:103C8000CF938C01ABDF0E94DCBDC82F882369F085
:103C90008DEF0E94D9980E94DCBDC82FC801E6DFD5
:103CA0008C2FCF911F910F91089582E1F8018483A9
:103CB000F5CFB0E0A0E0EFE5FEE10C943FF3EC01BE
:103CC0006A017B014801590120E030E0A90167E366
:103CD00092DFA501980167E1CE018DDF81111DC042
:103CE0008F81833039F089E0CC0CDD1CEE1CFF1C89
:103CF0008A95D1F7A701960169E1CE017CDF11E039
:103D0000882319F010E087E08C83CE01AFDF812F8C
:103D1000CDB7DEB7ECE00C945BF389E08C8310E068
:103D2000F4CFCF93DF93EC016EBDFA01CA019E5F21
:103D30000DB407FEFDCF20812EBD0DB407FEFDCFD3
:103D400021812EBD3296E817F90791F70DB407FED1
:103D5000FDCF8FEF0E94D9988FEF0E94D9980E94D3
:103D6000DE988E838F71853041F083E18C83CE01A4
:103D70007DDF80E0DF91CF91089581E0FBCF0F934D
:103D80001F93CF93DF93EC018B0128DF0E94DCBDF2
:103D900081110BC085E18C8310E0CE0167DF812F9C
:103DA000DF91CF911F910F910895A8016CEFCE0183
:103DB000B8DF182F882371F3F0CF0F931F93CF93A1
:103DC000DF93EC0189018F81833039F089E0440F62
:103DD000551F661F771F8A95D1F79A01AB0168E1DD
:103DE000CE0109DF811127C0A8016EEFCE0199DF56
:103DF000182F8823A9F00E94DCBD182F8823C1F05A
:103E000020E030E0A9016DE0CE01F5DE882321F04D
:103E100086E18C8310E004C00E94DE988111F8CF07
:103E2000CE0124DF812FDF91CF911F910F91089553
:103E300087E18C83F5CF86E0ECCF1F93CF93DF93A0
:103E4000EC01CCDE20E030E0A9016CE0CE01D3DE55
:103E500011E0882319F010E083E08C83CE0106DFA7
:103E6000812FDF91CF911F9108951F93CF93DF93FF
:103E7000EC018F81833039F089E0440F551F661FB4
:103E8000771F8A95D1F79A01AB0162E1CE01B3DECB
:103E900011E0882319F010E085E08C83CE01E6DE86
:103EA000812FDF91CF911F9108958F929F92AF92B2
:103EB000BF92EF92FF920F931F93CF93DF938C01EA
:103EC000EB017A010E94A6BD4B015C012CE2820E3F
:103ED00021E0921EA11CB11C0E94DE98F80186838D
:103EE0008F3F69F40E94A6BD681979098A099B0968
:103EF00097FDF2CF81E1F8018483C0E021C08E3FBD
:103F000069F5F1E0EF1AF1088FEF8EBDFE012FEF9A
:103F10000DB407FEFDCF8EB581932EBDCF018C1B56
:103F20009D0B8E159F05A0F30DB407FEFDCF8EB53A
:103F3000CE0DDF1D88830E94DE980E94DE98C1E0CE
:103F4000C80194DE8C2FDF91CF911F910F91FF90CC
:103F5000EF90BF90AF909F908F9008958FE0CBCF60
:103F60000F931F93CF93DF93EC018B0137DE40E07B
:103F700052E0B801CE0199DFDF91CF911F910F91EF
:103F800008950F931F93CF93DF93EC0189018F81E5
:103F9000833039F089E0440F551F661F771F8A95DB
:103FA000D1F79A01AB0161E1CE0125DE882351F002
:103FB00084E08C83CE015ADE80E0DF91CF911F91A7
:103FC0000F91089540E052E0B801CE016EDFF5CFC9
:103FD000B0E0A0E0EEEEFFE10C943FF3EC01162F11
:103FE0001F821C824B830E94A6BD6B017C0120EDC9
:103FF000C20E27E0D21EE11CF11CA89561E08B8166
:104000000E94C1BC8B810E946BB9249A279A269882
:10401000259A81E00E94E59885E08D830E94E598CD
:104020000AE08FEF0E94D9980150D9F7A89520E0B7
:1040300030E0A90160E0CE01DEDD8E83813079F0D1
:104040000E94A6BD6C197D098E099F0997FDEFCFCF
:1040500081E08C83CE010ADE1A8280E065C0A895DB
:104060002AEA31E040E050E068E0CE01C4DD85306E
:1040700031F581E08F83A8958F81812C912C54019B
:10408000823029F4812C912CA12C80E4B82E20E0E0
:1040900030E0A90167E3CE01AEDDA501940169E23C
:1040A000CE01A9DD8E838823F1F00E94A6BD6C1994
:1040B0007D098E099F0997FDEACF8AE0CACF04E007
:1040C0000E94DE988E830150D9F78A3A11F482E07B
:1040D000D1CF0E94A6BD6C197D098E099F0997FD5D
:1040E000BFCF82E0B6CF8F818230B9F420E030E0DC
:1040F000A9016AE3CE017FDD882311F088E0A9CF12
:104100000E94DE98807C803C11F483E08F830E94C3
:10411000DE980E94DE980E94DE98CE01A7DD81E045
:104120008A83173030F41D83CDB7DEB7ECE00C94F2
:104130005BF388E18C8391CF0F931F93CF93DF9331
:10414000EC018B0120E030E0A90169E054DD882317
:1041500051F080E18C83CE0189DD80E0DF91CF9149
:104160001F910F91089540E150E0B801CE019DDE0E
:10417000F5CFEF92FF920F931F93CF937B018A01AC
:10418000C2E48F3F09F0C4E580E20E945E8E8C2F6E
:104190000E945E8E8AE30E945E8EF70160817181CB
:1041A000828193810E94C9B881E793E10E94658E64
:1041B000F80160817181828193810E94C9B862E0B7
:1041C00070E080E090E00E941DBDCF911F910F91A3
:1041D000FF90EF90089540919A0221E042276CE011
:1041E00070E00C949DB840919A0221E0422764E06F
:1041F00070E00C949DB840919A0221E0422761E062
:1042000070E00C949DB840919A0221E0422761E051
:1042100070E00C949DB840919A0221E0422768E03A
:1042200070E00C949DB840919A0221E042276CE026
:1042300070E00C949DB841E061E070E00C949DB892
:1042400040919A0221E042270C949DB86CE070E006
:104250000C9450BD61E070E00C9450BD61E070E0E2
:104260000C9450BD6CE070E00C9450BD64E070E0C4
:104270000C9450BDCF93C82FCB010E94658E80EA6D
:1042800095E00E94658E81E995E0CC2311F086E9E6
:1042900095E00E940E98CF91089520E040E070E0F4
:1042A00060E08AEB9CE40E94FF7B81E080937602D1
:1042B0001092750210927402089520E040E070E0C0
:1042C00060E088EF92E20E94FF7B81E08093980299
:1042D000089521E020937602FC0180819181A281E2
:1042E000B3818093000190930101A0930201B093E8
:1042F000030120E040E070E060E080911A069091B8
:104300001B060C94FF7BA4E0B0E0E9E8F1E20C941A
:1043100049F38DEC9CECACECBCE389839A83AB83D2
:10432000BC83CE010196D5DF2496E2E00C9465F3C0
:10433000A4E0B0E0EEE9F1E20C9449F38DEC9CECE2
:10434000ACECBDE389839A83AB83BC83CE01019639
:10435000C0DF2496E2E00C9465F3A4E0B0E0E3EB68
:10436000F1E20C9449F380E090E0A0E8BFE3898398
:104370009A83AB83BC83CE010196ABDF2496E2E047
:104380000C9465F3A4E0B0E0E8ECF1E20C9449F39E
:1043900080E090E0A0E2B1E489839A83AB83BC83A0
:1043A000CE01019696DF2496E2E00C9465F36DEF62
:1043B0007BE186E19CE10C9426830E94C17C81E62E
:1043C00093E09093E1068093E00608956091770270
:1043D0008FEF0C9459DF80917702682F0C9459DF8E
:1043E0006FEF809177020C9459DFB0E0A0E0EBEF23
:1043F000F1E20C943BF30091770261E081E00E94CE
:104400006672C091190610E0000F111F025B1A4F6F
:1044100095E0592E5C0E28E0E22E25E0F22ED3E046
:10442000DC1B30EFC32E31E2D32E46E1A42E45E053
:10443000B42E82E0782E7C1A52E5852E55E0952E1A
:1044400081E0682E6C1A4C2E4194C1112BC08091D2
:1044500018068823B1F080916501882359F081E026
:1044600090911806911180E024E044E255E0642D1B
:104470000E94ECBACF5FC511E8CF84E080931206AA
:104480000CC08091130610921306882321F30E941A
:10449000247D80912F068823F1F2CDB7DEB7E0E1CD
:1044A0000C9457F3C13059F5F8018591949190938C
:1044B0003A068093390680911806813081F0809108
:1044C00065018823B9F21F929F928F926F9281E0CB
:1044D00090911806913009F473C080E071C080910A
:1044E000130610921306882351F380917702682FE8
:1044F0000E9459DF80912F06882309F3CECFC23066
:1045000009F041C0F8018591949190933A06809307
:104510003906809118068230D1F080916501882398
:1045200009F4A8CFDF92CF92BF92AF927F9281E041
:1045300090911806923009F080E08F930E944F729C
:104540000F900F900F900F900F900F9093CF80913E
:10455000130610921306882301F342DF80912F0681
:104560008823D9F29ACF80911306109213068823DC
:10457000C1F0609177028FEF0E9459DF80912F0682
:10458000882379F08ACFC33009F074CFF801859180
:10459000949190933A06809339068091180683305F
:1045A00011F380916501882309F464CF1F92FF9273
:1045B000EF92DF9381E090911806933009F08DCF50
:1045C0008F930E944F720F900F900F900F900F904B
:1045D00051CF64EC73E582E00C94A3DF68EC73E5E3
:1045E00081E00C94A3DF6CEC73E580E00C94A3DF16
:1045F00068EA71E583E00C94A3DFCF92DF92EF923B
:10460000FF920F931F9387E9C82E84E0D82EF12CD8
:10461000E12C09E914E030E020E04DE551E269EADF
:1046200074E08EEA94E00E941B821F910F91FF902C
:10463000EF90DF90CF900895CF92DF92EF92FF92AC
:104640000F931F938CE8C82E83E0D82EF12CE12C19
:104650000BE214E030E020E04BE257E86EE873E054
:1046600083E993E00E941B821F910F91FF90EF90CE
:10467000DF90CF900895109219060C9439C3B0E0E2
:10468000A0E0E5E4F3E20C9441F3ADB6BEB6809150
:104690000B136EEF72E1882311F06BE073E1FB0105
:1046A00001900020E9F7CF01861B970B01962DB7EB
:1046B0003EB7281B390B0FB6F8943EBF0FBE2DBF77
:1046C0008DB79EB701967C0180E2EDB7FEB781837E
:1046D000C70101960E9482F68EE4C82E84E0D82E8F
:1046E00000E514E030E020E044E853E26CE574E0DB
:1046F00083E694E00E941B820FB6F894BEBE0FBE04
:10470000ADBEEAE00C945DF38EEF92E10E94E9C247
:104710000E94C17C0C947DB788E993E00C945F7291
:104720000E948B7B0E94FFC50C94C17CB0E0A0E08E
:10473000ECE9F3E20C943DF381E08093760261E0D2
:104740000E946672C091190685E0882E8C0ED1E019
:1047500000E913E297E6E92E93E0F92E82E0982E25
:104760009C1A2DEDC22E21E2D22E32E7A32E33E089
:10477000B32E7D2E7C1A6C2E6194C11130C0DD23C6
:10478000D9F0809118061816BCF040911F06509180
:10479000200660912106709122064F5F5F4F6F4F98
:1047A0007F4F40931F06509320066093210670931D
:1047B00022068F5F8093180680916501882341F05F
:1047C00030E020E041E06FE773E0862D0E9423781F
:1047D000CF5F8C12D2CF83E08093120621C0C1300C
:1047E00021F580911806813081F080916501882340
:1047F000C9F1DF92CF92BF92AF927F9281E0909108
:104800001806913031F180E024C080911306109297
:104810001306882351F3D1DD80912F06882329F3D5
:10482000CDB7DEB7EEE00C9459F3C23089F6809133
:1048300018068230C9F080916501882399F01F9392
:104840000F93FF92EF929F9281E090911806923021
:10485000D1F68F930E944F720F900F900F900F9090
:104860000F900F90D0E0B4CF8091130610921306F2
:10487000882309F355DF80912F068823E1F2D0CFFA
:10488000A5E1B0E0E6E4F4E20C9445F38091130670
:1048900010921306882331F00E94247D6596E6E08D
:1048A0000C9461F360E085E00E9466720091190645
:1048B00010E08AE3F82E90E2E92E011130C08091D9
:1048C0006501882341F030E020E043E061E373E0DC
:1048D000812F0E942378F982EA8242E150E064E06D
:1048E00073E0CE0103960E94C3EB8C8987FD1C8A7E
:1048F000053069F480916501882349F09E012F5F9E
:104900003F4F41E06AEF72E0812F0E9423780F5FF2
:104910001F5F153091F686E080931206BFCF0130FD
:1049200051F4809165018823B1F230E020E041E04C
:1049300069E273E0CDCF0230A9F48091650188234C
:1049400051F230E020E041E06EE173E0C1CF8091B0
:104950006501882309F4BFCF30E020E043E063E144
:1049600073E0B6CF033099F3043009F0B4CF8091EF
:104970006501882309F4AFCF30E020E041E066E034
:1049800073E0A6CFA5E1B0E0E8ECF4E20C9445F3C7
:104990008091130610921306882331F00E94247D23
:1049A0006596E6E00C9461F360E085E00E94667233
:1049B0000091190610E08AE3F82E90E2E92E011129
:1049C0000CC080916501882341F030E020E043E095
:1049D00069EE72E0812F0E942378F982EA8242E137
:1049E00050E062EE72E0CE0103960E94C3EB8C8928
:1049F00087FD1C8A013069F480916501882349F0A4
:104A00009E012F5F3F4F41E06DED72E0812F0E94CC
:104A10002378F982EA8242E150E069ED72E0CE014A
:104A200003960E94C3EB8C8987FD1C8A023069F4CF
:104A300080916501882349F09E012F5F3F4F41E03F
:104A400060ED72E0812F0E942378F982EA8242E1D0
:104A500050E068EC72E0CE0103960E94C3EB8C89B3
:104A600087FD1C8A033069F480916501882349F031
:104A70009E012F5F3F4F41E064EC72E0812F0E9466
:104A800023780F5F1F5F153009F099CF84E0809382
:104A9000120686CFA5E1B0E0E0E5F5E20C9445F31F
:104AA0008091130610921306882331F00E94247D12
:104AB0006596E6E00C9461F360E085E00E94667222
:104AC0000091190610E08AE3F82E90E2E92E011118
:104AD0000CC080916501882341F030E020E042E085
:104AE00065EB72E0812F0E942378F982EA8242E12D
:104AF00050E063EB72E0CE0103960E94C3EB8C8919
:104B000087FD1C8A013069F480916501882349F092
:104B10009E012F5F3F4F40E06AEA72E0812F0E94C2
:104B20002378F982EA8242E150E066EA72E0CE013F
:104B300003960E94C3EB8C8987FD1C8A023009F022
:104B40004EC080916501882349F09E012F5F3F4F41
:104B500040E06DE972E0812F0E942378F982EA82B9
:104B600042E150E069E772E0CE0103960E94C3EB98
:104B70008C8987FD1C8A053069F480916501882342
:104B800049F09E012F5F3F4F40E06AEA72E0812FBB
:104B90000E942378F982EA8242E150E065E772E000
:104BA000CE0103960E94C3EB8C8987FD1C8A0630D8
:104BB00089F580916501882349F09E012F5F3F4F61
:104BC00040E06DE972E0812F0E9423780F5F1F5F44
:104BD000153009F07CCF88E08093120669CF03304E
:104BE00059F480916501882309F4B8CF30E020E0C2
:104BF00040E06BE872E0AFCF043009F0AFCF8091B6
:104C00006501882309F4AACF30E020E042E06BE799
:104C100072E0A1CF0730D1F6809165018823B1F20F
:104C200030E020E040E06BE872E0CDCFCF938091A0
:104C3000F912C1E08823C9F08091FA129091FB1219
:104C40004091F1125091F2126091F3127091F412AE
:104C5000DC01ED91FC910288F389E02D21EF30E138
:104C60000995C82F811104C0C0E08C2FCF91089501
:104C70004091F5125091F6126091F7127091F8126E
:104C80004115510561057105B9F08091FA129091B5
:104C9000FB12DC01ED91FC910288F389E02D21EFFC
:104CA00030E10995882301F31092F5121092F61263
:104CB0001092F7121092F8121092F912D6CFCF92EA
:104CC000DF92EF92FF92CF936B017C01C42F809112
:104CD000F1129091F212A091F312B091F4128C158E
:104CE0009D05AE05BF0521F1A1DF811108C0C0E01F
:104CF0008C2FCF91FF90EF90DF90CF90089580910F
:104D0000FA129091FB12DC01ED91FC910088F1897F
:104D1000E02D21EF30E1B701A6010995882339F391
:104D2000C092F112D092F212E092F312F092F412C9
:104D3000CC2321F081E08093F912DACFC1E0D8CF03
:104D4000B0E0A0E0E6EAF6E20C943FF3EC018B81E0
:104D5000811106C080E0CDB7DEB7ECE00C945BF3C8
:104D600009891A892B893C890417150726073707F3
:104D700088F34A015B01823031F488869986AA86DD
:104D8000BB8681E0E8CF81149104A104B10449F409
:104D9000188619861A861B861C821D821E821F8217
:104DA000F0CF088519852A853B85E98DFA8D8585A3
:104DB00090E00996B901A8014150510961097109B2
:104DC000082E04C076956795579547950A94D2F7B3
:104DD00075016401E1E0CE1AD108E108F10804C0D0
:104DE000F694E794D794C7948A95D2F7C416D5065B
:104DF000E606F70620F0012B022B032B11F58D8917
:104E00009E89AF89B88D8C839D83AE83BF838E01CD
:104E10000C5F1F4FC114D104E104F10409F4ADCFBC
:104E20004C815D816E817F819801898D9A8D0E9470
:104E30006AC491E0C91AD108E108F1088111EACFEA
:104E400089CFC41AD50AE60AF70AE1CFB0E0A0E09C
:104E5000ECE2F7E20C9439F3EC014B018A018B810F
:104E6000811107C08FEF9FEFCDB7DEB7E2E10C9461
:104E700055F3898180FFF6CF89899A89AB89BC89EE
:104E8000488559856A857B85841B950BA60BB70BD6
:104E9000A80170E060E084179507A607B70708F43B
:104EA0008C0168011E0124E0220E311CC114D104C2
:104EB00009F4A9C0488559856A857B855A0181E036
:104EC000B822898D9A8D2A013B0139E07694679446
:104ED000579447943A95D1F72B81FC01223081F504
:104EE000628D738D848D958D640D751D861D971D46
:104EF000E12C22E0F22EEA18FB08CE14DF0408F4BD
:104F00007601E114E2E0FE0671F44090F112509057
:104F1000F2126090F3127090F41264157505860514
:104F2000970509F04DC040E0CADE882309F49ACF06
:104F3000B5016F507F4EA701C4010E9454F652C0C4
:104F4000F480FA94F420A114B10471F4F1100CC0AF
:104F5000452B462B472B51F58D899E89AF89B88DFE
:104F60008C839D83AE83BF83E98DFA8D4C805D80F9
:104F70006E807F8022E0421A5108610871088585A1
:104F800004C0440C551C661C771C8A95D2F7868594
:104F90009785A089B189480E591E6A1E7B1EC301E0
:104FA000B2016F0D711D811D911DA2CF4C815D81DC
:104FB0006E817F8191010E946AC48111D5CF52CF49
:104FC000A091FA12B091FB12ED91FC91119700881B
:104FD000F189E02D9401AB01BC01CD010995882335
:104FE00009F440CF8E0C9F1C88859985AA85BB85C6
:104FF0008E0D9F1DA11DB11D88879987AA87BB872C
:10500000CE18DF0853CFC8012FCFA1E0B0E0EBE00E
:10501000F8E20C9446F3FC0123812230C0F08C01AD
:10502000408551856285738585E0769567955795AE
:1050300047958A95D1F7F42FFF70FF2E41E050E09D
:10504000BE016F5F7F4FC80101DF019719F090E04B
:1050500080E012C0F80180859185A285B3854F96C6
:10506000A11DB11D80879187A287B387F0E2FF9EC3
:10507000C00111248F509F4E2196E5E00C9462F3FD
:105080000F931F93CF93DF93FC012381222331F0F1
:1050900080E0DF91CF911F910F9108958B01EC017A
:1050A000FB018789803139F582E08B831D8A1E8A56
:1050B0001F8A188E808D918DB0E0A0E025E0880FCA
:1050C000991FAA1FBB1F2A95D1F7898B9A8BAB8B8F
:1050D000BC8B1A8F098F81E08983188619861A86FE
:1050E0001B861C821D821E821F82188A1C861D86BA
:1050F0001E861F86CECF803259F683E08B83428D89
:10510000538D648D758D4D8B5E8B6F8B788F9E016B
:105110002F5E3F4FC8010E947A1C8111DACFB8CFB1
:10512000EDE04E9FE02D1124ED50E60FF72FF11D1D
:10513000DC0190E09B3080F016962D913C91179702
:105140002F3F310519F010F02FE530E021939F5FDC
:1051500012969D3079F70895953028F014962D9188
:105160003C911597EDCF11962D913C911297E8CF78
:10517000FC0183858F738F3061F4828D938D892B31
:1051800041F420812F712150330B81E0253031050E
:1051900008F080E00895FC019C01255F3F4F80E00E
:1051A00080FB879587F99191890FE217F307C1F783
:1051B0000895CF93DF93EC01462F41706C857D8578
:1051C0008E859F857CDD882351F0888920E2829F2F
:1051D000C00111248F509F4EDF91CF91089590E030
:1051E00080E0FACFCF93DF93EC018B81882341F1EC
:1051F000898187FF21C061E0CE01DBDFFC01892BC3
:10520000F9F08081853EE1F08B81823040F489891C
:105210009A89AB89BC89848F958FA68FB78F8D892A
:105220009E89938F828F8D899E89AF89B88DB58B2A
:10523000A48B89818F778983F9DCDF91CF910895E1
:1052400081E0888380E0F9CFA4E0B0E0EAE2F9E20F
:105250000C9439F38C014B011A01DC0113968C91EB
:105260001397813009F0CCC011968C9181FFC8C092
:1052700082FDB3C05101D80118964D915D916D9199
:105280007C911B97A114B10409F416C159968D9114
:105290009C915A97FC0174807A946A017B0129E001
:1052A000F694E794D794C7942A95D1F77C207A0195
:1052B000F1E0FF22711020C0E114F104E9F414962A
:1052C0004D915D916D917C91179741155105610547
:1052D000710509F09BC055968D919D910D90BC91E3
:1052E000A02D0097A105B10509F0A9C0C8010E9431
:1052F0001B1D882309F484C0C12C82E0D82ECE184F
:10530000DF08AC14BD0408F46501D80159964D912D
:105310005C915A9714968D919D910D90BC91A02D02
:105320000297A109B109FA01258504C0880F991FC8
:10533000AA1FBB1F2A95D2F74685578560897189B8
:10534000840F951FA61FB71F9C01AD01270D311DAE
:10535000411D511D29013A01C11432E0D30609F063
:105360007CC08091F1129091F212A091F312B09151
:10537000F412481659066A067B0669F41092F9126F
:105380008FEF9FEFDC018093F1129093F212A093C4
:10539000F312B093F4128091FA129091FB12DC0197
:1053A000ED91FC910288F389E02D9401B301A201F3
:1053B0000995882329F1F80180859185A285B38517
:1053C0008C0D9D1DA11DB11D80879187A287B3877C
:1053D0008C0C9D1CAC18BD084ECFF8014189528938
:1053E0006389748980859185A285B385481759079B
:1053F0006A077B0709F43ECFC801A2DC81113ACFCE
:1054000081E0D8018C938FEF9FEF6CC09E012F5FDE
:105410003F4F0E946AC4882399F389819A81AB81A6
:10542000BC81F801218D328DF9012789203169F481
:10543000883FFFEF9F07A105B10508F057CFF8019E
:1054400084839583A683B78357CF883F2FEF920736
:10545000A2072FE0B20798F349CFE114F10429F530
:10546000F801408551856285738581899289A38978
:10547000B489481759076A077B07B8F0D7DB882338
:1054800009F4BECF81E08093F9124092F11250925C
:10549000F2126092F3127092F412A601B401C701E5
:1054A0008F509F4E0E9454F686CF41E0C301B20157
:1054B00006DC8111F2CFA4CFF80181899289A389FA
:1054C000B48984179507A607B70738F48181418B03
:1054D000528B638B748B80688183F801818183FD9B
:1054E00005C0C1012496E2E10C9455F3C8017ADEAF
:1054F0008111F7CF85CFCF93DF93EC0173DE1B8251
:10550000DF91CF910895CF93DF93EB01FC012381CD
:10551000211104C080E0DF91CF9108952250223004
:1055200028F48FE28883198281E0F5CF60E041DEC4
:10553000009781F3DC0160E080E09EE22D91203253
:1055400099F0883031F49E01260F311DF9019083C6
:105550006F5F9E01260F311DAD0141505109FA01C7
:105560004081F90140836F5F8F5F8B3039F7FE0117
:10557000E60FF11D1082D8CF40E050E0BA01E0CB39
:10558000ADE4B0E0E6ECFAE20C9439F31C013B0127
:105590002B965FAF4EAF2B97290128960FAF289718
:1055A000D901BC912C96BFAF2C9701E0E12CBB2315
:1055B00081F0F90101900020E9F731977F01E21AAB
:1055C000F30AC7010C966DE070E00E94F7F201E06B
:1055D000060FF301818D928DD1015A969C938E9383
:1055E0005997C301C9DF27961FAE279726961FAE8E
:1055F000269710E024961FAE249729961FAE299770
:10560000F12CEE2DF0E02E96FFAFEEAF2E97D301EA
:1056100018968D909D90AD90BC901B9751968D9152
:105620009D910D90BC91A02D88169906AA06BB06E7
:1056300008F026C265E0B694A794979487946A957B
:10564000D1F729968FAE2997C301DFDC6C01009753
:1056500011F480E0A3C0FC01E080EE2009F4EFC16A
:10566000F5EEEF1203C0F110D2CFEBC1F11001C083
:1056700010E02C96BFAD2C97B11195C04BE050E0D7
:10568000B6012B968EAD9FAD2B970E9447F6892BC6
:1056900009F0BDCF2996BFAD2997BF702696BFAF41
:1056A000269726964FAD2697242F30E0F901B5E0D6
:1056B000EE0FFF1FBA95E1F7DF01AF50BF4E1B960B
:1056C0008C91817131F028968FAD2897827109F005
:1056D000B2C1D10159968D919C915A974091F11286
:1056E0005091F2126091F3127091F4121C964D9346
:1056F0005D936D937C931F9726964FAD269750969A
:105700004C935097EF50FF4EC488D588F12CE12C74
:105710007601DD24CC245596CD92DD92ED92FC925B
:105720005897428D538D70E060E04C295D296E29B9
:105730007F2955964D935D936D937C935897A5E083
:10574000220F331FAA95E1F7D901AF50BF4E1B9628
:105750002C91287109F061C1848D958DA68DB78D2E
:10576000F101818B928BA38BB48B81E0838328968C
:105770008FAD28978F70F101818314821582168274
:10578000178210861186128613862896FFAD2897F9
:1057900081E0F4FF03C0C1010E94E7C4C35BDF4F97
:1057A000E2E10C9455F3C601E3DC2496EFAD2497B7
:1057B000E11133C0882309F42ACFE6FE06C0D601E2
:1057C0001D96BC912796BFAF27974E2D4F7109F4B8
:1057D0001ECF041708F41BCFF60185852796FFAD71
:1057E00027978F1314CFBE016F5F7F4FC60198DCE0
:1057F0002E964EAD5FAD2E97BE016F5F7F4FC201FB
:105800000E9489F621E024962FAF2497892B09F472
:10581000FECE24961FAE2497FACE8111FACFC60190
:10582000BADC27964FAD27978413F3CF33CF1F5F92
:1058300036C1D9011D968C91B701A60104C0440F51
:10584000551F661F771F8A95D2F7F30181889288CA
:10585000A388B488D501C401840F951FA61FB71F64
:10586000818B928BA38BB48BD90114968C91B0E170
:105870008B9FC0011124180F101708F41DC1269624
:10588000FFAD2697E0E2FE9FA0011124052E000C3B
:10589000660B770BC30154DA882309F4DACED12CD6
:1058A000C12C802F8150990B25969FAF8EAF2597E5
:1058B00030E2A32E41E2842E48E2942E9FEF900F17
:1058C00027969FAF2797BC2CC01608F0EACEF301AD
:1058D00080859185A285B38525E0B695A795979596
:1058E00087952A95D1F7F82FFF702696FFAF269758
:1058F000C3018BDB7C0125968EAD9FAD2597C81625
:10590000D9060CF063C0D701EA2D1D92EA95E9F79C
:1059100027961FAD27971C191F71EFE0D7011B9623
:10592000EC932B968EAD9FAD2B9735DCD7011D9652
:105930008C9380E4C11080E0812BF7018083FDE02F
:105940001F9F102D11241D50F20101900020E9F736
:105950003197BF0164197509F70130E020E077271E
:10596000E12EF12CA9014E0D5F1D46175707DCF4FF
:10597000440D551DDA018C91082E000C990B253031
:10598000E8F4928381832F5F3F4F32962D303105AB
:1059900049F781E08093F91249D9FFEFCF1ADF0A66
:1059A000811191CF56CE81E090E06417750714F015
:1059B00090E080E0919581959109E1CF2B3018F42A
:1059C00095838483E0CF97838683DDCFF7012A2DEB
:1059D00011922A95E9F78BE02B96EEADFFAD2B9750
:1059E000D70101900D928A95E1F7D70151969C92CB
:1059F0008E925097E0E0F8E01F96FC93EE931E978E
:105A000053969C928E92529759969C928E9258974A
:105A10005796FC93EE935697BCCF203161F49101D9
:105A20002F5E3F4F0E947A1C882329F084E0D10129
:105A300013968C939CCED10113961C920ACEF11032
:105A40001FC0111103C026968FAE26971F5FF12C41
:105A5000101312C08091F1129091F212A091F312E2
:105A6000B091F412F10184879587A687B787882DB6
:105A70008F70808BFF24F394D6018C918111C7CD58
:105A800028968FAD28978274823409F0E2CDF11008
:105A900006C029968FAD299726968FAF26971017A7
:105AA00008F0EDCEC301B1DA892B09F0C0CEC12CCC
:105AB00052E0D52EE12CF12CD30113968C91139743
:105AC000823009F4C6CD51968D919D910D90BC9177
:105AD000A02D803E9F4FAF41B10508F0BACDC30164
