:100000000C94131B0C944C1B0C944C1B0C944C1B0D
:100010000C944C1B0C944C1B0C944C1B0C944C1BC4
:100020000C944C1B0C9454BD0C944C1B0C944C1B0A
:100030000C944C1B0C940BD40C944C1B0C944C1B2C
:100040000C9471C40C944C1B0C940ABD0C944C1B66
:100050000C94FB5C0C94F15C0C944C1B0C944C1BAE
:100060000C944C1B0C944C1B0C944C1B0C944C1B74
:100070000C944C1B0C944C1B0C944C1B0C944C1B64
:100080000C944C1B0C944C1B0C944C1B084AD73BF7
:100090003BCE016E84BCBFFDC12F3D6C74319ABD57
:1000A00056833DDA3D00C77F11BED9E4BB4C3E917B
:1000B0006BAAAABE000000803F05A84CCDB2D44E6A
:1000C000B93836A9020C50B9918688083CA6AAAA6C
:1000D0002ABE000000803F004E414E494E4954590F
:1000E000494E46CDCCCC3D0AD7233C17B7D1387703
:1000F000CC2B329595E6241FB14F0A000020410019
:1001000000C84200401C4620BCBE4CCA1B0E5AAE62
:10011000C59D7400407A10F35A00A0724E18090071
:1001200010A5D4E80000E87648170000E40B54025C
:100130000000CA9A3B000000E1F505000080969897
:1001400000000040420F000000A0860100000010E7
:100150002700000000E80300000000640000000029
:10016000000A00000000000100000000002C76D80A
:1001700088DC674F0823DFC1DFAE59E1B1B796E5F0
:10018000E3E453C63AE651997696E8E6C28426EB54
:10019000898C9B62ED407C6FFCEFBC9C9F40F2BA67
:1001A000A56FA5F490055A2AF75C936B6CF9676DFF
:1001B000C11BFCE0E40D47FEF520E6B500D0ED9054
:1001C0002E0300943577050080841E080000204E21
:1001D0000A000000C80C333333330F986E128311BA
:1001E00041EF8D2114893BE65516CFFEE6DB18D191
:1001F000844B381BF77C1D901DA4BBE42420328463
:10020000725E228100C9F124ECA1E53D27434F4DE8
:100210004D554E49434154494F4E00445259525551
:100220004E004552524F525300494E464F004543EF
:10023000484F0053544F505045442E20005072698F
:100240006E7465722073746F707065642064756578
:1002500020746F206572726F72732E204669782049
:10026000746865206572726F7220616E64207573A8
:1002700065204D39393920746F207265737461724D
:10028000742E202854656D706572617475726520D6
:1002900069732072657365742E20536574206974C8
:1002A0002061667465722072657374617274696E20
:1002B00067290A004E6F20436865636B73756D2074
:1002C00077697468206C696E65206E756D62657201
:1002D0002C204C617374204C696E653A2000636871
:1002E00065636B73756D206D69736D617463682CE4
:1002F000204C617374204C696E653A20004C696E25
:1003000065204E756D626572206973206E6F742072
:100310004C617374204C696E65204E756D62657218
:100320002B312C204C617374204C696E653A20008F
:100330004D3131300053657269616C2073746174A2
:100340007573206D69736D617463680A00212120E3
:100350004B494C4C2063617573656420627920744D
:100360006F6F206D75636820696E6163746976656F
:100370002074696D65202D2063757272656E74201E
:10038000636F6D6D616E643A2000627573793A2017
:1003900070617573656420666F7220696E70757424
:1003A0000A00627573793A2070617573656420661E
:1003B0006F7220757365720A00627573793A2070E6
:1003C000726F63657373696E670A004D3630300073
:1003D000506C6561736520526573657400505249B5
:1003E0004E5445522048414C5445440025533A2030
:1003F0002553004B494C4C45442E20005072696EE9
:100400007465722068616C7465642E206B696C6C15
:1004100028292063616C6C6564210A006563686F3C
:100420003A004572726F723A000A4D6561737572D7
:10043000656420706F696E74733A0A0033783320F4
:100440006D6573682E205A206F66667365743A2056
:1004500000486F74656E6420746F6F20636F6C6406
:100460000A00206E6F7420656E74657265642E0AD2
:100470000050726F62696E6720506F696E7400255C
:10048000532025692F256900206F6620004D424CBE
:100490002047323920706F696E742000290A004AA3
:1004A000206F7574206F662072616E67652028303A
:1004B0002D00290A0049206F7574206F6620726133
:1004C0006E67652028302D004732384C30004D656E
:1004D00073682070726F62696E6720646F6E65006A
:1004E0004D6573682070726F62696E6720646F6E0D
:1004F000652E0A005374617274206D6573682070F4
:10050000726F62696E67207769746820224732399A
:10051000205331222066697273742E0A00473239E3
:100520005332004732384C300A4732395332006870
:100530006173206E6F20646174612E0A004D6573D3
:100540006820426564204C6576656C696E672000A2
:1005500053206F7574206F662072616E6765202866
:10056000302D35292E0A0020204D32303120580000
:100570004D617820416363656C65726174696F6E6B
:100580002028756E6974732F7332290020204D3234
:1005900030332058004D617820666565647261745F
:1005A00065732028756E6974732F732900205200BB
:1005B00020204D323034205000416363656C6572F9
:1005C0006174696F6E2028756E6974732F73322998
:1005D0002028503C7072696E742D616363656C3EB7
:1005E00020523C726574726163742D616363656C43
:1005F0003E20543C74726176656C2D616363656C5A
:100600003E2900204A0020540020530020204D3273
:100610003035204200416476616E63656420284273
:100620003C6D696E5F7365676D656E745F74696D4F
:10063000655F75733E20533C6D696E5F66656564EA
:10064000726174653E20543C6D696E5F74726176B0
:10065000656C5F66656564726174653E204A3C6ADC
:10066000756E635F6465763E290020440020490072
:1006700020204D333031205000486F74656E642067
:100680005049440020440020490020204D3330349C
:1006900020500042656420504944002E0A00206E1C
:1006A0006F742064697361626C65642E20536861A5
:1006B000726564207769746800496E73657274208E
:1006C00066696C616D656E7420616E642070726520
:1006D000737320627574746F6E0A00507265737361
:1006E00020627574746F6E20746F20686561742069
:1006F0006E6F7A7A6C650A00496E73657274206653
:10070000696C616D656E7420616E642070726573D2
:100710007320627574746F6E0A00203B00205500D0
:1007200020204D363033204C0046696C616D656E7B
:1007300074206C6F61642F756E6C6F61640020496A
:100740006E76616C69642065787472756465722078
:100750000047322F47332062616420706172616DFF
:1007600065746572730A00536C6565702E2E2E00D9
:100770004D65736820706F696E74206F7574206F9B
:10078000662072616E67650A00436C69636B207452
:100790006F20526573756D652E2E2E00616C736F20
:1007A00020656E61626C6564290A004E6F204D6F92
:1007B00076652E002569730025696D202569730013
:1007C0002569682025696D202569730025696420E5
:1007D0002569682025696D202569730025697920C0
:1007E000256964202569682025696D2025697300C5
:1007F0005072696E742074696D653A20006F6B00E9
:100800006F6666002E02290222021B020D02444579
:100810004255473A004D3131322053687574646F48
:10082000776E004D313133205300416E796375622C
:100830006963204D656761205345204F46462E0071
:10084000434F4E4649475F4558504F5254004D451F
:1008500041545041434B00434F4F4C45525F544528
:100860004D5045524154555245004348414D424533
:10087000525F54454D5045524154555245004241F6
:1008800042595354455050494E470041524353003A
:100890004D4F54494F4E5F4D4F44455300544845CA
:1008A000524D414C5F50524F54454354494F4E00B6
:1008B000455854454E4445445F4D323000435553EE
:1008C000544F4D5F4649524D574152455F55504C2C
:1008D0004F4144004C464E5F5752495445004C4FDF
:1008E0004E475F46494C454E414D45004155544F9A
:1008F0005245504F52545F53445F535441545553E3
:100900000053445F575249544500524550454154A5
:10091000005344434152440050524F4D50545F5392
:100920005550504F525400484F53545F414354491F
:100930004F4E5F434F4D4D414E445300454D455240
:1009400047454E43595F504152534552004341532E
:10095000455F4C494748545F4252494748544E45C9
:10096000535300544F47474C455F4C4947485453F5
:1009700000534F4654574152455F504F5745520020
:100980004255494C445F50455243454E54004C45F6
:1009900056454C494E475F44415441005A5F5052BE
:1009A0004F42450052554E4F5554004155544F4CFF
:1009B0004556454C005052494E545F4A4F420050F4
:1009C000524F4752455353004155544F5245504F93
:1009D00052545F54454D50004155544F5245504F6D
:1009E00052545F504F5300564F4C554D4554524949
:1009F0004300454550524F4D0042494E4152595FC8
:100A000046494C455F5452414E534645520053456A
:100A10005249414C5F584F4E5F584F464600464939
:100A2000524D574152455F4E414D453A4D61726CB2
:100A3000696E20322E302E392E3320284D617920D8
:100A4000313620323032322031383A31363A33378B
:100A50002920534F555243455F434F44455F5552FC
:100A60004C3A6769746875622E636F6D2F4D6172C1
:100A70006C696E4669726D776172652F4D61726C3B
:100A8000696E2050524F544F434F4C5F564552535E
:100A9000494F4E3A312E30204D414348494E455F33
:100AA000545950453A416E796375626963204D65CA
:100AB00067612053452045585452554445525F4381
:100AC0004F554E543A3120555549443A34333663E4
:100AD000616461352D616234352D343137392D39FA
:100AE0003836302D363433616562306139303065E7
:100AF0000A002F2F004D31343520533C696E646558
:100B0000783E206F7574206F662072616E67652075
:100B100028302D31290A00416363656C6572617468
:100B2000696F6E004665656472617465003F4A20B6
:100B30006F7574206F662072616E67652028302E95
:100B4000303120746F20302E33290A0020580020C5
:100B5000204D61783A2000200020204D696E3A2017
:100B600000203B200020204D323131205300536FB4
:100B7000667420656E6473746F70730046523A0039
:100B800020466C6F773A20004D424C2041646A75D4
:100B90007374205A0064697300656E0043290A006B
:100BA00061626C656420286D696E2074656D7020CB
:100BB00000436F6C6420657874727564657320619E
:100BC000726520004F4646004F4E0046696C616DCD
:100BD000656E742072756E6F757420004F46460AFC
:100BE0000046616465204865696768742000426555
:100BF00064204C6576656C696E6720004661696C9F
:100C0000656420746F20656E61626C652042656466
:100C1000204C6576656C696E670A004D65736820C7
:100C2000426564204C6576656C20646174613A0AA3
:100C300000496E76616C6964206D6573682E0A00E8
:100C40004D65736820706F696E74206F7574206FC6
:100C5000662072616E67650A004D34323120696E1C
:100C6000636F727265637420706172616D65746523
:100C7000722075736167650A00454550524F4D20DB
:100C80004F4B0A00496E76616C6964206578747216
:100C9000756465720A006F6B004361703A00436FC0
:100CA0006F6C696E672E2E2E004531202553002073
:100CB000573A0042656420436F6F6C696E672E2E51
:100CC0002E004265642048656174696E672E2E2E81
:100CD0000023646566696E652044454641554C5461
:100CE0005F00626564004B6420004B6920004B701C
:100CF0002000504944204175746F74756E652066FC
:100D0000696E697368656421205075742074686524
:100D1000206C617374204B702C204B6920616E64D1
:100D2000204B6420636F6E7374616E7473206672FF
:100D30006F6D2062656C6F7720696E746F20436FF2
:100D40006E66696775726174696F6E2E680A00500D
:100D50004944204175746F74756E65206661696CD5
:100D60006564212074696D656F75740A005049448B
:100D7000204175746F74756E65206661696C656479
:100D8000212054656D706572617475726520746F91
:100D90006F20686967680A00504944204379636C92
:100DA00065730025532025692F256900204B643A7F
:100DB0002000204B693A2000204B703A200020434D
:100DC0006C617373696320504944200A00204E6FA0
:100DD000206F76657273686F6F740A002054753ADD
:100DE0002000204B753A2000206D61783A200020C9
:100DF0006D696E3A200020643A20002062696173B8
:100E00003A200048656174696E672E2E2E005049A5
:100E100044204175746F74756E65207374617274CB
:100E20000A00504944204175746F74756E652066E0
:100E300061696C6564212054656D706572617475BB
:100E4000726520746F6F20686967680A00504944B2
:100E5000204175746F74756E65005049442041756A
:100E6000746F74756E65206661696C6564212042DB
:100E70006164206865617465722069640A00457266
:100E8000723A207574663820666F6E74206E6F74C7
:100E900020696E697469616C697A65642E004572B7
:100EA000723A207574663820666F6E74206E6F74A7
:100EB00020696E697469616C697A65642E00457297
:100EC000723A207574663820666F6E74206E6F7487
:100ED00020696E697469616C697A65642E002568A1
:100EE000753A25303268750025303268753A2530FC
:100EF00032687500253032687527253032687500F4
:100F0000256875642025303268753A253032687559
:100F10000042656400456E636C6F737572650020F6
:100F20002020202020200020202020002020202001
:100F300020202000657272001FE03FF03FF03FF07C
:100F40001FE01FE03FF03FF03FF00FC007800300BD
:100F50001FE0201020102010102010202010201042
:100F6000303008400480030001FE0006018008FCC8
:100F70004010FC201078202030102C00D02E31D0D2
:100F80002F7BD02F7BD02E31D02C00D020301010D2
:100F9000782010FC2008FC4006018001FE0001FEC4
:100FA000000601800986401387201787A02F87D06D
:100FB0002F03D02030102078102078102030102FF0
:100FC00003D02F87D01787A01387200986400601FA
:100FD0008001FE00022200044400044400022200BA
:100FE000011100FFFFCE40A8A42111101FFFF80837
:100FF000040424020273FFFFFFFFCE4020242010D0
:10100000101FFFF808040424020273FFFFFFFFC053
:101010004000202000101000080800040400020313
:10102000FFFF0222000444000444000222000111D8
:1010300000FFFFC04088A021111012220808000400
:1010400004000203FFFF80800000F3F0C180000174
:101050000A00A28000010200948000010200889E24
:101060003C7CF3E088A1428C0A0080BF42840A00E5
:1010700080A042840A0080A1428D0A00809E3E7CAE
:10108000F3F000000200000000003E000000256CAC
:101090006425636D00454550524F4D20566572736F
:1010A000696F6E204572726F7200454550524F4D08
:1010B00020496E646578204572726F720045455014
:1010C000524F4D20435243204572726F72003F00D1
:1010D00049676E6F726500526573657400496E6989
:1010E0007469616C697A6520454550524F4D0047DF
:1010F000414D45204F564552006F6F6F0000004C28
:101100006F6164206D6D00556E6C6F6164206D6D54
:10111000004D333033205531204525692053256952
:1011200000504944204175746F74756E65202A0023
:1011300020082046616374002008204D617800205B
:1011400008204D696E004F6666004F6E0041757451
:101150006F74656D70004D696E2054726176656CB8
:101160002056656C004D696E2056656C6F6369741E
:1011700079004D617820452056656C004D617820DE
:101180005A2056656C004D617820592056656C00D8
:101190004D617820582056656C004D6178204520BF
:1011A000416363656C004D6178205A20416363653B
:1011B0006C004D6178205920416363656C004D617E
:1011C00078205820416363656C0054726176656CC9
:1011D00020416363656C00526574726163742041E1
:1011E0006363656C00416363656C004520737465DF
:1011F00070732F6D6D005A2053746570732F6D6D71
:1012000000592053746570732F6D6D00582053740E
:101210006570732F6D6D00416476616E6365642047
:1012200053657474696E6773003F0043616E636554
:101230006C00496E697400496E697469616C697A01
:101240006520454550524F4D0046696C616D656E95
:10125000740054656D7065726174757265005374C5
:101260006570732F6D6D004A756E6374696F6E20C3
:1012700044657600416363656C65726174696F6E85
:101280000056656C6F6369747900436F6E666967B9
:1012900075726174696F6E00000C0F00FE07022505
:1012A00003BB017FFE08FE08FE050808060000409B
:1012B000F0C88888987810050808060000C0F888EB
:1012C00088888888F80505050600012030F8302058
:1012D0000508080600002070F820202020E00509FD
:1012E000090600FF2070A8A8B888887020070505A7
:1012F000070001D86C366CD80509090600FFF8A86C
:101300008888888888A8F8050A0A0600FE205050B8
:10131000505088A8A8887003030306000340A0402B
:10132000FFFFFFFFFFFFFFFFFFFFFFFFFFFFFFFFCD
:10133000FFFFFFFFFFFF0000000605FF0107070694
:10134000020080808080800080030303060105A0E6
:10135000A0A005060606000050F85050F8500509F8
:10136000090600FF2070A8A07028A87020050707B4
:10137000060000C8C810204098980507070600001E
:1013800040A0A040A8906801030306020580808069
:101390000309090601FF204040808080404020036F
:1013A00009090601FF8040402020204040800507B9
:1013B0000706000020A8702070A82005050506007B
:1013C000012020F820200203030601FFC040800511
:1013D0000101060003F8020202060100C0C0050771
:1013E000070600000810102040408005070706008F
:1013F00000708898A8C8887003070706010040C0DD
:1014000040404040E00507070600007088081020B3
:1014100040F8050707060000F80810300888700536
:10142000070706000010305090F810100507070657
:101430000000F880F00808887005070706000030F3
:101440004080F0888870050707060000F808101033
:1014500020202005070706000070888870888870A3
:1014600005070706000070888878081060020505E7
:10147000060100C0C000C0C00206060601FFC0C0D1
:1014800000C0408003050506010120408040200582
:101490000303060002F800F8030505060101804079
:1014A00020408005070706000070881020200020DB
:1014B0000507070600007088B8A8B8807005070700
:1014C000060000708888F8888888050707060000ED
:1014D000F04848704848F00507070600007088800B
:1014E00080808870050707060000F0484848484893
:1014F000F0050707060000F88080F08080F80507F7
:1015000007060000F88080F080808005070706004D
:10151000007088808098887005070706000088881A
:1015200088F8888888030707060100E040404040AB
:1015300040E0050707060000381010101090600505
:1015400007070600008890A0C0A09088050707063E
:101550000000808080808080F805070706000088F2
:10156000D8A8888888880507070600008888C8A842
:101570009888880507070600007088888888887022
:10158000050707060000F08888F0808080050707BF
:1015900006000070888888A8906805070706000084
:1015A000F08888F0A0908805070706000070888002
:1015B00070088870050707060000F820202020200A
:1015C0002005070706000088888888888870050736
:1015D0000706000088888888505020050707060005
:1015E0000088888888A8A850050707060000888812
:1015F0005020508888050707060000888850202062
:101600002020050707060000F80810204080F80396
:1016100009090601FFE080808080808080E0050766
:101620000706000080404020101008030909060149
:10163000FFE020202020202020E0050303060005F5
:101640002050880501010600FEF80303030601058A
:101650008040200505050600007008788878050799
:10166000070600008080F0888888F00505050600E0
:1016700000708080887005070706000008087888D9
:101680008888780505050600007088F080700507D9
:1016900007060000304840E04040400507070600CC
:1016A000FE7088888878087005070706000080802B
:1016B000F0888888880307070601004000C0404082
:1016C00040E00409090601FE1000301010101090CF
:1016D0006005070706000080808890E09088030777
:1016E00007060100C04040404040E00505050600F7
:1016F00000D0A8A8A8A8050505060000B0C88888DD
:1017000088050505060000708888887005070706AB
:1017100000FEF0888888F080800507070600FE78C4
:10172000888888780808050505060000B0C880800C
:101730008005050506000078807008F0050707069B
:1017400000002020F820202018050505060000884C
:101750008888986805050506000088888850200557
:1017600005050600008888A8A850050505060000A4
:1017700088502050880507070600FE88888850207A
:101780004080050505060000F8102040F80309090F
:101790000601FF20404040804040402001090906EA
:1017A00002FF80808080808080808003090906019C
:1017B000FF80404040204040408005030306000277
:1017C00048A890FF554E4C4F41442046494C414D4E
:1017D000454E54004C4F41442046494C414D454EE6
:1017E000540046494C414D454E54204348414E47D4
:1017F00045005045544700504C41003F004E65782D
:101800007420436F726E657200446F6E65004E65A2
:101810007874004C6576656C696E6720446F6E6500
:1018200021004D6F7665205A004732395332004E01
:1018300065787420506F696E74002569202F20250B
:101840007500473239533100473239533200436C07
:1018500069636B20746F20426567696E00486F6D25
:10186000696E672058595A0053746F72652053652A
:101870007474696E6773004C6F616420536574748F
:10188000696E677300426564205472616D6D696EA4
:101890006700426564205A004661646520486569B6
:1018A000676874004F6666004F6E00426564204CA6
:1018B0006576656C696E67004C6576656C2042657F
:1018C00064004D6F74696F6E00426564004E6F7AFC
:1018D0007A6C650046616E20537065656400436FE5
:1018E0006E66696775726174696F6E0052657374B4
:1018F0006F72652044656661756C7473004C6F612E
:10190000642053657474696E67730053746F7265F5
:101910002053657474696E677300536F756E64004D
:1019200050726568656174202420436F6E66004FB5
:101930006666004F6E0052756E6F75742053656E4B
:10194000736F7200416476616E63656420536574E1
:1019500074696E6773004D61696E004D37303220D7
:10196000542564004D363030204230205425640028
:101970004D373032203B2564004D3730312054251F
:1019800064004368616E67652046696C616D656ED1
:1019900074005072656865617420437573746F6D6F
:1019A00000507265686561742024004261636B00B9
:1019B0004D363030423000436F6E74696E7565008D
:1019C0004F6666004F6E0052756E6F7574205365DA
:1019D0006E736F72005075726765206D6F7265006F
:1019E000524553554D45204F5054494F4E533A00A0
:1019F0005052494E54205041555345440020204EEA
:101A00006F7A7A6C653A20005061726B696E672E4E
:101A10002E2E0000005761697420666F720066699F
:101A20006C616D656E74206368616E676500746FCC
:101A3000207374617274005761697420666F72005C
:101A400066696C616D656E7420756E6C6F616400A3
:101A5000004E6F7A7A6C652068656174696E670004
:101A6000506C6561736520776169742E2E2E0000BD
:101A7000507265737320627574746F6E00746F209A
:101A800068656174206E6F7A7A6C650000496E73C8
:101A90006572742066696C616D656E7400616E6458
:101AA00020707265737320627574746F6E00746F4A
:101AB00020636F6E74696E75650057616974206686
:101AC0006F720066696C616D656E74206C6F616425
:101AD0000000507265737320427574746F6E0074E9
:101AE0006F20726573756D65207072696E74000089
:101AF0005761697420666F72207072696E74007429
:101B00006F20726573756D652E2E2E00005761690A
:101B10007420666F720066696C616D656E7420700A
:101B20007572676500003132300035004245443A35
:101B3000204550434F53203130304B0052756E6179
:101B40007761792057617463683A204F4E004D6188
:101B5000782054656D7000323535004D696E205423
:101B6000656D7000350045313A204550434F532094
:101B70003130304B005053550047656E65726963D4
:101B80000050726F746F636F6C00312E30004261D1
:101B9000756400323530303030004D656C7A692024
:101BA00028437265616C69747929004D65736820FA
:101BB0004C6576656C696E6700457874727564650E
:101BC00072730031006D61726C696E66772E6F7290
:101BD0006700416E796375626963204D65676120B6
:101BE000534500323032312D31322D323500322E14
:101BF000302E392E33004D61726C696E004272696D
:101C0000636B6F757400546865726D6973746F727D
:101C10007300426F61726420496E666F0050726992
:101C20006E74657220496E666F004D61696E003F8B
:101C3000004E4F005945530041626F757420507239
:101C4000696E746572004368616E67652046696CF1
:101C5000616D656E7400436F6E666967757261745D
:101C6000696F6E0054656D706572617475726500A0
:101C70004D6F74696F6E0054756E6500496E666FC6
:101C80002053637265656E002100486F74656E6451
:101C900020746F6F20636F6C64004261636B00504F
:101CA000726F63656564004732385A0047323859AD
:101CB00000486F6D65204000473238580041757408
:101CC0006F20486F6D6500473238004D6F74696F43
:101CD0006E0044697361626C652053746570706551
:101CE0007273004D383400426564204C6576656C33
:101CF000696E6700486F6D696E67004D61696E00BF
:101D000050726568656174202420426564005072D9
:101D10006568656174202420456E640054656D70AB
:101D20006572617475726500F717F217436F6F6C17
:101D3000646F776E00507265686561742024004698
:101D4000616E20537065656400426564004E6F7A71
:101D50007A6C65004D61696E0042616279737465E9
:101D600070205A00466C6F770046616E2053706594
:101D7000656400426564004E6F7A7A6C6500426566
:101D800064205A005370656564004D61696E0000FF
:101D9000002100240027002A006F70656E00545255
:101DA00049474745524544003A200066696C616DD9
:101DB000656E74007A5F6D696E00795F6D696E00A3
:101DC000785F6D696E005265706F7274696E67201E
:101DD000656E6473746F70207374617475730A0038
:101DE00020746F6F206C6F6E6720657874727573E6
:101DF000696F6E2070726576656E7465640A002086
:101E0000636F6C6420657874727573696F6E20708F
:101E1000726576656E7465640A00486F6D6520258D
:101E20007325732573204669727374000000A0C087
:101E3000000020C1000000005761726E696E673AB1
:101E400020486F6D696E672042756D702044697619
:101E500069736F72203C20310A00020204000061A5
:101E6000430000664300007A430000A0400000A049
:101E70004000000040000000010000000100008060
:101E800000555555000000400033333300AAAA2AFC
:101E9000004992240000002000C7711C0099991984
:101EA00000D1451700555515003BB11300244912C8
:101EB0000011111100000010000F0F0F00E3380E89
:101EC0000043790D00CCCC0C00C3300C00E8A20B11
:101ED0000064210B00AAAA0A00703D0A009DD809DF
:101EE00000427B090092240900DCD308008888089E
:101EF000001042080000000800F0C10700878707B3
:101F00000075500700711C07003EEB0600A1BC06DF
:101F1000006990060066660600703E0600611806BD
:101F20000017F4050074D105005BB00500B2900500
:101F300000627205005555050078390500B81E0588
:101F400000050505004EEC040087D40400A1BD0483
:101F50000090A7040049920400C17D0400EE6904CA
:101F600000C7560400444404005C32040008210405
:101F70000041100400000004003FF00300F8E003FB
:101F80000026D20300C3C30300CCB503003AA80364
:101F9000000A9B0300388E0300C08103009F750375
:101FA00000D0690300505E03001D53030034480352
:101FB00000913D03003333030016290300381F034B
:101FC0000097150300300C0300030303000BFA0213
:101FD0000049F10200BAE802005CE002002DD802DC
:101FE000002DD0020059C80200B0C0020031B90271
:101FF00000DAB10200AAAA0200A0A30200BC9C025F
:1020000000FA9502005C8F0200DF880200828202E3
:1020100000457C02002776020027700200436A0216
:10202000007C640200D05E02003F590200C85302E7
:1020300000206C696D6974656420746F2000204D08
:1020400061782000FFFDFCFAF8F6F4F2F0EEECEA1D
:10205000E9E7E5E3E1E0DEDCDAD9D7D5D4D2D0CFC9
:10206000CDCBCAC8C7C5C3C2C0BFBDBCBAB9B7B65D
:10207000B4B3B2B0AFADACAAA9A8A6A5A4A2A1A0C2
:102080009E9D9C9A99989795949392908F8E8D8B04
:102090008A8988878684838281807F7E7D7B7A7926
:1020A0007877767574737271706F6E6D6C6B6A6928
:1020B0006867666564636261605F5E5D5C5B5A5918
:1020C00058585756555453525150504F4E4D4C4BF3
:1020D0004A4A4948474646454443424241403F3EBA
:1020E0003E3D3C3B3B3A3938383736353534333270
:1020F000323130302F2E2E2D2C2B2B2A2929282718
:102100002726252524232322212120201F1E1E1DB2
:102110001C1C1B1B1A191918181716161515141341
:102120001312121111100F0F0E0E0D0D0C0C0B0AC5
:102130000A0909080807070606050504040303023F
:102140000201000000005C4300005C4300007A4391
:102150000000A0C0000020C100000000536574749E
:10216000696E67732053746F72656400290A0020DA
:1021700062797465733B20637263200053657474E5
:10218000696E67732053746F72656420280048611C
:102190007264636F6465642044656661756C742065
:1021A00053657474696E6773204C6F616465640075
:1021B00020286D6D2900203B204C6576656C696E8A
:1021C00067200020204D3432302053004D65736865
:1021D00020426564204C6576656C696E6700204618
:1021E0000020420020480020204D3134352053008B
:1021F0004D6174657269616C2068656174757020E9
:10220000706172616D657465727300203B20536567
:102210006E736F72200020204D34313220530046FF
:10222000696C616D656E742072756E6F7574207364
:10223000656E736F72002020473239205334205A64
:1022400000204A0020204732392053332049002003
:10225000204D3134392043203B20556E6974732062
:10226000696E2043656C736975730A0054656D70FF
:102270006572617475726520556E697473002020F3
:10228000473231203B004C696E65617220556E69A2
:10229000747300454550524F4D20646174617369F9
:1022A0007A65206572726F722E0A00290A00206218
:1022B000797465733B2063726320002073746F72BE
:1022C00065642073657474696E67732072657472D7
:1022D0006965766564202800202863616C63756CED
:1022E0006174656429210A0020213D200045455084
:1022F000524F4D20435243206D69736D6174636882
:10230000202D202873746F72656429200020536982
:102310007A653A2000496E6465783A20000000969C
:1023200043000096430000A0400000C841AEC7A48F
:1023300042AEC7A4420000C8430080C043F401007D
:1023400000F401000064000000E8030000204D617B
:10235000726C696E3D563836290A00454550524F19
:102360004D2076657273696F6E206D69736D61744F
:1023700063682028454550524F4D3D001FFFFFFF29
:10238000FFFFFF600000000001FF400000000000B0
:10239000FF8000000000007F83CF00000C303F87EB
:1023A000FF80000C301F867980000C000F8C30C736
:1023B000838C30E78C30CFC7CC31F38C30DCECEC45
:1023C00033B98C30D86C6C33198C30D06C0C331919
:1023D0008C30D86C0C33198C30DC6C0E3B198C3083
:1023E000CF7C079F198C30C77C038F1940000000F9
:1023F000000002600000000000061FFFFFFFFFFF5B
:10240000F81FFFFFFFFFFFFF600000000001FF401B
:102410000000000000FF8000000000007F83CF006C
:10242000000C303F87FF80000C301F867980000C45
:10243000000F8C30C7838C30078C30CFC7CC300373
:102440008C30DCECEC30018C30D86C6C30018C3092
:10245000D06C0C30018C30D86C0C30018C30DC6CC2
:102460000E38018C30CF7C079C018C30C77C038CEC
:102470000140000000000002600000000000061F94
:10248000FFFFFFFFFFF81FFFFFFFFFFFFF600000E0
:10249000000001FF400000000000FF80000000007D
:1024A000007F83CF00000C003F87FF80000C001FDF
:1024B000867980000C000F8C30C7838C00078C302D
:1024C000CFC7CC00038C30DCECEC00018C30D86C36
:1024D0006C00018C30D06C0C00018C30D86C0C007E
:1024E000018C30DC6C0E00018C30CF7C0780018CBD
:1024F00030C77C0380014000000000000260000043
:10250000000000061FFFFFFFFFFFF81FFFFFFFFF98
:10251000FFFF600000000001FF400000000000FF1E
:102520008000000000007F83CF000000003F87FF95
:10253000800000001F8679800000000F8C30C78368
:102540008000078C30CFC7C000038C30DCECE0008B
:10255000018C30D86C6000018C30D06C0000018C94
:1025600030D86C0000018C30DC6C0000018C30CF66
:102570007C0000018C30C77C00000140000000009E
:102580000002600000000000061FFFFFFFFFFFF8D1
:102590001FFFFFFFFFFFFF600000000001FF400082
:1025A00000000000FF8000000000007F83CF0000DB
:1025B00000003F87FF800000001F86798000000038
:1025C0000F8C30C7800000078C30CFC00000038C18
:1025D00030DCE00000018C30D8600000018C30D08D
:1025E000600000018C30D8600000018C30DC60009D
:1025F00000018C30CF700000018C30C770000001EA
:1026000040000000000002600000000000061FFF04
:10261000FFFFFFFFF81FFFFFFFFFFFFF600000004D
:102620000001FF400000000000FF800000000000EB
:102630007F83CF000000003F87FF800000001F86DF
:1026400079800000000F8C30C0000000078C30C083
:10265000000000038C30C0000000018C30C000007E
:1026600000018C30C0000000018C30C0000000016F
:102670008C30C0000000018C30C0000000018C30A4
:10268000C0000000014000000000000260000000E7
:102690000000061FFFFFFFFFFFF81FFFFFFFFFFF08
:1026A000FF600000000001FF400000000000FF800C
:1026B00000000000007F8000000000003F8000005C
:1026C0000000001F8000000000000F8000000000DC
:1026D00000078000000000000380000000000001EF
:1026E0008000000000000180000000000001800068
:1026F00000000000018000000000000180000000D8
:102700000000018000000000000140000000000007
:1027100002600000000000061FFFFFFFFFFFF8241B
:10272000F4D43050C38E20C2A24017828B70111295
:102730007A910D816CD90AA861E108C758660761D2
:102740005143061E4B5D05C145A7041A41110409FA
:102750003D9803713931034036DB0265339102D471
:10276000305402802E1D02632CEE01752AC501B083
:1027700028A001102781018F2564012B244B01E043
:10278000223401AC211F018D200D01801FFC00842B
:102790001EED00971DDF00B81CD200E61BC600200E
:1027A0001BBC00641AB200B219A8000A19A0006A82
:1027B000189900D117910040178B00B5168400318D
:1027C000167E00B31579003A157300C7146F0058D0
:1027D000146A00EE1366008813630025135E00C7B9
:1027E000125B006C12570015125400C11151007099
:1027F000114F0021114B00D61049008D10470046A3
:1028000010440002104200C00F4000800F3E004202
:102810000F3C00060F3B00CB0E3800930E37005CD8
:102820000E3500270E3400F30D3200C10D3100903B
:102830000D3000600D2E00320D2D00050D2C00D93D
:102840000C2B00AE0C2900850C29005C0C270035F0
:102850000C27000E0C2600E80B2400C40B2400A05B
:102860000B23007D0B23005A0B2100390B2100188C
:102870000B2000F80A1F00D90A1E00BB0A1E009D8B
:102880000A1D00800A1D00630A1C00470A1B002C59
:102890000A1B00110A1A00F7091A00DD091900C401
:1028A000091900AB091900920917007B0918006388
:1028B0000917004C09160036091600200916000AEF
:1028C000091500F5081500E0081400CC081400B83C
:1028D000081400A4081400900813007D0812006B6F
:1028E000081300580812004608120034081100238B
:1028F0000811001208110001081100F0071000E093
:10290000071000D0071000C0071000B0070F00A18B
:1029100007100091070E0083070F0074070F006572
:10292000070E0057070E0049070E003B070D002E4B
:10293000070E0020070D0013070D0006070D00F914
:10294000060C00ED060D00E0060C00D4060C00C8D5
:10295000060C00BC060C00B0060C00A4060B009987
:10296000060C008D060B0082060B0077060B006C30
:10297000060B0061060A0057060B004C060A0042CF
:10298000060A0038060A002E060A0024060A001A63
:10299000060A001006090007060A00FD050900F4F2
:1029A000050900EB050900E2050900D9050900D079
:1029B000050900C7050900BE050900B5050800ADF9
:1029C000050800A50509009C050800940508008C71
:1029D000050800840508007C050800740508006CE3
:1029E000050700650508005D050700560508004E4F
:1029F00005070047050700400508003805070031B6
:102A00000507002A050700230507001C0506001618
:102A10000507000F0507000805060002050700FB73
:102A2000040600F5040700EE040600E8040600E2D0
:102A3000040700DB040600D5040600CF040600C925
:102A4000040600C3040600BD040600B7040600B176
:102A5000040500AC040600A6040600A00405009BC3
:102A600004060095040500900406008A040500850C
:102A7000040500800406007A040500750405007052
:102A80000405006B04050066040500610405005C94
:102A900004050057040500520405004D04050048D4
:102AA000040500430405003E0404003A0405003513
:102AB000040500300404002C04050027040400234E
:102AC0000405001E0404001A040400160405001185
:102AD0000404000D040400090405000404040000BB
:102AE000040400FC030400F8030400F4030400F0F1
:102AF000030400EC030400E8030400E4030400E022
:102B0000030400DC030400D8030400D4030400D051
:102B1000030400CC030400C8030300C5030300241E
:102B2000F404D9201BC40C5C0E9804C4095F026530
:102B3000077101F405F900FB04B30048048700C1E4
:102B40000369005803550003034500BE023A0084A0
:102B500002310053022A002902250004022000E469
:102B6000011C00C8011900AF01170098011400846E
:102B7000011300710110006101100051010E0043AA
:102B8000010D0036010B002B010B0020010B00157D
:102B90000109000C01090003010800FB000800F313
:102BA000000800EB000700E4000600DE000600D885
:102BB000000600D2000600CC000500C7000500C2D8
:102BC000000500BD000400B9000400B5000400B118
:102BD000000400AD000400A9000400A5000300A249
:102BE0000003009F0004009B000300980003009571
:102BF00000020093000300900003008D0002008B90
:102C000000030088000200860002008400030081A7
:102C10000002007F0002007D0002007B00020079BC
:102C200000020077000100760002007400020072CA
:102C3000000100710002006F0002006D0001006CD5
:102C40000002006A000100690002006700010066DE
:102C500000010065000100640002006200010061E3
:102C6000000100600001005F0002005D0001005CE7
:102C70000001005B0001005A0001005900010058EA
:102C800000010057000100560001005500010054EA
:102C900000010053000000530001005200010051E8
:102CA000000100500001004F0001004E0000004EE6
:102CB0000001004D0001004C0001004B0000004BE2
:102CC0000001004A000100490001004800000048DE
:102CD00000010047000100460000004600010045D9
:102CE00000000045000100440001004300000043D3
:102CF00000010042000000420001004100000041CC
:102D0000000100400001003F0000003F0001003EC4
:102D10000000003E0001003D0000003D0001003CBD
:102D20000000003C0000003C0001003B0000003BB4
:102D30000001003A0000003A0001003900000039AB
:102D400000010038000000380000003800010037A2
:102D50000000003700010036000000360000003699
:102D6000000100350000003500000035000100348E
:102D70000000003400000034000100330000003384
:102D80000000003300010032000000320000003279
:102D9000000100310000003100000031000100306E
:102DA00000000030000000300001002F0000002F64
:102DB0000000002F0000002F0001002E0000002E58
:102DC0000000002E0001002D0000002D0000002D4D
:102DD0000000002D0001002C0000002C0000002C41
:102DE0000000002C0001002B0000002B0000002B35
:102DF0000000002B0001002A0000002A0000002A29
:102E00000000002A0001002900000029000000291C
:102E1000000000290000002900010028000000280F
:102E20000000002800000028000000280001002702
:102E300000000027000000270000002700000027F6
:102E400000010026000000260000002600000026E9
:102E500000000026000100250000002500000025DC
:102E600000000025000000250000002500010024CE
:102E700000000024000000240000002400000024C2
:102E800000010023000000230000002300000023B5
:102E900000000023000000230000002300010022A6
:102EA000000000220000002200000022000000229A
:102EB000000000220001002100000021000000218C
:102EC000000000210000002100000021000000217E
:102ED0000001002000000020000000200000002071
:102EE0000000002000000020000000200000002062
:102EF0000001001F0000001F0000001F0000001F55
:102F00000000001F0000001F0000001F0001001E45
:102F10000000001E0000001E0000001E000000391E
:102F20003000003325000087190000B00F0000DBDF
:102F3000080000BD040000740200003F01000020F2
:102F4000436F756E7420583A004265640045310045
:102F50004500626564002C2073797374656D20737D
:102F6000746F7070656421204865617465725F4993
:102F7000443A200048656174696E67204661696C57
:102F800065640048656174696E67206661696C6597
:102F900064004572723A204D415854454D50004DE1
:102FA000415854454D502074726967676572656475
:102FB000004572723A204D494E54454D50004D49DE
:102FC0004E54454D502074726967676572656400A0
:102FD000544845524D414C2052554E41574159009D
:102FE000546865726D616C2052756E61776179000D
:102FF000202F002042403A0020403A0020573A005B
:10300000020020000000000000000000000000009E
:103010000000DC00000000000000000000000000D4
:103020000000EF00000000000000000000000000B1
:103030000001F7E0000000000000000000000000B8
:103040000003FBF000000000000000000000000092
:103050000003FCFC00000000000000000000000075
:103060000007FF7E000000000000000000000000DC
:103070000007FFBF00008080EE0E1B070E338303A6
:10308000B00FFFDF8000C0C0E71C7BC70E33C30753
:10309000B80FFFEFC001C0E0E73CFBC70E33E30F02
:1030A0003C1FFFF7E000E078E338E0870E30E30CE8
:1030B000001FFFFBF002E03CE071C0070E30E31C94
:1030C000003FFFF43002709EE0E1C0070E33C31CE6
:1030D000007FFFEFC00770CFE0E1C0070E33C31CD5
:1030E000003FFFEFF00638E7E0C1C0070E30231CB9
:1030F000001FFFDFE00EF8E3E0C0E0070E30E31C46
:10310000001FFFBFC00CFCE0E0C0F1C79C33E30F21
:103110001C0FFF7F801C0CE060C07BC39C33C30787
:10312000BC07FF7F00180EE020C03B819033830373
:10313000B007FEFE000000000000000000000000DC
:103140000003FDFC00000000000000000000000083
:103150000001FBF80000000000000000000000007B
:103160000001F7F000000000000000000000000077
:103170000000F7C000000000000000000000000098
:1031800000006E00000000000000000000000000D1
:1031900000005000000000000000000000000000DF
:1031A000006D61726C696E66772E6F726700322EE9
:1031B000302E392E33009A26152690250B2586248D
:1031C00001247C2370012C0190012701B001220110
:1031D000C0011D01F00118011002130130020E019F
:1031E0006002090190020401C002FF000003FA001E
:1031F0004003F5008003F000D003EB002004E6005C
:103200007004E100E004DC004005D700C005D200F6
:103210004006CD00D006C8008007C3003008BE00BD
:10322000F008B900C009B400B00AAF00B00BAA00A2
:10323000D00CA500000EA000500F9B00C0109600FF
:103240005012910000148C00C0158700B017820046
:10325000B0197D00D01B7800001E730040206E0066
:1032600090226900F024640040275F0090295A00F2
:10327000E02B5500102E500020304B00103246003D
:10328000E033410090353C00103737007038320091
:10329000A0392D00B03A2800A03B2300603C1E005E
:1032A000103D1900903D1400103E0F00703E0A00C2
:1032B000C03E0500003F0000403FFBFF803FF6FF9F
:1032C000C03FF1FF2020506C616E6E6572427566E2
:1032D00066657242797465733A20002046726565AE
:1032E000204D656D6F72793A200020436F6D7069D3
:1032F0006C65643A204D61792031362032303232AB
:103300000A00204C61737420557064617465643ADE
:1033100020323032312D31322D3235207C20417532
:1033200074686F723A20284E6575726F706C616EAA
:10333000742C20416E794375626963204D65676125
:1033400020534520696E6C2046696C616D656E7412
:103350002053656E736F72204558542D4132290AEF
:10336000004D61726C696E20322E302E392E330A78
:103370000020536F667477617265205265736574BF
:103380000A00205761746368646F67205265736533
:10339000740A002042726F776E206F757420526538
:1033A0007365740A002045787465726E616C2052F2
:1033B000657365740A00506F77657255700A007303
:1033C000746172740A00456E6473746F70730025C3
:1033D0005320256320256320256320256300205A80
:1033E0003A0020593A0020583A00656E6473746FB1
:1033F0007073206869743A200000002200250028BC
:10340000002B00020202020202020204040404046D
:103410000404040303030303030303010101010183
:10342000010101010204081020408001020408107B
:1034300020408001020408102040808040201008B5
:10344000040201000000010200090A00000000045B
:10345000030807000000000000000000000000005A
:10346000000000004D6F76652025736D6D004D6F77
:10347000766520302E316D6D004D6F766520316D93
:103480006D004D6F76652031306D6D004D6F766546
:103490002041786973004D6F7665204578747275A8
:1034A000646572004D6F7665205A004D6F76652019
:1034B00059004D6F7665205800486F6D696E672022
:1034C0004661696C656400FFFFFF220A00556E6B60
:1034D0006E6F776E20636F6D6D616E643A202200AF
:1034E000204500205A0020590020204D3932205814
:1034F0000053746570732070657220756E69740076
:103500003B20004572726F722077726974696E6732
:1035100020746F20454550524F4D210A00DB0FC9E2
:103520003F45BCDA3F8FB30240FCF0274056946120
:1035300040FE4B9B4084A5D840E0231841346A5696
:1035400041E859974164DBD5416E271742B4B7551E
:1035500042CE1A9742C8AED542B5885A43D40684A3
:10356000BFA65FA7BF7443E0BF10B11AC01C2C58A0
:10357000C0E8F697C0B849D6C04E4E17C124D355FF
:10358000C1802497C1A0B5D5C1121A17C244AE5547
:10359000C2781797C26CACD5C267885AC320746FC3
:1035A0006F206C6F6E6720657874727573696F6ECB
:1035B0002070726576656E7465640A0020636F6CB6
:1035C0006420657874727573696F6E2070726576A9
:1035D000656E7465640A0020453A00205A3A00205E
:1035E000593A00583A006F6B0A00526573656E6471
:1035F0003A2000416E796375626963204D656761A9
:103600002053452052656164792E005072696E74B2
:10361000696E672E2E2E005072696E74205061758F
:103620007365640093E611241FBECFEFD0E4DEBFC4
:10363000CDBF84B78093AD1014BE0FB6F894A89593
:1036400080916000886180936000109260000FBEDE
:1036500012E0A0E0B1E0ECECF3EF01E00BBF02C040
:1036600007900D92AA3AB107D9F720E1AAEAB2E091
:1036700001C01D92AD3AB207E1F71BE1C3E1DBE106
:1036800004C02197FE010E9482F6C231D107C9F71A
:103690000E9407E70C94E4F90C9400008F929F922B
:1036A000AF92BF92CF92DF92EF92FF926B017C01BB
:1036B00020E030E0A9010E94B7EF87FDC3C06DEBA9
:1036C00077E386E095E3A70196010E94D5F66B01AA
:1036D0007C0120E030E0A9010E94B7EF87FFB7C06E
:1036E000C701B601905820E030E040E251E40E946A
:1036F0001CF020E030E040E251E40E941CF020E0A9
:1037000030E040EA50E40E94D5F620E030E040E2AC
:1037100051E40E94B1F70E9419F86B017C0160E24C
:1037200080EAC81686E8D80681E0E806F1048CF045
:10373000C701B60120EA36E841E050E00E9407F6F2
:10374000CA01B9012AE030E040E050E00E9407F6EB
:10375000605D60932F0560E280E1C81687E2D806BD
:10376000E104F1048CF0C701B60120E137E240E04A
:1037700050E00E9407F6CA01B9012AE030E040E0BB
:1037800050E00E9407F6605D6093300560E288EECD
:10379000C81683E0D806E104F1048CF0C701B60135
:1037A00028EE33E040E050E00E9407F6CA01B9017C
:1037B0002AE030E040E050E00E9407F6605D609350
:1037C000310560E284E6C816D104E104F1048CF00E
:1037D000C701B60124E630E040E050E00E9407F661
:1037E000CA01B9012AE030E040E050E00E9407F64B
:1037F000605D609332058AE0882E912CA12CB12C5B
:10380000C701B601A50194010E9407F66B01CA0128
:10381000B901A50194010E9407F6605D609333052C
:103820008EE28093340580E3C80EC09235058FE2A6
:1038300095E0FF90EF90DF90CF90BF90AF909F907A
:103840008F9008956DEB77E386E095EB3CCF20E019
:1038500030E040E251E4C701B60149CFCF93DF9396
:10386000EC01CB01BA010E94BDEF20E030E04AE755
:1038700054E40E94B1F7688379838A839B83DF9144
:10388000CF910895CF93DF93EC01CB01BA010E9451
:10389000BDEF20E030E040E251E40E94B1F76883E0
:1038A00079838A839B83DF91CF9108950E94BDEF36
:1038B00020E030E040E251E40E94B1F7EFCECF9338
:1038C000DF93EC01CB01BA010E94BDEF2AE037ED96
:1038D00043E25DE30E94B1F70E941EF8688379839A
:1038E0008A839B83DF91CF910895CF93DF93EC017F
:1038F000CB01BA010E94BDEF2AE037ED43E25DE360
:103900000E94B1F7688379838A839B83DF91CF918B
:103910000895CF93DF93EC01CB01BA010E94BDEF74
:10392000688379838A839B83DF91CF910895CF93B6
:10393000DF93EC01CB01BA010E94BDEF688379836C
:103940008A839B83DF91CF910895CF93DF93EC011E
:10395000CB01BA010E94BDEF20E030E048EC52E418
:103960000E94B1F7688379838A839B83DF91CF912B
:103970000895CF93DF93EC01CB01BA010E94BDEF14
:103980000E9419F879836883DF91CF910895FC0133
:1039900084910895FC018081089580E095E29093E0
:1039A000E1048093E0048CE491E09093E50480933B
:1039B000E40480EC9EEF9093E3048093E204909102
:1039C000DC0480E2890F863740F080EF890F20E425
:1039D00031E03093E3042093E20490E0982F8827AD
:1039E0009093DF048093DE048FEF8093DD040895CD
:1039F000FC01A081B1811C92A281B3818C918F5F67
:103A00008C930280F381E02D90818CE0989F800D53
:103A10001124E6EAFFE013AE84AF0895009751F059
:103A2000FC0180E09191992331F0907C9038D1F3A2
:103A30008F5FF8CF80E00895119800C087FD43C0E4
:103A4000419800C0119A00C000C0119800C086FDC6
:103A500046C0419800C0119A00C000C0119800C033
:103A600085FD3BC0419800C0119A00C000C011986C
:103A700000C084FD30C0419800C0119A00C000C051
:103A8000119800C083FD25C0419800C0119A00C064
:103A900000C0119800C082FD1AC0419800C0119A60
:103AA00000C000C0119800C081FD0FC0419800C047
:103AB000119A00C000C0119800C0419800C0119A2E
:103AC00000C000C00895419ABCCF419AF0CF419AFE
:103AD000E5CF419ADACF419ACFCF419AC4CF419AEC
:103AE000B9CF089590E080E00895CF93DF93C0911F
:103AF0000608D091070881E0CE31D105E4F020E03E
:103B000030E040E05FE3609102087091030880912B
:103B10000408909105080E94D5F60E9419F86C1BC4
:103B20007D0B77FF03C071956195710981E063306A
:103B300071050CF080E0DF91CF91089590E080E076
:103B400008952091EF03833021F425FD0CC024FD5E
:103B50000CC030E0A90102C0559547958A95E2F75F
:103B6000CA018170089581E0089580E008958091F0
:103B70000B0484FD0BC080910D0487FD07C090915C
:103B80000E04937081E019F480E0089581E00895B7
:103B90002FEB280F2A3108F047C0E22FF0E0809188
:103BA0000B0490910C04A0910D04B0910E0404C07C
:103BB000B695A795979587952A95D2F780FD02C06F
:103BC00081700895EF50FC4FE081EE2341F1809128
:103BD0004A0890914B08E80FF92FF11D808190ED74
:103BE000980F9A3030F08E3251F4818180538A30B0
:103BF00098F4F093CE03E093CD0381E008958D32E5
:103C000011F08B3249F4818190ED980F9A3088F34E
:103C10008E3211F48281EACFF0E0E0E0EACF109238
:103C2000CE031092CD03E9CF80E00895CF93DF93C8
:103C300085E4AEDF882309F188E040910B045091C0
:103C40000C0460910D0470910E04972F9170C92F90
:103C500090E0D92FCC0FDD1F71FB222720F930E037
:103C6000220F331F220F331FC22B67FB442740F95B
:103C7000C42B8C2BDF91CF91089580E0DECF88DFBD
:103C8000882341F081E02091CD033091CE03232B96
:103C900009F480E008951092280585E08093C70319
:103CA000089580E090E0A0E8B0E4809378019093DC
:103CB0007901A0937A01B0937B018FE692E00E9494
:103CC000729280E090E0A0EFB1E480937001909355
:103CD0007101A0937201B09373018093740190936A
:103CE0007501A0937601B0937701E0912605EE0F60
:103CF000FF0BE651FE4F808191818330910571F178
:103D00008430910509F43FC0029761F480E090E0AF
:103D1000AEE3B3E48093700190937101A0937201BC
:103D2000B093730182EF91E00E9472928DEC9CEC53
:103D3000ACECBDE38093780190937901A0937A0174
:103D4000B0937B018FE692E00E94729280912605EB
:103D50008F5F8430ECF480932605089580E090E036
:103D6000AEE3B3E48093700190937101A09372016C
:103D7000B09373018093740190937501A0937601C1
:103D8000B0937701CFCF80E090E0AEE3B3E4F2CF21
:103D9000109226050895A4E0B0E0E1EDFEE10C9458
:103DA000ADF60E941EF80E94BBEF69837A838B8375
:103DB0009C83CE0101960E947A982496E2E00C94AE
:103DC000C9F60E94BDEF2AE037ED43E25DE30E94B1
:103DD000B1F7E1CFCF92DF92EF92FF92CF93DF93D3
:103DE00000D000D0CDB7DEB76B017C0120E030E021
:103DF000A9010E94B7EF87FD1BC06DEB77E386E05A
:103E000095E3A70196010E94D5F669837A838B8397
:103E10009C83CE0101960E947A980F900F900F908C
:103E20000F90DF91CF91FF90EF90DF90CF900895AA
:103E30006DEB77E386E095EBE4CF0E94BDEF2AE0DF
:103E400037ED43E25DE30E94B1F7C4CF0E94BDEFBE
:103E5000C1CFCF92DF92EF92FF92CF93DF9300D04A
:103E600000D0CDB7DEB76B017C0120E030E0A901C6
:103E70000E94B7EF87FD1BC06DEB77E386E095E30B
:103E8000A70196010E94D5F669837A838B839C8370
:103E9000CE0101960E94FD980F900F900F900F9009
:103EA000DF91CF91FF90EF90DF90CF9008956DEB71
:103EB00077E386E095EBE4CF0E94BDEFCACF0E9486
:103EC000BDEF20E030E04AE754E40E94B1F70C94E3
:103ED00031A20E94BDEF20E030E048EC52E40E94A5
:103EE000B1F70C94E9AB0E94BDEF0E9419F8CB0129
:103EF0000C94E7990C94FB880C94FB880C94FB8839
:103F00000C94FB880C94B7880C94B7880C94B788F1
:103F10000C94B788A6E0B0E0E0E9FFE10C949EF6CF
:103F20007E836D83342EFC014080518062807380DB
:103F3000C301B20120E13EE040E050E00E94E5F51F
:103F400049015A0189018CE3C82ED12CE12CF12CB6
:103F5000C301B201A70196010E94E5F569837A8346
:103F60008B839C83CA01B901A70196010E94E5F5E4
:103F70006B017C01332061F1C301B20120E831E51E
:103F800041E050E00E94E5F529013A015901DF9234
:103F9000CF92C40168E170E00E945BF69F938F931B
:103FA0005F924F9280E09FE09F938F93FE81FF93FB
:103FB0008D818F930E9450EF0FB6F894DEBF0FBE35
:103FC000CDBF88E0FAE04F165104D8F089E019C05F
:103FD00081149104D1F48A818F9399819F93DF9208
:103FE000CF9284EF9EE09F938F93EE81EF93FD81BC
:103FF000FF930E9450EF0FB6F894DEBF0FBECDBF07
:1040000085E02696E1E10C94BAF60436110568F4D1
:10401000DF926F939F928F9288EE9EE09F938F9393
:104020009E819F93ED81EF93E4CFDF926F939F92F8
:104030008F928EED9EE09F938F939E819F93ED8153
:10404000EF930E9450EF0FB6F894DEBF0FBECDBFC6
:1040500086E0D7CF1092CD041092CC04811113C00A
:104060000E94FEBCDC01CB01805D9A48AF4FBF4F80
:104070008093C8049093C904A093CA04B093CB045E
:104080001092C704089580E090E0DC01F1CFCF9357
:10409000DF93C0910608D0910708209729F160911D
:1040A00002087091030880910408909105080E940D
:1040B00019F86E5F7F4F24976C177D07ACF47093EF
:1040C000EB056093EA050E94FEBC605A75418F4F74
:1040D0009F4F6093EC057093ED058093EE059093F0
:1040E000EF05DF91CF9108951092EC051092ED0548
:1040F0001092EE051092EF05F4CFCF92DF92EF927F
:10410000FF920F931F93CF9390912A01913009F45E
:1041100061C0662351F01092CC031092C803109234
:10412000C9031092CA031092CB03C82F0E94FEBC91
:10413000C090C803D090C903E090CA03F090CB03AD
:104140009B01AC012C193D094E095F0969017A01F7
:10415000F7FC40C02091CC03C7FD15C04C2F0C2E9E
:10416000000C550B4C5F5F4FE22F022E000CFF0B33
:104170004E175F077CF144EFC42EDD24D394E12C6D
:10418000F12C2C1734F438EEC32E33E0D32EE12C6F
:10419000F12CC60ED71EE81EF91EC092C803D0929D
:1041A000C903E092CA03F092CB03022F017010E022
:1041B00084E2809FB001819F700D701B11246059B3
:1041C0007C4F82E390E00E9459A08091CC038F5FE6
:1041D0008093CC03CF911F910F91FF90EF90DF90D0
:1041E000CF900895B0E0A0E0E8EFF0E20C94A6F6DE
:1041F0006B01E9014A3009F4D5C0453109F081C0AD
:10420000DB011296ED91FC91F28096818781139AE1
:1042100000C00000E6E2F0E03197F0F7092F182F18
:10422000EF2CE29420EFE22230E1B32EBF0CE80144
:1042300088EF02DC00C0000086E290E00197F0F712
:10424000BFE1BF1508F49BC08F2D80778068F4DB39
:104250008E2DF2DB00C0000086E290E00197F0F7BF
:1042600080E8EADB80E0E8DB00C0000086E290E066
:104270000197F0F78AEFE0DB00C0000086E290E0F3
:104280000197F0F7005F1F4F8881807FD5DB899110
:104290008295807FD1DBC017D107B1F700C0000045
:1042A00086E290E00197F0F7F394E0E1EE0EFB1068
:1042B000BECF1398D6011296ED91FC918081928128
:1042C000980F92832181921708F09FC194819F5F7C
:1042D00094839381890F821710F08FEF820F83836D
:1042E000458150E0440F551F70E060E08681978162
:1042F0000E94A3F981E0CDB7DEB7E9E00C94C2F6E5
:10430000DEC1FB0102811381423309F485C108F447
:104310008DC1463409F475C1473409F482C14B3369
:1043200049F789812B81D80112967C9112971396B7
:104330003C91213009F4BFC1233009F0A0C148EFFE
:10434000480F582F91E0341708F490E031E05417EB
:1043500008F030E0492F432B61E0571708F460E084
:10436000462311F4932331F2FA8030E0F901EA5246
:10437000FE4FD0802E523E4FF901E08099C180EE71
:104380008F0D8068807F58DB8F2D8295807F54DB76
:1043900000C0000086E290E00197F0F780E84CDB77
:1043A00080E861CF0B9A1398399A4198099A119A2B
:1043B000139A00C0000086E290E00197F0F788E7CA
:1043C00090E0CEE9DFE0FE013197F1F70197D9F7F0
:1043D00088EF32DB00C0000086E290E00197F0F742
:1043E00080E22ADB80E028DB00C0000086E290E06B
:1043F0000197F0F780E020DB80E81EDB00C00000C2
:1044000086E290E00197F0F780E016DB80E114DBB4
:1044100000C0000086E290E00197F0F7CE0101971E
:10442000F1F7CE010197F1F7CE010197F1F7CE0137
:104430000197F1F7CE010197F1F7CE010197F1F75E
:10444000CE010197F1F7CE010197F1F7CE01019767
:10445000F1F7CE010197F1F7CE010197F1F7CE0107
:104460000197F1F7CE010197F1F7CE010197F1F72E
:104470002197F1F780E2E0DA80E4DEDA00C00000A4
:1044800086E290E00197F0F780E2D6DA80E6D4DAAF
:1044900000C0000086E290E00197F0F7D0E0C0E0B5
:1044A0008C2F80778068C8DA8D2FC6DA00C00000B4
:1044B00086E290E00197F0F780E8BEDA80E0BCDAAF
:1044C00000C0000086E290E00197F0F78AEFB4DACE
:1044D00000C0000086E290E00197F0F780E21198BA
:1044E00000C0419800C0119A00C000C0119800C0DF
:1044F000419800C0119A00C000C0119800C04198B6
:1045000000C0119A00C000C0119800C0419800C0BE
:10451000119A00C000C0119800C0419800C0119AC3
:1045200000C000C0119800C0419800C0119A00C09E
:1045300000C0119800C0419800C0119A00C000C08E
:10454000119800C0419800C0119A00C000C0119895
:1045500000C0419800C0119A00C000C0119800C06E
:10456000419800C0119A00C000C0119800C0419845
:1045700000C0119A00C000C0119800C0419800C04E
:10458000119A00C000C0119800C0419800C0119A53
:1045900000C000C0119800C0419800C0119A00C02E
:1045A00000C0119800C0419800C0119A00C000C01E
:1045B000119800C0419800C0119A00C000C000C00E
:1045C0000000E6E2F0E03197F0F7815009F087CF84
:1045D00088EF32DA00C0000086E290E00197F0F741
:1045E000CF5FD05FC03209F05BCF80E025DA80EC8E
:1045F00023DA00C0000086E290E00197F0F71398FC
:1046000079CEF8018581888375CE80E0CDB7DEB79D
:10461000E9E00C94C2F653C0B901C8010E94E1BDA3
:1046200069CED80111968C91888364CE443191F083
:10463000473109F05FCE1882D80112968C911297FB
:10464000898315968C91159781508A8313968C9146
:104650008B8350CED80115964C91159750E0440F9E
:10466000551F70E060E016968D919C910E94A3F911
:10467000F801128280818150838314823BCE3817E7
:1046800008F438CE871708F435CEFA80E12CD12C07
:10469000243070F46ACEBE01C8010E94E1BD898158
:1046A00098819D0D98838E0D8983FF0C09F422CE8D
:1046B000F7FEF6CFF0CF58E0580F482F43CEEF92D9
:1046C000FF920F931F93CF93DF93EC018B017A013D
:1046D0008A859B858617970731F0888199810E948A
:1046E00035BF1B870A87B701888199810E9458BA14
:1046F0002E813F81820F932F911D9F838E8390E0A7
:1047000080E0CDB7DEB7E6E00C94C5F6B0E0A0E0FF
:10471000ECE8F3E20C94A5F6EC017B018A018A85B2
:104720009B858617970731F0888199810E9435BF54
:10473000FB86EA8688859985019609F5CC80DA8022
:104740008E81D80EA880B980D5015596ED91FC9147
:10475000C5010995C80E780110E0F70121917F018C
:1047600021111FC08E819F81810F911D9F838E8398
:1047700090E080E0CDB7DEB7EAE00C94C1F6EE80C1
:10478000FF80B801888199810E9458BA8E0D9F2DB3
:10479000911D288539852817390780F681E090E03A
:1047A000E9CF4C2D6D2DC5010E9448C0D80E180FC1
:1047B000D4CFB0E0A0E0EFEDF3E20C94A8F6EC016A
:1047C000D62E1CAD0BAD7C0184E0E80EF11CE98D0A
:1047D000FA8DC7010995412F480F2D2D602FC70174
:1047E0000E9448C09BAD890F8BAF81E090E0CDB7B0
:1047F000DEB7E7E00C94C4F6ACE0B0E0E2E0F4E24F
:104800000C94A7F6F090E10FE090E20F20911B04CA
:10481000211112C04EE75EE06E2D8F2D0E94A0C0C8
:1048200090E080E0F80EF092E10FE092E20F99271D
:104830002C96E8E00C94C3F6C090AE0FD090AF0F6A
:104840002AEA3FE03A8329832F2D30E03C832B83F3
:104850002E2D30E03E832D8318861F827A8769874C
:104860001C861B8606E813E29E012F5F3F4F4AEC31
:104870005CE1BC01C6010E94E8B7B6018AEA9FE08C
:104880000E9435BF8F819885CDCF8091CD039091C7
:10489000CE03009731F04AE050E070E060E00C9405
:1048A000E3ED60E070E0CB0108958091CD0390913D
:1048B000CE03009731F04AE050E070E060E00C94E5
:1048C000B6EC60E070E0CB010895CF93DF93EB018D
:1048D000D6D9882311F0E9DFEB01CE01DF91CF912A
:1048E0000895E3DF97FD0AC0E0DF6F3F71058105A2
:1048F000910509F02CF4D9DF862F089580E0089502
:104900008FEF08958091CD039091CE03892B39F0DC
:10491000E8DF91E0811101C090E0892F089591E0D6
:10492000FCCFCF93DF93C82FD62FA9D9882321F0AE
:10493000E9DFDF91CF9108958C2F2AD98111F9CF2A
:104940008D2FF7CFB2DFCB010895CF93DF93EB012B
:1049500096D9882311F0F6DFEC01CE01DF91CF91DB
:1049600008950F931F93CF938091CD039091CE0321
:104970000097D9F0FC018F01C1912C2F2F7D81F080
:10498000C53411F0C536B9F7F801108270E060E067
:104990000E9460EBF801C083CF911F910F910895A1
:1049A00070E060E00E9460EBF7CF60E070E0CB0168
:1049B000F3CF8F929F92AF92BF92CF92DF92EF92FE
:1049C000FF920F931F93CF9387E3E82E85E0F82E95
:1049D00000E711E0C0E088E58C0F51D9882309F485
:1049E00068C0BFDF4B015C018C2FABD8882359F026
:1049F000F8012081318142815381C501B4010E94B7
:104A0000D5F64B015C01F70180829182A282B382CC
:104A1000CF5FF4E0EF0EF11C0C5F1F4FC330D9F6EF
:104A200085E42DD9882309F44FC09BDF6B017C01FD
:104A300083E087D8882371F020917C0130917D013B
:104A400040917E0150917F01C701B6010E94D5F6C9
:104A50006B017C01C0924305D0924405E09245056C
:104A6000F092460586E40BD98823B9F07ADF20E07E
:104A700030E0A9010E94FCF818167CF472DF20E0F7
:104A800030E040E752E40E94B1F760933101709347
:104A900032018093330190933401CF911F910F9194
:104AA000FF90EF90DF90CF90BF90AF909F908F904E
:104AB0000895F80180819181A281B381F7018083FB
:104AC0009183A283B383A4CF80917C0190917D01D7
:104AD000A0917E01B0917F0180934305909344059E
:104AE000A0934505B0934605BDCF63E972E084E627
:104AF00090E00E9459A070E060E08AE090E00E949F
:104B000059A06AEB72E084E690E00C9459A08823E7
:104B100009F0EBCF68E270E080E991E00C9459A0D5
:104B20000E942285F4CF0E946FB4F1CF0E94C596F7
:104B3000DCCF282F1092430880912E0890912F08E7
:104B4000A0913008B0913108B7FF08C010922E082C
:104B500010922F081092300810923108809124058D
:104B6000882331F080912E088093230810923E080C
:104B7000809121081816FCF4082E000C990B821B5A
:104B8000910920912308022E000C330B28173907B6
:104B900094F097FF02C090E080E080932308092EF4
:104BA000000CAA0BBB0B80932E0890932F08A093A8
:104BB0003008B0933108809123086623A9F09091C2
:104BC0002408891714F48093240820912408022EC5
:104BD000000C330B2C5F3F4F482F082E000C550B59
:104BE000241735071CF48450809324080895E0911D
:104BF0001F05E63028F581E08E0F80931F05409158
:104C00002E0850912F086091300870913108209142
:104C100024089091210880912E0539E0E39FF0014E
:104C20001124EA51FB4FA091A40FB091A50FB183BD
:104C3000A08342835383648375832683978380870D
:104C40000895B0E0A0E0E7E2F6E20C94ACF61E8135
:104C5000812F012E000C990B2091C60428171906EC
:104C600009F094F41093C6049E01275F3F4F4F81D3
:104C7000588564E570E081E794E00E947FEF81E071
:104C800011160CF080E0E6D9E3E00C94C8F60F931F
:104C90001F93CF93DF936F3F11F41092C6042091BE
:104CA000C60421111EC08C010E9406EF800F911FC7
:104CB000EC01C01BD10BC535D1053CF00197FC01BF
:104CC0002491207C2038D1F3F3CFDD27AE01B80149
:104CD00081E794E00E9427EFCF58DB4F188280E0F5
:104CE000B9D9DF91CF911F910F9108951F93CF9361
:104CF000DF932091C60421111DC0FC01019000200A
:104D0000E9F73197EF01C81BD90BC535D1052CF058
:104D10002291207C2038E1F3F5CF162FBC01DD274E
:104D2000AE0181E794E00E94CAF9CF58DB4F1882A8
:104D3000812F90D9DF91CF911F9108950F931F93E9
:104D40000E94FEBC00916D0410916E0420916F04CE
:104D500030917004601B710B820B930B97FD0CC09C
:104D600089B183FB882780F991E089274A9B82607B
:104D7000309B846080936C0480916C04817090916E
:104D80006C0491FD826090916B04981749F081301A
:104D900009F148F0823079F0833091F080936B0410
:104DA0001F910F910895913079F09230B9F7909159
:104DB0006A0491500CC0992339F09330C1F3EECFBF
:104DC0009130A9F3923051F790916A049F5F9093CC
:104DD0006A04E4CF992359F3933001F7F5CFCF92CA
:104DE000DF92EF92FF92CF93C82F0E94FEBC6B011F
:104DF0007C0124EA30E74DE75FE360912B0170917D
:104E00002C0180912D0190912E010E94B7EF87FD1A
:104E100018C08AEF90E0A0E0B0E08C0D9D1DAE1DA3
:104E2000BF1D8093590490935A04A0935B04B093E0
:104E30005C04C0931C01CF91FF90EF90DF90CF9066
:104E4000089580E090E0DC01E8CFCF9380911C04CE
:104E5000811154C01092E10F1092E20F1092E30FF3
:104E60001092AF0F1092AE0F1092B10F1092B00FC0
:104E70001092B30F81E08093B20F82E28093B40F5F
:104E80001092B90F1092B80FEDECFFE02BED3FE060
:104E90008FEF81932E173F07E1F7C1E0C093CA0F50
:104EA00021EE34EB3093C00F2093BF0FC093C10F9E
:104EB0001092C20F1092C30F90E49093C40F1092FF
:104EC000C50F20EE34EB3093DC0F2093DB0F24E191
:104ED00031E03093AD0F2093AC0F9EE19093D10F52
:104EE00091E19093D20F9CE19093CF0F8093CE0FDE
:104EF0008093CD0F0E9420BEC0931C0481E080935C
:104F00001B048FE19FE09093660F8093650F1092D2
:104F1000680F1092670F53985B9A52985A9A389874
:104F2000409A0CDF10926A040E9411B8CF91089544
:104F3000CF92DF92EF92FF920F931F930E94FEBCDD
:104F400000911704109118042091190430911A044B
:104F50006B017C01C01AD10AE20AF30A97018601AB
:104F600037FD11C0209116042095209316046A5431
:104F70007C4F8F4F9F4F609317047093180480935A
:104F8000190490931A0481E090911604911101C0C4
:104F900080E01F910F91FF90EF90DF90CF900895E8
:104FA000FC0180E0309749F09491992331F0907C96
:104FB000903809F08F5F3196F7CF0895B0E0A0E008
:104FC000E4EEF7E20C94A5F6EC015B018A01FB012B
:104FD000099587FD10C0C82ED12CF12CE12C21960B
:104FE000F801C082D182E282F382CE01CDB7DEB772
:104FF000EAE00C94C1F6982F907E903CA9F48F7152
:1050000090E0B0E0A0E06C017D0156E0CC0CDD1C2E
:10501000EE1CFF1C5A95D1F7CE010196F5010995BA
:105020008F73C82A2296DCCF982F907F903E11F57F
:105030008F7090E0B0E0A0E06C017D0136E0CC0C18
:10504000DD1CEE1CFF1C3A95D1F7CE010196F5014F
:1050500009958F73C82A46E0CC0CDD1CEE1CFF1CA2
:105060004A95D1F7CE010296F50109958F73C82AAA
:105070002396B6CF982F987F903F79F5877090E070
:10508000B0E0A0E06C017D0186E0CC0CDD1CEE1CE4
:10509000FF1C8A95D1F7CE010196F50109958F7312
:1050A000C82A96E0CC0CDD1CEE1CFF1C9A95D1F7AB
:1050B000CE010296F50109958F73C82A26E0CC0C23
:1050C000DD1CEE1CFF1C2A95D1F7CE010396F501DD
:1050D00009958F73C82A249683CF982F907C903897
:1050E00041F4807C803869F42196CE01F501099560
:1050F000F8CF8E7F8D3F28F02196CE01F5010995DE
:10510000F8CFC12CD12C76016BCF20E030E040E00D
:105110005FE360910B0670910C0680910D069091F3
:105120000E060E94D5F60E9419F8CB0108954CE0B6
:10513000849F402D112421E0240F209315048CE03E
:10514000840F8093440890E002963091DE0F381768
:10515000190619F014F080E008958091E00F2817E7
:10516000D0F7662381F04E5F20E860E08AEA9FE096
:105170000E9430C0409144084E5F20E860E08AEA17
:105180009FE00E9430C0809144089091DE0F891703
:1051900010F32091E00F909115042917E0F210927E
:1051A000E10F8093E20F81E0089520911404022E14
:1051B000000C330B8217130641F08093140468E946
:1051C00072E18AEA9FE00C9435BF0895ACE0B0E04C
:1051D000ECEEF8E20C94A7F66F3F7105810591059E
:1051E00009F070F486EA9FE0E4DAE091AE0FF09106
:1051F000AF0F3196849190E02C96E8E00C94C3F6C2
:10520000F090E10FE090E20F20911B0421110FC0FC
:105210004EEB5EE06E2D8F2D0E94A0C090E080E0EE
:10522000F80EF092E10FE092E20F9927E5CFC090DF
:10523000AE0FD090AF0F2AEA3FE03A8329832F2D9B
:1052400030E03C832B832E2D30E03E832D83188667
:105250001F822FEF3FEF3A8729871C861B8606E8BF
:1052600013E29E012F5F3F4FAB01BC01C6010E94BC
:1052700053B7B6018AEA9FE00E9435BF8F819885B7
:10528000CFCF4F925F926F927F928F929F92BF92F9
:10529000CF92DF92EF92FF920F931F93CF93DF9302
:1052A000CDB7DEB728970FB6F894DEBF0FBECDBFDF
:1052B0007C016A014901FB0190818CE0989F800D7F
:1052C0001124982FF7012081822F880F820F880FD9
:1052D0008093E10F9093E20F4115510561F1FA823D
:1052E000E9827C836B8301111FC0AE014B5F5F4F6E
:1052F000B401C60163DE6C016D817E818F8198856A
:105300006115710581059105B1F060DFF7018081BC
:105310008F5F8083853148F3CE0101960E94F81C8F
:10532000E4CFB12C860129C08A01B12C26C04528C2
:1053300046284728B1F728960FB6F894DEBF0FBE6F
:10534000CDBFDF91CF911F910F91FF90EF90DF9034
:10535000CF90BF909F908F907F906F905F904F9075
:105360000895B39407C0B1102DC001151105C9F2FD
:105370000F5F1F4F01151105A9F2AE014B5F5F4F83
:10538000B401C6011BDE6C014D805E806F807884A5
:105390004114510461047104A9F0F0E24F16510464
:1053A0006104710401F3D301C2018D97A109B10910
:1053B0000297A105B10530F04BE244165104610497
:1053C000710479F6F7018081482F4B0D5527551F41
:1053D0004631510534F0853020F0CE0101960E940F
:1053E000F81C81E0411451046104710409F480E067
:1053F000B80EF70180818B0D8083BB2009F497CF15
:10540000BA94AE014B5F5F4FB401C801D7DD8C0188
:105410006D817E818F819885D9DEEFCF6FEF7FEF31
:10542000EBC9CF93DF93FC0125AD211104C021E02E
:1054300025AF0E9420BEC091AC0FD091AD0FE0917E
:10544000DB0FF091DC0F82E00995E091DB0FF0912A
:10545000DC0F81E0099530E020E044E1BE018AEAFA
:105460009FE00E941BBE2DED3FE047E1BE018AEAAE
:105470009FE00E941BBEE091DB0FF091DC0F80E00B
:105480000995DF91CF910895ACE0B0E0EAE4FAE24B
:105490000C94A7F6F090E10FE090E20F20911B042E
:1054A000211112C04EE95EE06E2D8F2D0E94A0C02A
:1054B00090E080E0F80EF092E10FE092E20F992781
:1054C0002C96E8E00C94C3F6C090AE0FD090AF0FCE
:1054D0002AEA3FE03A8329832F2D30E03C832B8357
:1054E0002E2D30E03E832D8318861F827A876987B0
:1054F0001C861B8606E813E29E012F5F3F4F47EC98
:105500005CE1BC01C6010E94E8B7B6018AEA9FE0EF
:105510000E9435BF8F819885CDCFA4E0B0E0E3E94C
:10552000FAE20C94A3F67C01062F5A01122F862F63
:10553000660F990B9C0122533E4F690186E0882E2D
:10554000912C11160CF03DC0AE014F5F5F4F67EC20
:105550007CE1C70133DD7C0169817A818B819C818B
:10556000611571058105910561F16D337105810545
:10557000910509F450C06E3771058105910509F454
:105580004AC06A3271058105910501F507FF11C016
:1055900085E19FE00E3F11F081E19FE036E01302CC
:1055A000B001112471DF66E070E00E946FF6161BF7
:1055B00060C065E470E080E090E008DE115069F5BD
:1055C00010E0812F2496ECE00C94BFF66432710554
:1055D0008105910571F4A114B104D1F0E6E01E0239
:1055E000B0011124C50150DFB4010E946FF6161BF3
:1055F000A8CF603471058105910551F41150F60171
:105600006081062E000C770B880B990BDFDD99CF9C
:10561000DDDD115096CF07FDBBCF61E089819A8116
:10562000AB81BC81CD97A105B10509F460E0600FA5
:105630006A30A4F01150862F6AE00E944EF6092FBE
:10564000682F880F770B605D7F4F072E000C880B4B
:10565000990BBCDD112309F4B3CF602F062E000C8B
:10566000770B605D7F4F072E000C880B990BAEDD2A
:105670001150112309F4A4CF86E01802B0011124BF
:10568000C70102DF66E070E00E946FF6161B99CF3B
:10569000B0E0A0E0EEE4FBE20C94A5F65C016B0147
:1056A0007FDCE82EC6010E940E1DF12C03E110E004
:1056B000081B1109C5E20E151F050CF4CFE18C2F54
:1056C00090E09C012E5F3F4F4091DE0F4217130682
:1056D00009F08CF509972091E00F281719065CF165
:1056E0004091460850914708609145081092E10F9B
:1056F000C093E20F25E1C50110DFD1E0C114D10450
:10570000A9F06AE370E080E090E060DD0E151F050F
:10571000A4F4C45F8091DE0FC81740F02091E00F21
:105720004C2F4950550B241715064CF4CDB7DEB756
:10573000EAE00C94C1F6D0E0E1CFDD23B9F3802F8D
:10574000880F080F000F0093E10FC093E20F60E293
:1057500070E080E090E03ADDC60160DEE7CFB0E0C7
:10576000A0E0E5EBFBE20C94A3F65B01C42F79010A
:1057700041FB662760F9DBDC882309F460C0D12C8B
:10578000C12CA114B10431F0C5010ADC96E0899F57
:105790006001112410E000E0E114F10429F0C701D8
:1057A0000E940E1D082F10E0C0FF20C080E890E08E
:1057B0008C199D094AEF40039001419F300D11243F
:1057C000820F931F6CE070E00E946FF64B01C0E8FF
:1057D000D0E081E0881A910897FC0AC060E270E08E
:1057E00080E090E0F3DCC81BD90BF3CFC0E8D0E039
:1057F000C114D10491F0CE0166E070E00E945BF626
:105800004091460850914708262F60914508C501F0
:1058100084DE96E0899FE00111240115110531F025
:10582000BE01C7010E94FC23C81BD90BC730D1059C
:1058300030F060E270E080E090E0C8DCF5CFCDB7FA
:10584000DEB7ECE00C94BFF66FEF7FEF1DCEACE05F
:10585000B0E0EDE2FCE20C94A3F6982F862F6A01EB
:105860007901B02E692F63DC882309F487C0109179
:105870001B04C701002371F193DBA82E8090AE0FAB
:105880009090AF0F111142C02FEF3FEF122F23E185
:105890002A19409146085091470860914508C60171
:1058A0003CDEAA2009F46AC0B6E08B9F6001112497
:1058B0006AE370E080E090E089DC57E0C516D1042F
:1058C00008F442C060E270E080E090E07FDCC81A3B
:1058D000D90AF3CF0E940E1DA82E8090AE0F909093
:1058E000AF0F112389F2FE0133968AE0DF011D928A
:1058F0008A95E9F78AEA9FE09A8389830FE513E2A4
:105900009E012F5F3F4F4AEC5CE112C0FE013396CF
:105910008AE0DF011D928A95E9F78AEA9FE09A837F
:1059200089830FE513E29E012F5F3F4F47EC5CE157
:10593000B701C4010E94E8B7B4018AEA9FE00E945F
:1059400035BF2F813885A2CF40914408212F30E008
:10595000A6E0AA9EC00111242E5F3F4F28173907E9
:105960000CF49C0180E8821B8093E10F4093E20FCE
:10597000BB2041F06FEF7FEFC70186DD2C96ECE096
:105980000C94BFF6C7014ADDF9CFE6EAFFE083AF2A
:1059900064AF6FEF7FEFCA0177CD0C9483B84F925D
:1059A0005F926F927F928F929F92BF92CF92DF927F
:1059B000EF92FF920F931F93CF93DF9310921004F7
:1059C00010920F042FE320931304109212041092EC
:1059D000110410920B0410920C0410920D041092FA
:1059E0000E049C01F90190812F5F3F4F9032D1F35B
:1059F0009E34C9F4818190ED980F9A3020F08D3259
:105A000011F08B3281F432969F012F5F3F4F8081DE
:105A100080538A3008F46DC09F012F5F3F4F808113
:105A2000803209F468C0F0934B08E0934A088F0174
:105A30000F5F1F4FC0816AE270E0C8010E94AAF99F
:105A4000009731F0FC01319780818032E1F31182BF
:105A5000CD3421F0C43511F0C734D9F5F801808177
:105A60000F5F1F4F8032D1F380538A3090F5C0937F
:105A7000130490E080E06AE0AF014F5F5F4F689FE2
:105A80009001699F300D1124C901C0972081820FB8
:105A9000911D27FD9A95FA01208120532A3060F349
:105AA0009093120480931104DF0131962C912032DF
:105AB000D9F3CD3461F58E31910539F0F0F48731A9
:105AC000910519F08C31910511F5B0931004A09354
:105AD0000F04DF91CF911F910F91FF90EF90DF9016
