:100000000C94531B0C948C1B0C948C1B0C948C1B0D
:100010000C948C1B0C948C1B0C948C1B0C948C1BC4
:100020000C948C1B0C9460C60C948C1B0C948C1B35
:100030000C948C1B0C9457870C948C1B0C948C1B6D
:100040000C94C8810C948C1B0C9416C60C948C1BBD
:100050000C9482510C9478510C948C1B0C948C1B36
:100060000C948C1B0C948C1B0C948C1B0C948C1B74
:100070000C948C1B0C948C1B0C948C1B0C948C1B64
:100080000C948C1B0C948C1B0C948C1B4E414E4975
:100090004E495459494E46CDCCCC3D0AD7233C1746
:1000A000B7D13877CC2B329595E6241FB14F0A0093
:1000B0000020410000C84200401C4620BCBE4CCA83
:1000C0001B0E5AAEC59D7400407A10F35A00A07200
:1000D0004E18090010A5D4E80000E8764817000083
:1000E000E40B54020000CA9A3B000000E1F5050051
:1000F0000080969800000040420F000000A086019A
:10010000000000102700000000E803000000006469
:1001100000000000000A00000000000100000000D4
:10012000002C76D888DC674F0823DFC1DFAE59E1A9
:10013000B1B796E5E3E453C63AE651997696E8E618
:10014000C28426EB898C9B62ED407C6FFCEFBC9CEB
:100150009F40F2BAA56FA5F490055A2AF75C936BFD
:100160006CF9676DC11BFCE0E40D47FEF520E6B5B8
:1001700000D0ED902E0300943577050080841E0892
:100180000000204E0A000000C80C333333330F98B0
:100190006E12831141EF8D2114893BE65516CFFE77
:1001A000E6DB18D1844B381BF77C1D901DA4BBE403
:1001B00024203284725E228100C9F124ECA1E53D45
:1001C00027434F4D4D554E49434154494F4E0044EE
:1001D000525952554E004552524F525300494E46C5
:1001E0004F004543484F004269747465206E657541
:1001F0007374617274656E00445255434B455220CE
:10020000474553544F5050540025533A202553002E
:100210004142474542524F4348454E005072696E35
:100220007465722068616C7465642E206B696C6CF7
:1002300028292063616C6C6564210A006563686F1E
:100240003A004572726F723A004F4646004F4E00B8
:100250000A4D6561737572656420706F696E7473A1
:100260003A0A00337833206D6573682E205A206F68
:1002700066667365743A2000206E6F7420656E7434
:10028000657265642E0A004D65737370756E6B74CC
:100290000025532025692F256900206F6620004D19
:1002A000424C2047323920706F696E742000290A51
:1002B000004A206F7574206F662072616E6765203A
:1002C00028302D00290A0049206F7574206F6620A0
:1002D00072616E67652028302D004732384C30003F
:1002E0004E6976656C6C696572756E6720666572BD
:1002F000746967004D6573682070726F62696E671C
:1003000020646F6E652E0A005374617274206D65EF
:1003100073682070726F62696E67207769746820F5
:1003200022473239205331222066697273742E0AB3
:10033000004732395332004732384C300A4732399D
:10034000533200686173206E6F20646174612E0AFD
:10035000004D65736820426564204C6576656C6964
:100360006E67200053206F7574206F662072616E77
:1003700067652028302D35292E0A0020204D323087
:10038000312058004D617820416363656C6572616E
:1003900074696F6E2028756E6974732F733229002B
:1003A00020204D3230332058004D6178206665653D
:1003B0006472617465732028756E6974732F732974
:1003C0000020520020204D32303420500041636321
:1003D000656C65726174696F6E2028756E697473DF
:1003E0002F7332292028503C7072696E742D61631E
:1003F00063656C3E20523C726574726163742D615A
:100400006363656C3E20543C74726176656C2D614B
:100410006363656C3E2900204A002054002053008D
:1004200020204D323035204200416476616E636594
:10043000642028423C6D696E5F7365676D656E74FC
:100440005F74696D655F75733E20533C6D696E5FC7
:1004500066656564726174653E20543C6D696E5FCB
:1004600074726176656C5F66656564726174653E21
:10047000204A3C6A756E635F6465763E29002044BD
:100480000020490020204D333031205000486F7447
:10049000656E6420504944002E0A00206E6F74205F
:1004A00064697361626C65642E205368617265646F
:1004B0002077697468004D323453256C6454256C80
:1004C00064004739322E394525730047314625648B
:1004D0000047315A2573463630300047315825736E
:1004E0005925734633303030004D31303650256950
:1004F000532569004D313039532569004739322E73
:10050000395A2573004D3432305325635A25730010
:10051000473238523058590047315A2573463630E1
:1005200030004739322E395A2573004739322E3977
:100530004530004D313039532569004D3139305344
:100540002569004D343230205330205A3000203B92
:10055000200020204D343133205300506F776572D6
:100560002D6C6F7373207265636F766572790020EE
:10057000496E76616C696420657874727564657221
:10058000200057617274656E2E2E2E004D657368C3
:1005900020706F696E74206F7574206F66207261B1
:1005A0006E67650A004B6C69636B207A756D204637
:1005B0006F72747365747A656E00616C736F206519
:1005C0006E61626C6564290A004D6F746F72656EAE
:1005D00020616E6765736368616C74657400456E55
:1005E000642066696C65206C6973740A00426567F3
:1005F000696E2066696C65206C6973740A004E6FC1
:10060000206D656469610A00286E6F2066696C65FB
:10061000290043757272656E742066696C653A20B4
:10062000005344207072696E74696E672062797439
:100630006520004E6F74205344207072696E746997
:100640006E670A0043616E6E6F74206F70656E2076
:1006500073756264697220002569730025696D20D5
:10066000256973002569682025696D202569730057
:10067000256964202569682025696D202569730036
:1006800025697920256964202569682025696D2000
:10069000256973005072696E742074696D653A2023
:1006A000006F6B006F666600E201DD01D601CF01CD
:1006B000C10144454255473A004D31313320530082
:1006C000416E796375626963204D656761205345AA
:1006D000204F46462E00434F4E4649475F455850EF
:1006E0004F5254004D4541545041434B00434F4FEE
:1006F0004C45525F54454D5045524154555245006A
:100700004348414D4245525F54454D504552415436
:1007100055524500424142595354455050494E4765
:100720000041524353004D4F54494F4E5F4D4F448B
:10073000455300544845524D414C5F50524F54452B
:100740004354494F4E00455854454E4445445F4D2F
:10075000323000435553544F4D5F4649524D574137
:1007600052455F55504C4F4144004C464E5F5752E6
:10077000495445004C4F4E475F46494C454E414D0C
:1007800045004155544F5245504F52545F53445FBA
:100790005354415455530053445F575249544500F4
:1007A000524550454154004D554C54495F564F4CAD
:1007B000554D45005344434152440050524F4D5013
:1007C000545F535550504F525400484F53545F415B
:1007D0004354494F4E5F434F4D4D414E44530045A6
:1007E0004D455247454E43595F5041525345520083
:1007F000434153455F4C494748545F42524947483B
:10080000544E45535300544F47474C455F4C49475E
:1008100048545300534F4654574152455F504F5729
:100820004552004255494C445F50455243454E5451
:10083000004C4556454C494E475F44415441005A8F
:100840005F50524F42450052554E4F55540041554E
:10085000544F4C4556454C005052494E545F4A4FF8
:10086000420050524F4752455353004155544F5246
:1008700045504F52545F54454D50004155544F52CE
:1008800045504F52545F504F5300564F4C554D45B5
:100890005452494300454550524F4D0042494E4144
:1008A00052595F46494C455F5452414E534645525A
:1008B0000053455249414C5F584F4E5F584F464692
:1008C000004649524D574152455F4E414D453A4DC4
:1008D00061726C696E20322E302E392E3320284DF5
:1008E000617920313120323032322030383A30389C
:1008F0003A31372920534F555243455F434F4445C2
:100900005F55524C3A6769746875622E636F6D2F3C
:100910004D61726C696E4669726D776172652F4DBB
:1009200061726C696E2050524F544F434F4C5F566A
:10093000455253494F4E3A312E30204D414348499C
:100940004E455F545950453A416E7963756269630B
:10095000204D656761205345204558545255444504
:10096000525F434F554E543A3120555549443A341D
:10097000333663616461352D616234352D3431372E
:10098000392D393836302D3634336165623061396E
:100990003030650A002F2F004D31343520533C692B
:1009A0006E6465783E206F7574206F662072616E8C
:1009B00067652028302D31290A003F4A206F757461
:1009C000206F662072616E67652028302E303120DE
:1009D000746F20302E33290A0020580020204D61EA
:1009E000783A2000200020204D696E3A2000203BFC
:1009F000200020204D323131205300536F66742087
:100A0000656E6473746F70730046523A0020466CD2
:100A10006F773A20004D424C2041646A7573742010
:100A20005A0064697300656E0043290A0061626CB4
:100A3000656420286D696E2074656D702000436FB9
:100A40006C642065787472756465732061726520CA
:100A5000004F46460A00466164652048656967683C
:100A6000742000426564204C6576656C696E672071
:100A7000004661696C656420746F20656E61626C0C
:100A80006520426564204C6576656C696E670A0076
:100A90004D65736820426564204C6576656C206402
:100AA0006174613A0A00496E76616C6964206D6513
:100AB00073682E0A004D65736820706F696E74202C
:100AC0006F7574206F662072616E67650A004D3421
:100AD000323120696E636F72726563742070617267
:100AE000616D657465722075736167650A004545BF
:100AF00050524F4D204F4B0A004D383400446F6E1A
:100B000065207072696E74696E672066696C650A2B
:100B1000004D3737004D333100496E76616C6964A2
:100B20002065787472756465720A004361703A00DA
:100B300020573A006BC3BC686C742E2E2E004531D2
:100B40002025530020573A0042657474206BC3BCC3
:100B5000686C742E2E2E0042657474206865697A64
:100B6000742E2E2E0023646566696E65204445460A
:100B700041554C545F004B6420004B6920004B7082
:100B80002000504944204175746F74756E6520666D
:100B9000696E697368656421205075742074686596
:100BA000206C617374204B702C204B6920616E6443
:100BB000204B6420636F6E7374616E747320667271
:100BC0006F6D2062656C6F7720696E746F20436F64
:100BD0006E66696775726174696F6E2E680A00507F
:100BE0004944204175746F74756E65206661696C47
:100BF0006564212074696D656F75740A00504944FD
:100C0000204175746F74756E65206661696C6564EA
:100C1000212054656D706572617475726520746F02
:100C20006F20686967680A00504944205A796B6CE4
:100C300075730025532025692F256900204B643AE0
:100C40002000204B693A2000204B703A20002043BE
:100C50006C617373696320504944200A0020547505
:100C60003A2000204B753A2000206D61783A200030
:100C7000206D696E3A200020643A2000206269618C
:100C8000733A20006865697A742E2E2E005049440C
:100C9000204175746F74756E652073746172740A87
:100CA00000504944204175746F74756E652066610B
:100CB000696C6564212054656D706572617475722C
:100CC0006520746F6F20686967680A005049442086
:100CD0004175746F74756E65005049442041757498
:100CE0006F74756E65206661696C65642120426170
:100CF00064206865617465722069640A00457272D7
:100D00003A207574663820666F6E74206E6F74209A
:100D1000696E697469616C697A65642E00457272E6
:100D20003A207574663820666F6E74206E6F74207A
:100D3000696E697469616C697A65642E00457272C6
:100D40003A207574663820666F6E74206E6F74205A
:100D5000696E697469616C697A65642E00256875CD
:100D60003A25303268750025303268753A253032C0
:100D70006875002530326875272530326875002582
:100D80006875642025303268753A25303268750000
:100D90004265747400476568C3A4757365002020BC
:100DA0002020202020002020202000202020202083
:100DB000202000453A00523A00657272001FE02080
:100DC000102010201010201020201020103030088B
:100DD00040048003001FE03FF03FF03FF01FE01FA2
:100DE000E03FF03FF03FF00FC0078003003FFFF00F
:100DF00038007030FC3020FC102078102030102C8F
:100E000000D02E31D02F7BD02F7BD02E31D02C0094
:100E1000D020301020781020FC1030FC30380070CA
:100E20003FFFF03FFFF038007031863023871027F6
:100E300087902F87D02F03D0203010207810207873
:100E4000102030102F03D02F87D0278790238710B2
:100E50003186303800703FFFF01FFFF81FFFF804A5
:100E60001040020820020820041040082080104191
:100E7000001041000820800410400000001FFFF80F
:100E80001FFFF8256C6425636D00447275636B2049
:100E90006162676562726F6368656E004D3235002E
:100EA00050617573652E2E2E004D3234004545502D
:100EB000524F4D2056657273696F6E204665686C9F
:100EC000657200454550524F4D20496E646578204B
:100ED0004665686C657200454550524F4D2043523F
:100EE00043204665686C6572003F0049676E6F720B
:100EF000696572656E005265736574656E0057654D
:100F0000726B7365696E7374656C6C756E67656E14
:100F1000004D333033205531204525692053256954
:100F200000504944204175746F74756E65202A0025
:100F300020082046616B746F72002008206D617874
:100F4000002008206D696E0061757300616E0041BC
:100F500075746F2054656D706572617475720045AB
:100F60002053746570732F6D6D005A205374657033
:100F7000732F6D6D00592053746570732F6D6D0064
:100F8000582053746570732F6D6D004572772E2055
:100F900045696E7374656C6C756E67656E0054653B
:100FA0006D706572617475720053746570732F6D26
:100FB0006D004B6F6E66696775726174696F6E0064
:100FC0003F004EC3A463687374652045636B65007E
:100FD00046657274696700576569746572004E6989
:100FE00076656C6C696572656E206665727469679A
:100FF0002100426577656765205A004732395332D0
:10100000004EC3A46368737465204B6F6F7264698C
:101010006E617465002569202F20257500473239DF
:101020005331004732395332004B6C69636B207A7D
:10103000756D205374617274656E0058595A20683A
:101040006F6D656E005A2D5765727400496E646548
:1010500078205900496E6465782058004B6F6E66A1
:1010600069672E2073706569636865726E004B6FE7
:101070006E6669672E206C6164656E0042657474EB
:10108000206175737269636874656E00426574747B
:10109000205A00417573626C656E6468C3B66865FA
:1010A0000061757300616E00426574742D4E69763F
:1010B000656C6C696572756E67004E65747A206246
:1010C00065617262656974656E0042657474206E54
:1010D0006976656C6C696572656E004265776567F7
:1010E000756E67005374616E6461726477657274C3
:1010F00065206C6164656E004B6F6E6669672E20BB
:101100006C6164656E004B6F6E6669672E2073704C
:101110006569636865726E00546F6E006175730077
:10112000616E00576965646572682E206E2E2053CB
:1011300074726F6D612E004572772E2045696E7353
:1011400074656C6C756E67656E0048617570746D62
:10115000656EC3BC00000C0F00FE07022503BB0137
:10116000FFFE0AFE08FE05080806000040F0C888D9
:1011700088987810050808060000C0F888888888D4
:1011800088F80505050600012030F830200508081C
:101190000600002070F820202020E0050909060044
:1011A000FF2070A8A8B888887020070505070001EF
:1011B000D86C366CD80509090600FFF8A88888881D
:1011C0008888A8F8050A0A0600FE2050505050886A
:1011D000A8A8887003030306000340A040FFFFFF98
:1011E000FFFFFFFFFFFFFFFFFFFFFFFFFFFFFFFF0F
:1011F000FFFFFF0000000605FF0107070602008051
:10120000808080800080030303060105A0A0A00564
:10121000060606000050F85050F85005090906006F
:10122000FF2070A8A07028A87020050707060000FE
:10123000C8C8102040989805070706000040A0A0E5
:1012400040A8906801030306020580808003090915
:101250000601FF20404080808040402003090906AD
:1012600001FF804040202020404080050707060005
:101270000020A8702070A820050505060001202088
:10128000F820200203030601FFC04080050101068B
:101290000003F8020202060100C0C00507070600AD
:1012A00000081010204040800507070600007088E5
:1012B00098A8C8887003070706010040C040404056
:1012C00040E0050707060000708808102040F80578
:1012D0000707060000F808103008887005070706A1
:1012E000000010305090F81010050707060000F8B5
:1012F00080F008088870050707060000304080F07D
:10130000888870050707060000F8081010202020C4
:101310000507070600007088887088887005070731
:101320000600007088887808106002050506010034
:10133000C0C000C0C00206060601FFC0C000C04019
:1013400080030505060101204080402005030306B7
:101350000002F800F80305050601018040204080E6
:1013600005070706000070881020200020050707E9
:101370000600007088B8A8B880700507070600004E
:10138000708888F8888888050707060000F04848B4
:10139000704848F005070706000070888080808844
:1013A00070050707060000F04848484848F0050760
:1013B00007060000F88080F08080F8050707060027
:1013C00000F88080F08080800507070600007088A4
:1013D0008080988870050707060000888888F8884C
:1013E0008888030707060100E04040404040E005D0
:1013F0000707060000381010101090600507070658
:1014000000008890A0C0A090880507070600008013
:101410008080808080F805070706000088D8A888AB
:101420008888880507070600008888C8A8988888E3
:1014300005070706000070888888888870050707F8
:10144000060000F08888F08080800507070600000D
:1014500070888888A89068050707060000F08888CB
:10146000F0A0908805070706000070888070088843
:1014700070050707060000F820202020202005071F
:101480000706000088888888888870050707060096
:101490000088888888505020050707060000888843
:1014A0008888A8A8500507070600008888502050A3
:1014B000888805070706000088885020202020051E
:1014C0000707060000F80810204080F80309090605
:1014D00001FFE080808080808080E00507070600B3
:1014E00000804040201010080309090601FFE02099
:1014F000202020202020E00503030600052050883E
:101500000501010600FEF8030303060105804020E3
:1015100005050506000070087888780507070600AD
:10152000008080F0888888F005050506000070803E
:101530008088700507070600000808788888887882
:101540000505050600007088F08070050707060095
:1015500000304840E04040400507070600FE708824
:1015600088887808700507070600008080F0888862
:1015700088880307070601004000C0404040E0049F
:1015800009090601FE1000301010101090600507C8
:101590000706000080808890E09088030707060116
:1015A00000C04040404040E0050505060000D0A8CE
:1015B000A8A8A8050505060000B0C8888888050504
:1015C0000506000070888888700507070600FEF091
:1015D000888888F080800507070600FE788888885C
:1015E000780808050505060000B0C880808005055C
:1015F0000506000078807008F00507070600002047
:1016000020F8202020180505050600008888889805
:101610006805050506000088888850200505050630
:1016200000008888A8A850050505060000885020FD
:1016300050880507070600FE8888885020408005EE
:101640000505060000F8102040F80309090601FF0F
:101650002040404080404040200109090602FF80B0
:1016600080808080808080800309090601FF80409F
:101670004040204040408005030306000248A890F7
:10168000FFFFFFFFFFFFFFFFFFFFFFFFFFFFFFFF6A
:10169000FFFFFFFFFFFFFFFFFFFFFFFFFFFFFFFF5A
:1016A000FF0000000605FF0107070602008000801A
:1016B000808080800507070600FF2070A8A0A87022
:1016C00020050707060000304840E04048B0050507
:1016D00005060000A8508850A805070706000088E6
:1016E00050F820F8202001070706020080808000C3
:1016F000808080040808060100708060909060106F
:10170000E0030101060107A0060707060000788430
:10171000B4A4B4847803050506010460A06000E069
:101720000505050600002850A05028050303060003
:1017300001F80808030101060103E0060707060097
:10174000007884B4A4A48478050101060007F80495
:10175000040406010560909060050707060000205C
:1017600020F8202000F803050506010440A02040D1
:10177000E0030505060104C0204020C00303030662
:1017800001052040800507070600FE88888898E844
:10179000808005080806000078E8E8E8682828281E
:1017A000020202060203C0C00302020601FE20C0BC
:1017B00003050506010440C04040E003050506019D
:1017C0000540A04000E0050505060000A050285097
:1017D000A0050A0A06000040C048506050B050788A
:1017E00010050A0A06000040C048506050A80810C2
:1017F00038050A0A060000C0204830E050B0507892
:101800001005070706000020002020408870050A08
:101810000A060000402000708888F8888888050A39
:101820000A060000102000708888F8888888050A59
:101830000A060000205000708888F8888888050A09
:101840000A06000068B000708888F8888888050952
:10185000090600005000708888F8888888050A0A00
:10186000060000205020708888F8888888050707BF
:1018700006000078A0A0F0A0A0B80509090600FEA7
:10188000708880808088701060050A0A0600004019
:101890002000F88080F08080F8050A0A0600001019
:1018A0002000F88080F08080F8050A0A06000020F9
:1018B0005000F88080F08080F8050909060000508B
:1018C00000F88080F08080F8030A0A06010080405A
:1018D00000E04040404040E0030A0A06010020408A
:1018E00000E04040404040E0030A0A06010040A0FA
:1018F00000E04040404040E0030909060100A0002C
:10190000E04040404040E0050707060000704848BE
:10191000E8484870050A0A06000068B0008888C8D0
:10192000A8988888050A0A06000040200070888868
:1019300088888870050A0A060000102000708888D0
:1019400088888870050A0A06000020500070888880
:1019500088888870050A0A06000068B000708888C8
:1019600088888870050909060000500070888888FA
:1019700088887005050506000188502050880509F3
:10198000090600FF087098A8A8A8C87080050A0A70
:1019900006000040200088888888888870050A0A28
:1019A00006000010200088888888888870050A0A48
:1019B00006000020500088888888888870050909FA
:1019C000060000500088888888888870050A0A0602
:1019D00000001020008888502020202004070706DF
:1019E000010080E0909090E08005070706000070FD
:1019F0008890A09088B0050808060000402000707C
:101A0000087888780508080600001020007008781B
:101A1000887805080806000020500070087888784B
:101A200005080806000068B0007008788878050787
:101A3000070600005000700878887805080806003E
:101A40000020502070087888780505050600007091
:101A50002870A0780507070600FE7088808870103F
:101A6000600508080600004020007088F0807005BE
:101A700008080600001020007088F0807005080833
:101A80000600002050007088F080700507070600EF
:101A90000050007088F08070030808060100804044
:101AA00000C0404040E0030808060100204000C09C
:101AB000404040E003080806010040A000C040404C
:101AC00040E0030707060100A000C0404040E005D9
:101AD0000909060000502050087888888870050899
:101AE0000806000068B000B0C888888805080806A5
:101AF00000004020007088888870050808060000F3
:101B000010200070888888700508080600002050A2
:101B100000708888887005080806000068B00070AA
:101B2000888888700507070600005000708888883C
:101B3000700505050600012000F8002005050506D2
:101B400000007898A8C8F0050808060000402000AA
:101B5000888888887005080806000010200088889A
:101B6000888870050808060000205000888888884A
:101B70007005070706000050008888888870050AED
:101B80000A0600FE10200088888850204080050941
:101B9000090600FE8080F0888888F08080050909A9
:101BA0000600FE50008888885020408050455447E9
:101BB00000504C41003132300035004245443A205B
:101BC0004550434F53203130304B0052756E617792
:101BD00061792057617463683A20414E004D617805
:101BE0002054656D7000323535004D696E205465A6
:101BF0006D7000350045313A204550434F53203138
:101C000030304B004E65747A7465696C0047656EC0
:101C1000657269630050726F746F6B6F6C6C00312A
:101C20002E30004261756472617465003235303067
:101C30003030004D656C7A692028437265616C69AB
:101C4000747929004E65747A2D4E6976656C6C69DD
:101C50006572756E670045787472756465720031DF
:101C6000006D61726C696E66772E6F726700416EEF
:101C7000796375626963204D656761205345003261
:101C80003032312D31322D323500322E302E392E78
:101C900033004D61726C696E00546865726D6973D2
:101CA000746F72656E00426F6172642D496E666F6B
:101CB00000447275636B65722D496E666F004861F2
:101CC0007570746D656EC3BC004D3130303000539B
:101CD000442D447275636B2061626272656368654E
:101CE0006E0053442D447275636B20666F7274737B
:101CF00065747A656E00576965646572682E206E3A
:101D00002E205374726F6D612E003F005A7572C39E
:101D1000BC636B0053746F70004D3232004D6564CC
:101D200069756D20696E697469616C2E004D323180
:101D300000447275636B20766F6D204D6564697524
:101D40006D004D656469756D2066726569676562D1
:101D5000656E004175746F737461727400C39C6228
:101D600065722064656E20447275636B6572004B0A
:101D70006F6E66696775726174696F6E0054656D28
:101D800070657261747572004265776567756E671C
:101D90000062656E75747A65726465662E204865AA
:101DA000697A656E0053442D447275636B20666FCB
:101DB00072747365747A656E004A757374696572BE
:101DC000756E670053442D447275636B20616262C7
:101DD00072656368656E0053442D447275636B20B1
:101DE00070617573696572656E00496E666F003F5C
:101DF0000053746172746520447275636B004162B4
:101E00006272656368656E00447275636B656E002F
:101E100043616E6E6F7420656E74657220737562B7
:101E20006469723A200002202E2E0001416B747505
:101E3000616C6973696572656E005A7572C3BC63C3
:101E40006B0048617570746D656EC3BC00210048FD
:101E50006F74656E64207A75206B616C74005A75BE
:101E600072C3BC636B005765697465720047323892
:101E70005A004732385900486F6D6520400047329C
:101E80003858004175746F20486F6D6500473238CF
:101E9000004265776567756E67004D6F746F726598
:101EA0006E206465616B746976696572656E004D5C
:101EB000383400426574742D4E6976656C6C6965C2
:101EC00072756E6700486F6D696E67004861757066
:101ED000746D656EC3BC0024204265747420566F17
:101EE0007277C3A4726D656E002420457874722EDB
:101EF00020566F7277C3A4726D656E0054656D7065
:101F00006572617475720041626BC3BC686C656E0A
:101F1000004CC3BC6674657200426574740044C3AF
:101F2000BC736500B11BAC1B2420566F7277C3A431
:101F3000726D656E0048617570746D656EC3BC002E
:101F40004261627973746570205A00466C757373D0
:101F500072617465004CC3BC66746572004265743E
:101F6000740044C3BC73650042657474205A004712
:101F700065736368772E0048617570746D656EC314
:101F8000BC006F70656E0054524947474552454446
:101F9000003A20007A5F6D696E00795F6D696E00AE
:101FA000785F6D696E005265706F7274696E67203C
:101FB000656E6473746F70207374617475730A0056
:101FC00020746F6F206C6F6E672065787472757304
:101FD000696F6E2070726576656E7465640A0020A4
:101FE000636F6C6420657874727573696F6E2070AE
:101FF000726576656E7465640A000000A0C000001A
:1020000020C1000000005761726E696E673A204877
:102010006F6D696E672042756D70204469766973D3
:102020006F72203C20310A0002020400006143006C
:1020300000664300007A430000A0400000A040007A
:102040000000400000000100000001000080005579
:102050005555000000400033333300AAAA2A004936
:1020600092240000002000C7711C0099991900D12A
:10207000451700555515003BB113002449120011B6
:10208000111100000010000F0F0F00E3380E004385
:10209000790D00CCCC0C00C3300C00E8A20B00641E
:1020A000210B00AAAA0A00703D0A009DD80900422F
:1020B0007B090092240900DCD308008888080010FE
:1020C00042080000000800F0C1070087870700757C
:1020D000500700711C07003EEB0600A1BC0600691A
:1020E00090060066660600703E060061180600173E
:1020F000F4050074D105005BB00500B290050062E4
:102100007205005555050078390500B81E05000513
:102110000505004EEC040087D40400A1BD04009026
:10212000A7040049920400C17D0400EE690400C7C1
:10213000560400444404005C3204000821040041B9
:10214000100400000004003FF00300F8E003002644
:10215000D20300C3C30300CCB503003AA803000AAE
:102160009B0300388E0300C08103009F750300D0DD
:10217000690300505E03001D5303003448030091BF
:102180003D03003333030016290300381F03009773
:10219000150300300C0300030303000BFA0200498F
:1021A000F10200BAE802005CE002002DD802002D26
:1021B000D0020059C80200B0C0020031B90200DAF2
:1021C000B10200AAAA0200A0A30200BC9C0200FA6D
:1021D0009502005C8F0200DF8802008282020045C7
:1021E0007C02002776020027700200436A02007C0E
:1021F000640200D05E02003F590200C8530200FF93
:10220000FDFCFAF8F6F4F2F0EEECEAE9E7E5E3E1DA
:10221000E0DEDCDAD9D7D5D4D2D0CFCDCBCAC8C78F
:10222000C5C3C2C0BFBDBCBAB9B7B6B4B3B2B0AF14
:10223000ADACAAA9A8A6A5A4A2A1A09E9D9C9A996E
:10224000989795949392908F8E8D8B8A89888786A4
:1022500084838281807F7E7D7B7A797877767574BE
:10226000737271706F6E6D6C6B6A696867666564B6
:10227000636261605F5E5D5C5B5A595858575655A2
:102280005453525150504F4E4D4C4B4A4A49484777
:102290004646454443424241403F3E3E3D3C3B3B37
:1022A0003A39383837363535343332323130302FE9
:1022B0002E2E2D2C2B2B2A2929282727262525248D
:1022C000232322212120201F1E1E1D1C1C1B1B1A24
:1022D00019191818171616151514131312121111AF
:1022E000100F0F0E0E0D0D0C0C0B0A0A0909080831
:1022F00007070606050504040303020201000000A7
:10230000005C4300005C4300007A430000A0C00072
:102310000020C10000000045696E7374656C6C2E6E
:10232000206765737065692E00290A002062797440
:1023300065733B20637263200053657474696E6734
:10234000732053746F72656420280048617264635F
:102350006F6465642044656661756C7420536574B0
:1023600074696E6773204C6F616465640020286D2A
:102370006D2900203B204C6576656C696E672000F6
:1023800020204D3432302053004D65736820426563
:1023900064204C6576656C696E67002046002042BB
:1023A0000020480020204D3134352053004D617409
:1023B000657269616C206865617475702070617206
:1023C000616D657465727300202047323920533483
:1023D000205A00204A002020473239205333204918
:1023E0000020204D3134392043203B20556E697444
:1023F0007320696E2043656C736975730A005465B8
:102400006D706572617475726520556E69747300C4
:102410002020473231203B004C696E6561722055A7
:102420006E69747300454550524F4D20646174616C
:1024300073697A65206572726F722E0A00290A002C
:102440002062797465733B2063726320002073748B
:102450006F7265642073657474696E67732072654A
:1024600074726965766564202800202863616C6356
:10247000756C6174656429210A0020213D200045A6
:102480004550524F4D20435243206D69736D617426
:102490006368202D202873746F72656429200020E2
:1024A00053697A653A2000496E6465783A200000E5
:1024B000009643000096430000A0400000C8410081
:1024C00000A0420000A0420000C8430080CF43F4B7
:1024D000010000F401000064000000E80300002097
:1024E0004D61726C696E3D563836290A004545507B
:1024F000524F4D2076657273696F6E206D69736DF2
:10250000617463682028454550524F4D3D0024F4C6
:10251000D43050C38E20C2A24017828B7011127A21
:10252000910D816CD90AA861E108C758660761510D
:1025300043061E4B5D05C145A7041A411104093D20
:102540009803713931034036DB0265339102D43090
:102550005402802E1D02632CEE01752AC501B0289D
:10256000A001102781018F2564012B244B01E0225B
:102570003401AC211F018D200D01801FFC00841E41
:10258000ED00971DDF00B81CD200E61BC600201B23
:10259000BC00641AB200B219A8000A19A0006A1897
:1025A0009900D117910040178B00B51684003116A1
:1025B0007E00B31579003A157300C7146F005814E4
:1025C0006A00EE1366008813630025135E00C712CD
:1025D0005B006C12570015125400C11151007011AC
:1025E0004F0021114B00D61049008D1047004610B6
:1025F000440002104200C00F4000800F3E00420F16
:102600003C00060F3B00CB0E3800930E37005C0EEB
:102610003500270E3400F30D3200C10D3100900D4E
:102620003000600D2E00320D2D00050D2C00D90C50
:102630002B00AE0C2900850C29005C0C2700350C02
:1026400027000E0C2600E80B2400C40B2400A00B6E
:1026500023007D0B23005A0B2100390B2100180B9E
:102660002000F80A1F00D90A1E00BB0A1E009D0A9E
:102670001D00800A1D00630A1C00470A1B002C0A6B
:102680001B00110A1A00F7091A00DD091900C40914
:102690001900AB091900920917007B09180063099A
:1026A00017004C09160036091600200916000A0901
:1026B0001500F5081500E0081400CC081400B8084F
:1026C0001400A4081400900813007D0812006B0881
:1026D000130058081200460812003408110023089D
:1026E00011001208110001081100F0071000E007A6
:1026F0001000D0071000C0071000B0070F00A1079E
:10270000100091070E0083070F0074070F00650784
:102710000E0057070E0049070E003B070D002E075D
:102720000E0020070D0013070D0006070D00F90627
:102730000C00ED060D00E0060C00D4060C00C806E7
:102740000C00BC060C00B0060C00A4060B00990699
:102750000C008D060B0082060B0077060B006C0642
:102760000B0061060A0057060B004C060A004206E1
:102770000A0038060A002E060A0024060A001A0675
:102780000A001006090007060A00FD050900F40505
:102790000900EB050900E2050900D9050900D0058B
:1027A0000900C7050900BE050900B5050800AD050B
:1027B0000800A50509009C050800940508008C0583
:1027C0000800840508007C050800740508006C05F5
:1027D0000700650508005D050700560508004E0561
:1027E00007004705070040050800380507003105C8
:1027F00007002A050700230507001C05060016052B
:1028000007000F0507000805060002050700FB0486
:102810000600F5040700EE040600E8040600E204E2
:102820000700DB040600D5040600CF040600C90437
:102830000600C3040600BD040600B7040600B10488
:102840000500AC040600A6040600A00405009B04D5
:10285000060095040500900406008A04050085041E
:102860000500800406007A04050075040500700464
:1028700005006B04050066040500610405005C04A6
:10288000050057040500520405004D0405004804E6
:102890000500430405003E0404003A040500350425
:1028A0000500300404002C04050027040400230460
:1028B00005001E0404001A04040016040500110497
:1028C00004000D04040009040500040404000004CD
:1028D0000400FC030400F8030400F4030400F00304
:1028E0000400EC030400E8030400E4030400E00334
:1028F0000400DC030400D8030400D4030400D00364
:102900000400CC030400C8030300C503030024F43F
:1029100004D9201BC40C5C0E9804C4095F0265072F
:102920007101F405F900FB04B30048048700C103FA
:1029300069005803550003034500BE023A008402B3
:10294000310053022A002902250004022000E4017C
:102950001C00C8011900AF01170098011400840180
:102960001300710110006101100051010E004301BC
:102970000D0036010B002B010B0020010B0015018F
:1029800009000C01090003010800FB000800F30026
:102990000800EB000700E4000600DE000600D80097
:1029A0000600D2000600CC000500C7000500C200EA
:1029B0000500BD000400B9000400B5000400B1002A
:1029C0000400AD000400A9000400A5000300A2005B
:1029D00003009F0004009B00030098000300950083
:1029E000020093000300900003008D0002008B00A2
:1029F00003008800020086000200840003008100BA
:102A000002007F0002007D0002007B0002007900CE
:102A100002007700010076000200740002007200DC
:102A20000100710002006F0002006D0001006C00E7
:102A300002006A00010069000200670001006600F0
:102A400001006500010064000200620001006100F5
:102A50000100600001005F0002005D0001005C00F9
:102A600001005B0001005A000100590001005800FC
:102A700001005700010056000100550001005400FC
:102A800001005300000053000100520001005100FA
:102A90000100500001004F0001004E0000004E00F8
:102AA00001004D0001004C0001004B0000004B00F4
:102AB00001004A00010049000100480000004800F0
:102AC00001004700010046000000460001004500EB
:102AD00000004500010044000100430000004300E5
:102AE00001004200000042000100410000004100DE
:102AF0000100400001003F0000003F0001003E00D7
:102B000000003E0001003D0000003D0001003C00CF
:102B100000003C0000003C0001003B0000003B00C6
:102B200001003A0000003A000100390000003900BD
:102B300001003800000038000000380001003700B4
:102B400000003700010036000000360000003600AB
:102B500001003500000035000000350001003400A0
:102B60000000340000003400010033000000330096
:102B7000000033000100320000003200000032008B
:102B80000100310000003100000031000100300080
:102B9000000030000000300001002F0000002F0076
:102BA00000002F0000002F0001002E0000002E006A
:102BB00000002E0001002D0000002D0000002D005F
:102BC00000002D0001002C0000002C0000002C0053
:102BD00000002C0001002B0000002B0000002B0047
:102BE00000002B0001002A0000002A0000002A003B
:102BF00000002A000100290000002900000029002F
:102C00000000290000002900010028000000280021
:102C10000000280000002800000028000100270014
:102C20000000270000002700000027000000270008
:102C300001002600000026000000260000002600FB
:102C400000002600010025000000250000002500EE
:102C500000002500000025000000250001002400E0
:102C600000002400000024000000240000002400D4
:102C700001002300000023000000230000002300C7
:102C800000002300000023000000230001002200B8
:102C900000002200000022000000220000002200AC
:102CA000000022000100210000002100000021009E
:102CB0000000210000002100000021000000210090
:102CC0000100200000002000000020000000200083
:102CD0000000200000002000000020000000200074
:102CE00001001F0000001F0000001F0000001F0067
:102CF00000001F0000001F0000001F0001001E0058
:102D000000001E0000001E0000001E000000393000
:102D100000003325000087190000B00F0000DB0819
:102D20000000BD040000740200003F0100002043C9
:102D30006F756E7420583A00426574740045310016
:102D40004500626564002C2073797374656D20738F
:102D5000746F7070656421204865617465725F49A5
:102D6000443A20004845495A454E204552464F4C6A
:102D7000474C4F530048656174696E67206661690E
:102D80006C656400200820C39C424552534348525E
:102D9000495454454E004D415854454D502074728D
:102DA0006967676572656400200820554E54455276
:102DB00053434852495454454E004D494E54454D95
:102DC0005020747269676765726564002008204E40
:102DD0004943485420455252454943485400546899
:102DE00065726D616C2052756E6177617900202F7C
:102DF000002042403A0020403A007C3C3E5E2B3DA1
:102E00003F2F5B5D3B2C2A225C0043616E6E6F742A
:102E1000206F70656E207375626469722000534480
:102E20002063617264206F6B0A006F70656E526F71
:102E30006F74206661696C65640A00766F6C756DED
:102E4000652E696E6974206661696C65640A004E5E
:102E50006F20534420636172640A000A4D323400CB
:102E60004D3233202573002E0A006F70656E206688
:102E700061696C65642C2046696C653A200046697E
:102E80006C652073656C65637465640A0020536922
:102E90007A653A200046696C65206F70656E6564DE
:102EA0003A2000454E4420535542524F5554494E06
:102EB000450A002220706F73002220706172656ED7
:102EC000743A2200535542524F5554494E452043BF
:102ED000414C4C207461726765743A2200537562EC
:102EE00063616C6C20C3BC626572736368726974E1
:102EF00074656E004578636565646564206D61780E
:102F000020535542524F5554494E452064657074C4
:102F1000683A002E0A0044656C6574696F6E20661D
:102F200061696C65642C2046696C653A20004669CD
:102F30006C652064656C657465643A0057726974E9
:102F4000696E6720746F2066696C653A200066724E
:102F500065736800646F696E67002066696C653A26
:102F600020004E6F7720002F6175746F25632E67E8
:102F700000026D61726C696E66772E6F7267003247
:102F80002E302E392E33001FFFFFFFFFFFFF6000A2
:102F900000000001FF400000000000FF8000000072
:102FA00000007F83CF00000C303F87FF80000C3093
:102FB0001F867980000C000F8C30C7838C30E78C23
:102FC00030CFC7CC31F38C30DCECEC33B98C30D85B
:102FD0006C6C33198C30D06C0C33198C30D86C0C71
:102FE00033198C30DC6C0E3B198C30CF7C079F1969
:102FF0008C30C77C038F1940000000000002600085
:1030000000000000061FFFFFFFFFFFF870012C010A
:1030100090012701B0012201C0011D01F00118013A
:103020001002130130020E01600209019002040136
:10303000C002FF000003FA004003F5008003F00027
:10304000D003EB002004E6007004E100E004DC00A3
:103050004005D700C005D2004006CD00D006C8000C
:103060008007C3003008BE00F008B900C009B400F2
:10307000B00AAF00B00BAA00D00CA500000EA00053
:10308000500F9B00C01096005012910000148C004D
:10309000C0158700B0178200B0197D00D01B7800E2
:1030A000001E730040206E0090226900F02464002E
:1030B00040275F0090295A00E02B5500102E500049
:1030C00020304B0010324600E033410090353C0088
:1030D0001037370070383200A0392D00B03A280080
:1030E000A03B2300603C1E00103D1900903D1400E1
:1030F000103E0F00703E0A00C03E0500003F000079
:10310000403FFBFF803FF6FFC03FF1FF2020506CA7
:10311000616E6E657242756666657242797465733A
:103120003A20002046726565204D656D6F72793AD0
:10313000200020436F6D70696C65643A204D6179A1
:1031400020313120323032320A00204C6173742039
:10315000557064617465643A20323032312D3132F9
:103160002D3235207C20417574686F723A20284ECC
:103170006575726F706C616E742C20416E79437549
:10318000626963204D656761205345290A004D61DE
:10319000726C696E20322E302E392E330A00205385
:1031A0006F6674776172652052657365740A0020DA
:1031B0005761746368646F672052657365740A00B1
:1031C0002042726F776E206F75742052657365743C
:1031D0000A002045787465726E616C2052657365D3
:1031E000740A00506F77657255700A0073746172CB
:1031F000740A004732385859004D31303031006F71
:103200006B006572726F722077726974696E6720E5
:10321000746F2066696C650A00446F6E6520736187
:1032200076696E672066696C652E0A00456E647368
:10323000746F70700025532025632025632025635B
:1032400020256300205A3A0020593A0020583A00BD
:10325000656E6473746F7073206869743A2000003F
:10326000202573206D6D002020302C3120206D6DC5
:10327000002020312C3020206D6D002031302C308A
:1032800020206D6D0041636873656E20626577650F
:1032900067656E004265776567652045787472756D
:1032A00064657200426577656765205A00426577FC
:1032B0006567652059004265776567652058004459
:1032C0007275636B20766F6D204D656469756D0056
:1032D000486F6D696E6720676573636865697465BB
:1032E000727400FFFFFF220A00556E6B6E6F776EDF
:1032F00020636F6D6D616E643A20220020450020CE
:103300005A0020590020204D39322058005374654E
:1033100070732070657220756E6974003B200062C6
:103320007573793A2070617573656420666F7220D9
:10333000696E7075740A00627573793A20706175F0
:1033400073656420666F7220757365720A0062751A
:1033500073793A2070726F63657373696E670A00E0
:103360004D313030305300000000010200090A00E6
:103370000000000403080700000000000000000037
:10338000000000000000002121204B494C4C20632C
:10339000617573656420627920746F6F206D756349
:1033A0006820696E6163746976652074696D652053
:1033B0002D2063757272656E7420636F6D6D616E22
:1033C000643A20004D3131322053687574646F7750
:1033D0006E00414E474548414C54454E005072697D
:1033E0006E7465722073746F7070656420647565A7
:1033F00020746F206572726F72732E204669782078
:10340000746865206572726F7220616E64207573D6
:1034100065204D39393920746F207265737461727B
:10342000742E202854656D70657261747572652004
:1034300069732072657365742E20536574206974F6
:103440002061667465722072657374617274696E4E
:1034500067290A004E6F20436865636B73756D20A2
:1034600077697468206C696E65206E756D6265722F
:103470002C204C617374204C696E653A20004D32EB
:1034800039004E6F20436865636B73756D207769F3
:103490007468206C696E65206E756D6265722C2093
:1034A0004C617374204C696E653A200063686563F3
:1034B0006B73756D206D69736D617463682C204C3E
:1034C000617374204C696E653A20004C696E65200A
:1034D0004E756D626572206973206E6F74204C6149
:1034E0007374204C696E65204E756D6265722B3168
:1034F0002C204C617374204C696E653A20004D316C
:1035000031300053657269616C2073746174757336
:10351000206D69736D617463680A0053442072659D
:103520006164206572726F720A00DB0FC93F45BC8F
:10353000DA3F8FB30240FCF0274056946140FE4BC7
:103540009B4084A5D840E0231841346A5641E8598D
:10355000974164DBD5416E271742B4B75542CE1A66
:103560009742C8AED542B5885A43D40684BFA65FF9
:10357000A7BF7443E0BF10B11AC01C2C58C0E8F6B6
:1035800097C0B849D6C04E4E17C124D355C1802428
:1035900097C1A0B5D5C1121A17C244AE55C278174B
:1035A00097C26CACD5C267885AC320746F6F206C09
:1035B0006F6E6720657874727573696F6E207072B4
:1035C0006576656E7465640A0020636F6C642065BF
:1035D0007874727573696F6E2070726576656E743B
:1035E00065640A006F6B0A00526573656E643A2069
:1035F0000000002200250028002B000000210024EC
:103600000027002A0002020202020202020404044D
:10361000040404040403030303030303030101017B
:10362000010101010101020408102040800102048F
:1036300008102040800102040810204080804020B3
:10364000100804020120453A00205A3A0020593A55
:1036500000583A004572726F722077726974696E11
:103660006720746F20454550524F4D210A00416E2E
:10367000796375626963204D6567612053452062F7
:10368000657265697400447275636B742E2E2E002A
:10369000447275636B2070617573696572742E2E48
:1036A0002E00E4E9C5E911241FBECFEFD0E4DEBF50
:1036B000CDBF84B78093DA1614BE0FB6F894A895E0
:1036C00080916000886180936000109260000FBE5E
:1036D00012E0A0E0B1E0E8E8FAEF01E00BBF02C0C1
:1036E00007900D92A437B107D9F726E1A4E7B2E01D
:1036F00001C01D92AA3DB207E1F71BE1C2E5DBE183
:1037000004C02197FE010E9487FAC135D107C9F78D
:103710000E94FBEA0C9438FD0C9400004F925F92DB
:103720006F927F928F929F92AF92BF92CF92DF92D1
:10373000EF92FF926B017C0120E030E0A9010E9432
:10374000C2F387FFA7C06DEB77E386E095EBA70197
:1037500096010E94E0FA6B017C0120E030E040E23B
:1037600051E40E9427F420E030E048EC52E40E944B
:1037700027F44B015C0120E030E040E251ECC7014E
:10378000B6010E94C2F3181654F420E030E048EC71
:1037900052E4C701B6010E9443FC87FD8FC020E0C0
:1037A00030E0A901C701B6010E94C2F387FF77C0CC
:1037B00060E070E080EA90ECA50194010E94E0FADC
:1037C00020E030E040E251E40E9457FB0E94BFFB42
:1037D0006B017C01F7FC68C020E137E240E050E07B
:1037E0000E946BFACA01B9012AE030E040E050E0E3
:1037F0000E946BFA605D6093BF04C701B60128EEBA
:1038000033E040E050E00E946BFA9AE0892E912C60
:10381000A12CB12CCA01B901A50194010E946BFA37
:10382000605D6093C004C701B60124E630E040E06B
:1038300050E00E946BFACA01B901A50194010E94EF
:103840006BFA605D6093C1048EE28093C204C7018D
:10385000B601A50194010E946BFA6B01CA01B9017E
:10386000A50194010E946BFA605D6093C30480E33C
:10387000C80EC092C4048FEB94E0FF90EF90DF90ED
:10388000CF90BF90AF909F908F907F906F905F9000
:103890004F9008956DEB77E386E095E358CF60E0B5
:1038A00070E080EA90E488CFF094E094D094C094E3
:1038B000C11CD11CE11CF11C6DE29DCF20E030E069
:1038C000A901C701B6010E94C2F387FF6BC060E087
:1038D00070E080EA90ECA50194010E94E0FA20E0FB
:1038E00030E040E251E40E9457FB0E94BFFB4B01D5
:1038F0005C0120E030E0A901C701B6010E9443FC51
:1039000087FD0BC020E030E040E251E4C701B60182
:103910000E94C2F360E287FD13C0B7FC48C0C50136
:10392000B40128EE33E040E050E00E946BFACA0197
:10393000B9012AE030E040E050E00E946BFA605D9F
:103940006093C004C501B40124E630E040E050E0DB
:103950000E946BFA8AE0482E512C612C712CCA010E
:10396000B901A30192010E946BFA605D6093C104EA
:103970008EE28093C204C501B401A30192010E94AA
:103980006BFA6B01CA01B901A30192010E946BFAA3
:10399000605D6093C30480E3C80EC092C40480ECF1
:1039A00094E06BCF60E070E080EA90E494CFB09454
:1039B000A09490948094811C911CA11CB11C6DE278
:1039C000BFCFCF93DF93EC01CB01BA010E94C8F3C4
:1039D000688379838A839B83DF91CF910895CF9306
:1039E000DF93EC01CB01BA010E94C8F320E030E084
:1039F0004AE754E40E9457FB688379838A839B8358
:103A0000DF91CF910895CF93DF93EC01CB01BA0101
:103A10000E94C8F30E94C4FB6883DF91CF91089590
:103A20008F929F92AF92BF92CF92DF92EF92FF92CE
:103A30006B017C0120E030E0A9010E94C2F387FD08
:103A4000C3C06DEB77E386E095E3A70196010E9482
:103A5000E0FA6B017C0120E030E0A9010E94C2F392
:103A600087FFB7C0C701B601905820E030E040E2C0
:103A700051E40E9427F420E030E040E251E40E944B
:103A800027F420E030E040EA50E40E94E0FA20E031
:103A900030E040E251E40E9457FB0E94BFFB6B0103
:103AA0007C0160E280EAC81686E8D80681E0E80674
:103AB000F1048CF0C701B60120EA36E841E050E09D
:103AC0000E946BFACA01B9012AE030E040E050E000
:103AD0000E946BFA605D6093BE0460E280E1C816EC
:103AE00087E2D806E104F1048CF0C701B60120E1B9
:103AF00037E240E050E00E946BFACA01B9012AE0C7
:103B000030E040E050E00E946BFA605D6093BF04DB
:103B100060E288EEC81683E0D806E104F1048CF078
:103B2000C701B60128EE33E040E050E00E946BFA96
:103B3000CA01B9012AE030E040E050E00E946BFA8F
:103B4000605D6093C00460E284E6C816D104E104BD
:103B5000F1048CF0C701B60124E630E040E050E00B
:103B60000E946BFACA01B9012AE030E040E050E05F
:103B70000E946BFA605D6093C1048AE0882E912CEC
:103B8000A12CB12CC701B601A50194010E946BFACA
:103B90006B01CA01B901A50194010E946BFA605D35
:103BA0006093C2048EE28093C30480E3C80EC09287
:103BB000C4048EEB94E0FF90EF90DF90CF90BF9025
:103BC000AF909F908F9008956DEB77E386E095EB33
:103BD0003CCF20E030E040E251E4C701B60149CFDC
:103BE000CF93DF93EC01CB01BA010E94C8F320E030
:103BF00030E040E251E40E9457FB688379838A8376
:103C00009B83DF91CF9108950E94C8F320E030E0BC
:103C100040E251E40E9457FB03CFCF93DF93EC01C6
:103C2000CB01BA010E94C8F320E030E048EC52E436
:103C30000E9457FB688379838A839B83DF91CF91AE
:103C400008950E94C8F320E030E048EC52E40E945E
:103C500057FB64CDCF93DF93EC01CB01BA010E94F7
:103C6000C8F30E94BFFB79836883DF91CF910895E9
:103C7000FC0184910895FC0180810895FC01A081DC
:103C8000B1811C92A281B3818C918F5F8C93028051
:103C9000F381E02D90818CE0989F800D1124E1ED5F
:103CA000F3E113AE84AF0895119800C087FD43C0BF
:103CB000419800C0119A00C000C0119800C086FD54
:103CC00046C0419800C0119A00C000C0119800C0C1
:103CD00085FD3BC0419800C0119A00C000C01198FA
:103CE00000C084FD30C0419800C0119A00C000C0DF
:103CF000119800C083FD25C0419800C0119A00C0F2
:103D000000C0119800C082FD1AC0419800C0119AED
:103D100000C000C0119800C081FD0FC0419800C0D4
:103D2000119A00C000C0119800C0419800C0119ABB
:103D300000C000C00895419ABCCF419AF0CF419A8B
:103D4000E5CF419ADACF419ACFCF419AC4CF419A79
:103D5000B9CF90E080E00895CF93DF93C0917206D1
:103D6000D091730681E0CE31D105E4F020E030E05F
:103D700040E05FE360916E0670916F06809170067F
:103D8000909171060E94E0FA0E94BFFB6C1B7D0BB4
:103D900077FF03C071956195710981E0633071050A
:103DA0000CF080E0DF91CF91089590E080E00895DD
:103DB00020916506833021F425FD0CC024FD0CC044
:103DC00030E0A90102C0559547958A95E2F7CA01EE
:103DD0008170089581E0089580E008958091A603A0
:103DE00084FD0BC08091A80387FD07C09091A903B3
:103DF000937081E019F480E0089581E008952FEB3D
:103E0000280F2A3108F047C0E22FF0E08091A60386
:103E10009091A703A091A803B091A90304C0B695FF
:103E2000A795979587952A95D2F780FD02C0817056
:103E30000895E457FC4FE081EE2341F180912E0775
:103E400090912F07E80FF92FF11D808190ED980FC9
:103E50009A3030F08E3251F4818180538A3098F458
:103E6000F0938503E093840381E008958D3211F08F
:103E70008B3249F4818190ED980F9A3088F38E321D
:103E800011F48281EACFF0E0E0E0EACF10928503FE
:103E900010928403E9CF80E00895CF93DF9385E407
:103EA000AEDF882309F188E04091A6035091A70373
:103EB0006091A8037091A903972F9170C92F90E08A
:103EC000D92FCC0FDD1F71FB222720F930E0220F04
:103ED000331F220F331FC22B67FB442740F9C42B2B
:103EE0008C2BDF91CF91089580E0DECF88DF88238F
:103EF00041F081E02091840330918503232B09F464
:103F000080E0089580916A01882331F068E873E1C8
:103F100082E090E00C9480AC089563E972E084E65E
:103F200090E00E9480AC70E060E08AE090E00E9447
:103F300080AC6AEB72E084E690E00C9480AC88235D
:103F400009F0EBCF68E270E080E991E00C9480AC7E
:103F50000E940F89F4CF0E94F7A6F1CFCF92DF9293
:103F6000EF92FF920E94C8F36B017C0120E030E0E9
:103F7000A9010E94C2F32DEB37E346E055E387FF2A
:103F800004C02DEB37E346E055EBC701B6010E94B4
:103F9000E0FA6B017C0120E030E0A9010E94C2F34D
:103FA00020E030E040E05FE387FF04C020E030E045
:103FB00040E05FEBC701B6010E94E0FA0E94BFFB40
:103FC000CB010E943BA9FF90EF90DF90CF90089526
:103FD0000E94C8F30E94BFFBCB010C943BA90E9436
:103FE000C8F320E030E04AE754E40E9457FB0C9409
:103FF000B0AC0E94C8F30E94C4FB862F0C9470A939
:104000000E94BFC10C94D6A0A6E0B0E0EAE0F0E2C6
:104010000C94A9FA7E836D83342EFC01408051807C
:1040200062807380C301B20120E13EE040E050E0D5
:104030000E94F0F949015A0189018CE3C82ED12C64
:10404000E12CF12CC301B201A70196010E94F0F905
:1040500069837A838B839C83CA01B901A701960186
:104060000E94F0F96B017C01332061F1C301B201C0
:1040700020E831E541E050E00E94F0F929013A01E1
:104080005901DF92CF92C40168E170E00E9444FAC6
:104090009F938F935F924F928FE79DE09F938F93B3
:1040A000FE81FF938D818F930E945BF30FB6F8948E
:1040B000DEBF0FBECDBF88E0FAE04F165104D8F046
:1040C00089E019C081149104D1F48A818F93998178
:1040D0009F93DF92CF9283E79DE09F938F93EE8132
:1040E000EF93FD81FF930E945BF30FB6F894DEBF60
:1040F0000FBECDBF85E02696E1E10C94C5FA0436EB
:10410000110568F4DF926F939F928F9287E69DE08E
:104110009F938F939E819F93ED81EF93E4CFDF92E6
:104120006F939F928F928DE59DE09F938F939E81D9
:104130009F93ED81EF930E945BF30FB6F894DEBF7F
:104140000FBECDBF86E0D7CF80E090E0A0E8B0E41E
:104150008093740190937501A0937601B0937701D9
:1041600088EB91E00E9426A080E090E0A0EFB1E40F
:1041700080936C0190936D01A0936E01B0936F01D9
:104180008093700190937101A0937201B0937301B9
:10419000E091AF04EE0FFF0BE856FE4F8081918156
:1041A0008330910549F184309105D9F1029761F48A
:1041B00080E090E0AEE3B3E480936C0190936D01F6
:1041C000A0936E01B0936F0180EA91E00E9426A057
:1041D000109274011092750110927601109277017D
:1041E00088EB91E00E9426A08091AF048F5F84301D
:1041F000ECF48093AF04089580E090E0AEE3B3E484
:1042000080936C0190936D01A0936E01B0936F0148
:104210008093700190937101A0937201B093730128
:10422000D3CF80E090E0AEE3B3E4F2CF1092AF04DE
:1042300008950E941EA671CE0C948A8C0C948A8CD0
:104240000C948A8C0C948A8C1092670410926604E9
:10425000811113C00E94C0C5DC01CB01805D9A486A
:10426000AF4FBF4F8093620490936304A0936404A4
:10427000B093650410926104089580E090E0DC0141
:10428000F1CFCF93DF93C0917206D0917306209740
:1042900029F160916E0670916F0680917006909181
:1042A00071060E94BFFB6E5F7F4F24976C177D07DE
:1042B000ACF470931805609317050E94C0C5605A4E
:1042C00075418F4F9F4F6093190570931A05809326
:1042D0001B0590931C05DF91CF910895109219054D
:1042E00010921A0510921B0510921C05F4CFB0E035
:1042F000A0E0EDE7F1E20C94B1FA6B01E9014A307C
:1043000009F4D5C0453109F081C0DB011296ED9169
:10431000FC91F28096818781139A00C00000E6E24A
:10432000F0E03197F0F7092F182FEF2CE29420EFEF
:10433000E22230E1B32EBF0CE80188EFB5DC00C00B
:10434000000086E290E00197F0F7BFE1BF1508F4A6
:104350009BC08F2D80778068A7DC8E2DA5DC00C0E8
:10436000000086E290E00197F0F780E89DDC80E0B5
:104370009BDC00C0000086E290E00197F0F78AEF36
:1043800093DC00C0000086E290E00197F0F7005F48
:104390001F4F8881807F88DC89918295807F84DCB3
:1043A000C017D107B1F700C0000086E290E0019786
:1043B000F0F7F394E0E1EE0EFB10BECF1398D601B8
:1043C0001296ED91FC9180819281980F92832181C8
:1043D000921708F09FC194819F5F94839381890F06
:1043E000821710F08FEF820F8383458150E0440FD6
:1043F000551F70E060E0868197810E94E4FC81E0B7
:10440000CDB7DEB7E9E00C94CDFADEC1FB01028145
:104410001381423309F485C108F48DC1463409F48F
:1044200075C1473409F482C14B3349F789812B8127
:10443000D80112967C91129713963C91213009F481
:10444000BFC1233009F0A0C148EF480F582F91E0B9
:10445000341708F490E031E0541708F030E0492FA9
:10446000432B61E0571708F460E0462311F49323CF
:1044700031F2FA8030E0F901EC57FE4FD08020583D
:104480003E4FF901E08099C180EE8F0D8068807FFA
:104490000BDC8F2D8295807F07DC00C0000086E258
:1044A00090E00197F0F780E8FFDB80E861CF0B9A9E
:1044B0001398399A4198099A119A139A00C00000EA
:1044C00086E290E00197F0F788E790E0CEE9DFE040
:1044D000FE013197F1F70197D9F788EFE5DB00C0CE
:1044E000000086E290E00197F0F780E2DDDB80E0FB
:1044F000DBDB00C0000086E290E00197F0F780E08F
:10450000D3DB80E8D1DB00C0000086E290E00197B9
:10451000F0F780E0C9DB80E1C7DB00C0000086E285
:1045200090E00197F0F7CE010197F1F7CE010197E6
:10453000F1F7CE010197F1F7CE010197F1F7CE0126
:104540000197F1F7CE010197F1F7CE010197F1F74D
:10455000CE010197F1F7CE010197F1F7CE01019756
:10456000F1F7CE010197F1F7CE010197F1F7CE01F6
:104570000197F1F7CE010197F1F72197F1F780E26A
:1045800093DB80E491DB00C0000086E290E00197BD
:10459000F0F780E289DB80E687DB00C0000086E27E
:1045A00090E00197F0F7D0E0C0E08C2F8077806832
:1045B0007BDB8D2F79DB00C0000086E290E0019765
:1045C000F0F780E871DB80E06FDB00C0000086E27E
:1045D00090E00197F0F78AEF67DB00C0000086E209
:1045E00090E00197F0F780E2119800C0419800C078
:1045F000119A00C000C0119800C0419800C0119AE3
:1046000000C000C0119800C0419800C0119A00C0BD
:1046100000C0119800C0419800C0119A00C000C0AD
:10462000119800C0419800C0119A00C000C01198B4
:1046300000C0419800C0119A00C000C0119800C08D
:10464000419800C0119A00C000C0119800C0419864
:1046500000C0119A00C000C0119800C0419800C06D
:10466000119A00C000C0119800C0419800C0119A72
:1046700000C000C0119800C0419800C0119A00C04D
:1046800000C0119800C0419800C0119A00C000C03D
:10469000119800C0419800C0119A00C000C0119844
:1046A00000C0419800C0119A00C000C0119800C01D
:1046B000419800C0119A00C000C0119800C04198F4
:1046C00000C0119A00C000C000C00000E6E2F0E0A7
:1046D0003197F0F7815009F087CF88EFE5DA00C015
:1046E000000086E290E00197F0F7CF5FD05FC03224
:1046F00009F05BCF80E0D8DA80ECD6DA00C00000A9
:1047000086E290E00197F0F7139879CEF801858161
:10471000888375CE80E0CDB7DEB7E9E00C94CDFAA2
:1047200053C0B901C8010E94EDC669CED8011196E7
:104730008C91888364CE443191F0473109F05FCE8B
:104740001882D80112968C911297898315968C91B4
:10475000159781508A8313968C918B8350CED80104
:1047600015964C91159750E0440F551F70E060E08E
:1047700016968D919C910E94E4FCF8011282808132
:104780008150838314823BCE381708F438CE8717C4
:1047900008F435CEFA80E12CD12C243070F46ACEA6
:1047A000BE01C8010E94EDC6898198819D0D988344
:1047B0008E0D8983FF0C09F422CEF7FEF6CFF0CFE1
:1047C00058E0580F482F43CEEF92FF920F931F935C
:1047D000CF93DF93EC018B017A018A859B85861745
:1047E000970731F0888199810E94DAC81B870A8770
:1047F000B701888199810E94AAC32E813F81820FCF
:10480000932F911D9F838E8390E080E0CDB7DEB71C
:10481000E6E00C94D0FAB0E0A0E0E1E1F4E20C9420
:10482000B0FAEC017B018A018A859B858617970780
:1048300031F0888199810E94DAC8FB86EA868885F2
:104840009985019609F5CC80DA808E81D80EA880F2
:10485000B980D5015596ED91FC91C5010995C80E19
:10486000780110E0F70121917F0121111FC08E8195
:104870009F81810F911D9F838E8390E080E0CDB753
:10488000DEB7EAE00C94CCFAEE80FF80B8018881B4
:1048900099810E94AAC38E0D9F2D911D288539856F
:1048A0002817390780F681E090E0E9CF4C2D6D2D77
:1048B000C5010E9432C9D80E180FD4CFB0E0A0E0D5
:1048C000E4E6F4E20C94B3FAEC01D62E1CAD0BAD89
:1048D0007C0184E0E80EF11CE98DFA8DC701099591
:1048E000412F480F2D2D602FC7010E9432C99BAD6B
:1048F000890F8BAF81E090E0CDB7DEB7E7E00C9495
:10490000CFFA8091840390918503009731F04AE0BB
:1049100050E070E060E00C94E3F160E070E0CB0107
:1049200008958091840390918503009731F04AE0C7
:1049300050E070E060E00C94B6F060E070E0CB0115
:104940000895EFDF97FD0AC0ECDF6F3F7105810529
:10495000910509F02CF4E5DF862F089580E0089595
:104960008FEF08958091840390918503892B39F00E
:10497000E8DF91E0811101C090E0892F089591E076
:10498000FCCFCF93DF93C82FD62FB0DA882321F046
:10499000E9DFDF91CF9108958C2F31DA8111F9CFC2
:1049A0008D2FF7CFBEDFCB0108950F931F93CF93C9
:1049B00080918403909185030097D9F0FC018F01C9
:1049C000C1912C2F2F7D81F0C53411F0C536B9F778
:1049D000F801108270E060E00E9460EFF801C0838F
:1049E000CF911F910F91089570E060E00E9460EFF9
:1049F000F7CF60E070E0CB01F3CFB0E0A0E0E3E000
:104A0000F5E20C94B8FA20E24F8158856E818D81D1
:104A10000E9406C3E2E00C94D4FA4FE350E0BC01DC
:104A20008DEE95E00C941EFD282F10925B06809170
:104A3000460690914706A0914806B0914906B7FFF7
:104A400008C010924606109247061092480610922F
:104A500049068091B604882331F080914606809300
:104A60003F0610925606809139061816FCF4082E5F
:104A7000000C990B821B910920913F06022E000C1D
:104A8000330B2817390794F097FF02C090E080E0BD
:104A900080933F06092E000CAA0BBB0B80934606A1
:104AA00090934706A0934806B093490680913F062D
:104AB0006623A9F090914006891714F4809340066C
:104AC00020914006022E000C330B2C5F3F4F482FE5
:104AD000082E000C550B241735071CF484508093C6
:104AE00040060895E0917A06E63028F581E08E0FC1
:104AF00080937A0640914606509147066091480699
:104B00007091490620914006909139068091B90430
:104B100039E0E39FF0011124E059FB4FA091CF133E
:104B2000B091D013B183A083428353836483758390
:104B30002683978380870895B0E0A0E0E2EAF5E25B
:104B40000C94B7FA1E81812F012E000C990B209135
:104B500060042817190609F094F4109360049E016C
:104B6000275F3F4F4F81588564E570E08BE094E00C
:104B70000E948AF381E011160CF080E065DBE3E02F
:104B80000C94D3FA0F931F93CF93DF936F3F11F4DD
:104B9000109260042091600421111EC08C010E94BB
:104BA00011F3800F911FEC01C01BD10BC535D1054E
:104BB0003CF00197FC012491207C2038D1F3F3CF05
:104BC000DD27AE01B8018BE094E00E9432F3C55FAF
:104BD000DB4F188280E038DBDF91CF911F910F917E
:104BE00008951F93CF93DF932091600421111DC07E
:104BF000FC0101900020E9F73197EF01C81BD90BA8
:104C0000C535D1052CF02291207C2038E1F3F5CF79
:104C1000162FBC01DD27AE018BE094E00E941EFD43
:104C2000C55FDB4F1882812F0FDBDF91CF911F9182
:104C300008950F931F930E94C0C500911C111091FD
:104C40001D1120911E1130911F11601B710B820BE1
:104C5000930B97FD0CC089B183FB882780F991E005
:104C600089274A9B8260309B8460809320118091C9
:104C7000201181709091201191FD826090910A0421
:104C8000981749F0813009F148F0823079F083308B
:104C900091F080930A041F910F910895913079F05B
:104CA0009230B9F79091090491500CC0992339F0D2
:104CB0009330C1F3EECF9130A9F3923051F7909138
:104CC00009049F5F90930904E4CF992359F393302B
:104CD00001F7F5CFCF92DF92EF92FF92CF93C82FDB
:104CE0000E94C0C56B017C0124EA30E74DE75FE319
:104CF00060911701709118018091190190911A012A
:104D00000E94C2F387FD18C08AEF90E0A0E0B0E0F7
:104D10008C0D9D1DAE1DBF1D8093FD039093FE0362
:104D2000A093FF03B0930004C0931401CF91FF90B0
:104D3000EF90DF90CF90089580E090E0DC01E8CF25
:104D4000CF938091B303811154C010920C14109230
:104D50000D1410920E141092DA131092D9131092AF
:104D6000DC131092DB131092DE1381E08093DD13CD
:104D700082E28093DF131092E4131092E313E8EFC2
:104D8000F3E126E034E18FEF81932E173F07E1F73F
:104D9000C1E0C093F51324E53BEB3093EB13209374
:104DA000EA13C093EC131092ED131092EE1390E4FB
:104DB0009093EF131092F01323E53BEB309307141D
:104DC000209306142CE031E03093D8132093D713AE
:104DD0009EE19093FC1391E19093FD139CE19093DD
:104DE000FA138093F9138093F8130E942CC7C09391
:104DF000B30381E08093B2038EE99DE090937F132B
:104E000080937E13109281131092801353985B9AB3
:104E100052985A9A3898409A0CDF109209040E94CE
:104E20006BBFCF910895FC0180E0309749F09491D9
:104E3000992331F0907C903809F08F5F3196F7CF4D
:104E40000895009751F0FC0180E09191992331F091
:104E5000907C9038D1F38F5FF8CF80E00895B0E078
:104E6000A0E0E5E3F7E20C94B0FAEC015B018A0103
:104E7000FB01099587FD10C0C82ED12CF12CE12C27
:104E80002196F801C082D182E282F382CE01CDB7B1
:104E9000DEB7EAE00C94CCFA982F907E903CA9F40F
:104EA0008F7190E0B0E0A0E06C017D0156E0CC0C89
:104EB000DD1CEE1CFF1C5A95D1F7CE010196F501C1
:104EC00009958F73C82A2296DCCF982F907F903E49
:104ED00011F58F7090E0B0E0A0E06C017D0136E04C
:104EE000CC0CDD1CEE1CFF1C3A95D1F7CE010196CF
:104EF000F50109958F73C82A46E0CC0CDD1CEE1C29
:104F0000FF1C4A95D1F7CE010296F50109958F73E2
:104F1000C82A2396B6CF982F987F903F79F587704F
:104F200090E0B0E0A0E06C017D0186E0CC0CDD1CDF
:104F3000EE1CFF1C8A95D1F7CE010196F50109956B
:104F40008F73C82A96E0CC0CDD1CEE1CFF1C9A95D2
:104F5000D1F7CE010296F50109958F73C82A26E094
:104F6000CC0CDD1CEE1CFF1C2A95D1F7CE0103965C
:104F7000F50109958F73C82A249683CF982F907CCA
:104F8000903841F4807C803869F42196CE01F50197
:104F90000995F8CF8E7F8D3F28F02196CE01F5013F
:104FA0000995F8CFC12CD12C76016BCF9CE0899F5D
:104FB000802D112491E0980F9093B1032CE0280FDD
:104FC00020935E0630E02E5F3F4F40910914421758
:104FD000130619F014F080E0089520910B14921735
:104FE000D0F7662341F08E5F0E9411C880915E0663
:104FF0008E5F0E9411C880915E06909109148917F6
:1050000050F320910B149091B103291720F31092C3
:105010000C1480930D1481E008952091B003022EAA
:10502000000C330B8217130641F08093B00365E543
:1050300071E185ED93E10C94DAC80895ACE0B0E03D
:10504000E4E2F8E20C94B2FA6F3F71058105910534
:1050500009F070F481ED93E131DCE091D913F09126
:10506000DA133196849190E02C96E8E00C94CEFA15
:10507000F0900C14E0900D142091B20321110FC098
:105080004DE35DE06E2D8F2D0E948BC990E080E096
:10509000F80EF0920C14E0920D149927E5CFC09011
:1050A000D913D090DA1325ED33E13A8329832F2DDC
:1050B00030E03C832B832E2D30E03E832D831886F9
:1050C0001F822FEF3FEF3A8729871C861B860BE054
:1050D00014E29E012F5F3F4FAB01BC01C6010E944D
:1050E000ADBEB60185ED93E10E94DAC88F81988547
:1050F000CFCF4F925F926F927F928F929F92BF928B
:10510000CF92DF92EF92FF920F931F93CF93DF9393
:10511000CDB7DEB728970FB6F894DEBF0FBECDBF70
:105120007C016A014901FB0190818CE0989F800D10
:105130001124982FF7012081822F880F820F880F6A
:1051400080930C1490930D144115510561F1FA826E
:10515000E9827C836B8301111FC0AE014B5F5F4FFF
:10516000B401C6017CDE6C016D817E818F819885E2
:105170006115710581059105B1F060DFF70180814E
:105180008F5F8083853148F3CE0101960E943E1ED9
:10519000E4CFB12C860129C08A01B12C26C0452854
:1051A00046284728B1F728960FB6F894DEBF0FBE01
:1051B000CDBFDF91CF911F910F91FF90EF90DF90C6
:1051C000CF90BF909F908F907F906F905F904F9007
:1051D0000895B39407C0B1102DC001151105C9F28F
:1051E0000F5F1F4F01151105A9F2AE014B5F5F4F15
:1051F000B401C60134DE6C014D805E806F8078841E
:105200004114510461047104A9F0F0E24F165104F5
:105210006104710401F3D301C2018D97A109B109A1
:105220000297A105B10530F04BE244165104610428
:10523000710479F6F7018081482F4B0D5527551FD2
:105240004631510534F0853020F0CE0101960E94A0
:105250003E1E81E0411451046104710409F480E0B0
:10526000B80EF70180818B0D8083BB2009F497CFA6
:10527000BA94AE014B5F5F4FB401C801F0DD8C0101
:105280006D817E818F819885D9DEEFCFCF93DF93BB
:10529000FC0125AD211104C021E025AF0E942CC7DF
:1052A000C091D713D091D813E0910614F091071450
:1052B00082E00995E0910614F091071481E00995C8
:1052C00030E020E044E1BE0185ED93E10E9427C774
:1052D00028E034E147E1BE0185ED93E10E9427C754
:1052E000E0910614F091071480E00995DF91CF91C9
:1052F0000895ACE0B0E0EFE7F9E20C94B2FAF09078
:105300000C14E0900D142091B203211112C04DE154
:105310005DE06E2D8F2D0E948BC990E080E0F80E2D
:10532000F0920C14E0920D1499272C96E8E00C945E
:10533000CEFAC090D913D090DA1325ED33E13A8339
:1053400029832F2D30E03C832B832E2D30E03E83AC
:105350002D8318861F827A8769871C861B860BE03F
:1053600014E29E012F5F3F4F48E35EE1BC01C6019E
:105370000E9442BFB60185ED93E10E94DAC88F8199
:105380009885CDCFA4E0B0E0E8ECF9E20C94AEFA59
:105390007C01062F5A01122F862F660F990B9C0154
:1053A00024583E4F690186E0882E912C11160CF08E
:1053B0003DC0AE014F5F5F4F68E37EE1C7014FDD47
:1053C0007C0169817A818B819C81611571058105E0
:1053D000910561F16D3371058105910509F450C0A6
:1053E0006E3771058105910509F44AC06A3271056D
:1053F0008105910501F507FF11C085E99DE00E3F8C
:1054000011F080E99DE036E01302B001112471DF54
:1054100066E070E00E9458FA161B60C065E470E018
:1054200080E090E00BDE115069F510E0812F2496AA
:10543000ECE00C94CAFA643271058105910571F4AF
:10544000A114B104D1F0E6E01E02B0011124C5019F
:1054500050DFB4010E9458FA161BA8CF60347105C2
:105460008105910551F41150F6016081062E000C62
:10547000770B880B990BE2DD99CFE0DD115096CFC9
:1054800007FDBBCF61E089819A81AB81BC81CD975B
:10549000A105B10509F460E0600F6A30A4F0115075
:1054A000862F6AE00E9437FA092F682F880F770B42
:1054B000605D7F4F072E000C880B990BBFDD112319
:1054C00009F4B3CF602F062E000C770B605D7F4F81
:1054D000072E000C880B990BB1DD1150112309F434
:1054E000A4CF86E01802B0011124C70102DF66E0F4
:1054F00070E00E9458FA161B99CF6FEF7FEFF9CE3C
:10550000E1EDF3E183AF64AF6FEF7FEFCA01F1CE5E
:10551000ACE0B0E0EEE8FAE20C94B2FAF0900C14D1
:10552000E0900D142091B203211112C04DEF5CE008
:105530006E2D8F2D0E948BC990E080E0F80EF092C6
:105540000C14E0920D1499272C96E8E00C94CEFAF6
:10555000C090D913D090DA1325ED33E13A83298333
:105560002F2D30E03C832B832E2D30E03E832D8386
:1055700018861F827A8769871C861B860BE014E2D7
:105580009E012F5F3F4F4BE35EE1BC01C6010E94CD
:1055900042BFB60185ED93E10E94DAC88F819885FC
:1055A000CDCFB0E0A0E0E7EDFAE20C94AEFA5B01FB
:1055B000C42F790141FB662760F9F8DC882309F4E0
:1055C0005EC0D12CC12CA114B10431F0C5012BDC7B
:1055D00096E0899F6001112410E000E0E114F104DD
:1055E00021F0C7012EDC082F10E0C0FF20C080E8AA
:1055F00090E08C199D094AEF40039001419F300DC6
:105600001124820F931F6CE070E00E9458FA4B0146
:10561000C0E8D0E081E0881A910897FC0AC060E2F7
:1056200070E080E090E00ADDC81BD90BF3CFC0E842
:10563000D0E0C114D10491F0CE0166E070E00E9488
:1056400044FA4091600650916106262F60915F06F2
:10565000C50198DE96E0899FE0011124011511052E
:1056600029F0BE01C70154DFC81BD90BC730D105D3
:1056700030F060E270E080E090E0E0DCF5CFCDB7A4
:10568000DEB7ECE00C94CAFA80916B01882349F0F4
:105690006091AC047091AD0430E020E041E081E025
:1056A00080CF08956FEF7FEF33CFB0E0A0E0EBE560
:1056B000FBE20C94B0FA5C016B01B5DBE82EC6018D
:1056C000C0DBF12C03E110E0081B1109C5E20E1547
:1056D0001F050CF4CFE18C2F90E09C012E5F3F4F13
:1056E000409109144217130609F08CF5099720918F
:1056F0000B14281719065CF1409160065091610661
:1057000060915F0610920C14C0930D1425E1C50141
:1057100039DED1E0C114D104A9F06AE370E080E081
:1057200090E08CDC0E151F05A4F4C45F8091091471
:10573000C81740F020910B144C2F4950550B2417DB
:1057400015064CF4CDB7DEB7EAE00C94CCFAD0E005
:10575000E1CFDD23B9F3802F880F080F000F0093EE
:105760000C14C0930D1460E270E080E090E066DC01
:10577000C60198DFE7CFACE0B0E0E1ECFBE20C94CF
:10578000AEFA982F862F6A017901B02E692F0EDCB0
:10579000882309F486C01091B203C701002371F178
:1057A00042DBA82E8090D9139090DA13111141C0DA
:1057B0002FEF3FEF122F23E12A19409160065091FD
:1057C000610660915F06C601DDDDAA2009F469C0AB
:1057D000B6E08B9F600111246AE370E080E090E006
:1057E0002DDC57E0C516D10408F441C060E270E03A
:1057F00080E090E023DCC81AD90AF3CF22DBA82E80
:105800008090D9139090DA13112391F2FE01339610
:105810008AE0DF011D928A95E9F785ED93E19A838D
:10582000898304EE13E29E012F5F3F4F4BE35EE15D
:1058300012C0FE0133968AE0DF011D928A95E9F7D6
:1058400085ED93E19A83898304EE13E29E012F5F35
:105850003F4F48E35EE1B701C4010E9442BFB4017B
:1058600085ED93E10E94DAC82F813885A3CF40915E
:105870005E06212F30E0A6E0AA9EC00111242E5F13
:105880003F4F281739070CF49C0180E8821B809356
:105890000C1440930D14BB2041F06FEF7FEFC70154
:1058A00028DD2C96ECE00C94CAFAC701FBDEF9CF98
:1058B000E1EDF3E183AF64AFCA01F4CEAB01BC010B
:1058C00040932D1450932E1460932F147093301422
:1058D00087E795E10C941F7D0C94EDBFCF93DF9388
:1058E000DB01F9019C919130C1F0943080F094502B
:1058F0009C938830D1F480819181009771F0019759
:1059000091838083480F591FEA01188206C08C35A5
:1059100039F49C5F9C93943041F4DF91CF910895CA
:105920008B3339F781E08C93F8CF20813181B90135
:105930006F5F7F4F71836083420F531FEA0188833B
:10594000808191818F3591056CF7E7CF0F931F937D
:1059500081E000912D1410912E1420912F1430917C
:1059600030144091291450912A1460912B14709195
:105970002C14041715072607370708F480E01F9139
:105980000F9108954F925F926F927F928F929F92A4
:10599000BF92CF92DF92EF92FF920F931F93CF931C
:1059A000DF931092AB031092AA032FE32093AF036F
:1059B0001092AE031092AD031092AC031092A603A6
:1059C0001092A7031092A8031092A9039C01F90159
:1059D00090812F5F3F4F9032D1F39E34C9F4818183
:1059E00090ED980F9A3020F08D3211F08B3281F4C7
:1059F00032969F012F5F3F4F808180538A3008F499
:105A00007EC09F012F5F3F4F8081803209F479C0B3
:105A1000F0932F07E0932E078F010F5F1F4FC08178
:105A20006AE270E0C8010E94FEFC009731F0FC01C0
:105A3000319780818032E1F31182CD3429F0C43571
:105A400019F0C73409F04BC0F80180810F5F1F4F78
:105A50008032D1F380538A3008F041C0C093AF0345
:105A600090E080E04AE0DF011196489F9001499F55
:105A7000300D1124C901C0972081820F911D27FD8F
:105A80009A95218130ED320F3A30E8F19093AE03D0
:105A90008093AD032E3261F4329630E04AE0DF01AC
:105AA00031962C9150ED520F5A3078F13093AC036F
:105AB0009D01D9012F5F3F4F4C914032D1F3CD343E
:105AC000A1F58E31910539F030F58731910519F046
:105AD0008C31910551F5B093AB03A093AA03DF91EC
